:020000040800F2
:100000004804002045010008B5080008B7080008AA
:10001000BB080008BF080008C30800080000000073
:10002000000000000000000000000000C7080008F9
:10003000C908000800000000CB080008CD0800082F
:100040005F0100085F0100085F0100085F01000810
:100050005F0100085F0100085F0100085F01000800
:100060005F0100085F0100085F0100085F010008F0
:100070005F0100085F0100085F0100085F010008E0
:100080005F0100085F0100085F0100085F010008D0
:100090005F0100085F0100085F0100085F010008C0
:1000A0005F0100085F0100085F0100085F010008B0
:1000B0005F0100085F0100085F0100085F010008A0
:1000C0005F0100085F0100085F0100085F01000890
:1000D0005F0100085F0100085F0100085F01000880
:1000E0005F0100085F0100085F0100085F01000870
:1000F0005F0100085F0100085F0100085F01000860
:100100005F0100085F0100085F0100085F0100084F
:100110005F0100085F0100085F0100085F0100083F
:100120005F0100085F0100085F0100085F0100082F
:10013000DFF80CD001F0EEFF004800477106000820
:10014000480400200648804706480047FEE7FEE7CF
:10015000FEE7FEE7FEE7FEE7FEE7FEE7FEE7FEE777
:10016000C51F00083101000801B502E00098401EDB
:10017000009000980028F9D108BD704710B500BF65
:100180004FF40031FE4801F0E5FC0028F8D10121D0
:10019000FB4801F0F4FB0121F94801F0D8FB00BF56
:1001A000F849F74801F0B4FC0028F9D00022D0212A
:1001B000F34801F022FC00BFF349F14801F0A8FC2C
:1001C0000028F9D07521EE4801F011FC00BFEE497E
:1001D000891CEB4801F09CFC0028F8D00121E8487C
:1001E00001F0B5FB00BFE749E54801F091FC0028AC
:1001F000F9D00122D021E24801F0FFFB00BFE14924
:10020000491CDF4801F084FC0028F8D00021DC48BC
:1002100001F0B5FB0121DA4801F0A5FB00BFD94987
:100220003F31D74801F074FC0028F8D0D44801F0E1
:10023000E0FBD64948700121D14801F0A0FB10BD78
:1002400000B587B00121452000F0AEFE0121080372
:1002500000F0AAFEE020ADF8040001208DF80600B1
:1002600018208DF8070001A9C94800F065FF062095
:10027000ADF8040001208DF8060010208DF807006D
:1002800001A9C34800F058FF0820ADF80400012080
:100290008DF8060048208DF8070001A9BC4800F041
:1002A0004BFF0221BA4800F0F2FF0020ADF8080031
:1002B0004FF48270ADF80A000020ADF80C00ADF8E4
:1002C0000E00ADF810004FF40070ADF812001020D1
:1002D000ADF814000020ADF816000720ADF81800A6
:1002E00002A9AC4801F0A0FC0121AA4801F041FD9F
:1002F00007B000BD10B5044600BF0221A54801F0BB
:10030000BCFD0028F9D02146A24801F063FD00BFE2
:100310000121A04801F0B1FD0028F9D09D4801F06D
:100320005BFDC0B210BD2DE9F04107460C461546F5
:100330000421974800F0ADFF0221954800F0A9FF85
:100340003846FFF7D7FF8046002605E014F8010B7A
:10035000FFF7D0FF701CC6B2AE42F7DB02218C481B
:1003600000F095FF4046BDE8F0812DE9F0410746D9
:100370000D4616460421864800F08BFF0221844872
:1003800000F087FF3846FFF7B5FF8046002405E000
:10039000FF20FFF7AFFF2855601CC4B2B442F7DB63
:1003A00002217B4800F073FF4046BDE8F08170B544
:1003B00005460C460421764800F06BFF0221744884
:1003C00000F067FF2846FFF795FF06462046FFF737
:1003D00091FF02216E4800F05AFF304670BD70B5A3
:1003E000044604216A4800F054FF0221684800F0E6
:1003F00050FF2046FFF77EFFFF20FFF77BFF0546FB
:100400000221634800F043FF284670BD1FB562A17A
:1004100003C9CDE90201002000900190052202A944
:100420003020FFF780FF052269461020FFF79DFF6F
:10043000002406E01DF80400C22800D003E0601C80
:10044000C4B2052CF6DB00BF052C02D1002004B09D
:1004500010BD0120FBE710B504214D4800F019FF45
:100460000D212020FFF7A3FF0421494800F00FFFD2
:100470004B48FFF779FE10BD10B5FFF7ECFF0421E4
:10048000434800F006FF052246492A20FFF74BFFAC
:1004900001212120FFF78BFF01212220FFF787FF99
:1004A00028212520FFF783FF20213120FFF77FFF40
:1004B00027212620FFF77BFF0F212020FFF777FF62
:1004C0000421334800F0E3FE4FF6FF70FFF74CFEC7
:1004D00010BD10B5FFF7BFFF04212D4800F0D9FE75
:1004E000052231493020FFF71EFF05222D492A2021
:1004F000FFF719FF01212120FFF759FF01212220D9
:10050000FFF755FF1A212420FFF751FF282125204E
:10051000FFF74DFF27212620FFF749FF0E2120205E
:10052000FFF745FF04211A4800F0B1FE4FF6FF70B7
:10053000FFF71AFE10BD70B505460421144800F0FF
:10054000A8FE20222946A020FFF7EDFE0421104836
:1005500000F09DFE00BF08210D4800F07EFE00283F
:10056000F9D10720FFF73BFF044621462720FFF77C
:100570001EFFFF21E120FFF71AFF14F0100F15E016
:100580000058004001000300820007003C000020EA
:100590000008014000300140C2C2C2C2C2000000D7
:1005A000FFFF0F00050000200000002001D01020F8
:1005B00070BD14F0200F01D02020F9E70020F7E7EC
:1005C00070B5054600260421A14800F060FE00BF7A
:1005D00008219F4800F041FE28B13046761C41F2C8
:1005E00088318842F4DBA6F59850883800D170BD78
:1005F0000421974800F04DFE0720FFF7F0FE044667
:1006000021462720FFF7D3FE14F0400F0AD0202206
:1006100029466120FFF7A9FEFF21E220FFF7C7FE70
:100620004020E4E70020E2E770B503461A460020C8
:1006300008E0145C4D1E2D1A555D15544D1E2D1AE3
:100640005455401C01EBD176B0EB660FF1DB70BD69
:1006500038B504460D4602236A462946204600F076
:100660007DFA02216846FFF7DFFFBDF9000038BDC3
:100670009AB000BF202112A801F02BFD00F028F94C
:10068000FFF7DEFDFFF7C2FE0446214671A001F030
:1006900053FD75A001F050FD302000F019FA75A04F
:1006A00001F04AFD00BF77A001F046FDAA21EE202F
:1006B000FFF7CEFF8146AC21EE20FFF7C9FF119076
:1006C000AE21EE20FFF7C4FF1090B021EE20FFF71F
:1006D000BFFF80B20F90B221EE20FFF7B9FF80B2CA
:1006E0000E90B421EE20FFF7B3FF1FFA80FBB62176
:1006F000EE20FFF7ADFF0D90B821EE20FFF7A8FF29
:100700000C90BA21EE20FFF7A3FF0B90BC21EE2046
:10071000FFF79EFF0A90BE21EE20FFF799FF099098
:1007200009A80BC80C9ACDE90423CDE90610DDE930
:100730000E210D988DE80608039049465548DDE9DD
:10074000103201F0F9FC81E02E22F421EE2000F0BD
:1007500075FA5148FFF708FDF621EE20FFF778FF04
:1007600004903422F421EE2000F068FA4A48FFF7A2
:10077000FBFCF621EE20FFF76BFF80461FFA88F89E
:100780000498A0EB0B000E994843C4130A98C102C9
:100790000998204491FBF0F56019089008980830FA
:1007A000001104900898A0F57A6707FB07F0001382
:1007B0000C994843C41211987843C51260190790E8
:1007C000079901EB8901881CC11700EB9171891011
:1007D000069110987843441307FB07F000130D9916
:1007E000484305146019801C80100790079901F593
:1007F00000410F984843C00B05900698A8EB0000F5
:100800004CF2503100FB01FABAF1004F05D24FEA29
:100810004A010598B1FBF0F603E00598BAFBF0F049
:100820004600301200FB00F440F6DE306043041452
:100830001A4870430514601900F6CF6006EB2018C3
:10084000424617A0049901F077FC00BF7CE7000046
:10085000000801404E52465F436865636B282920BB
:100860003D2025640D0A000049324320696E6974F9
:100870000D0A000049324320696E6974204F4B0D08
:100880000A000000737461727420424D5030383594
:100890000D0A0000CC220008FFFF0F0043E3FFFF1A
:1008A0004932432064617461203D2025642C202559
:1008B000640D0A00704700BFFEE700BFFEE700BFFF
:1008C000FEE700BFFEE770477047704770470000C3
:1008D00000B585B0012144F2040000F065FB4FF43F
:1008E0000070ADF8100018208DF8130003208DF86B
:1008F000120004A9744800F01FFC4FF48060ADF8AA
:10090000100004208DF8130004A96F4800F014FCB7
:100910004FF4E13000900020ADF80400ADF806007F
:10092000ADF80800ADF80C000C20ADF80A006946DF
:10093000664800F090FD0121644800F018FE05B003
:1009400000BD70B504460D46E1B2604800F07CFE83
:1009500000BF5E48008810F0800FFAD0204670BDBE
:10096000F0B503460D461646002729460A2E03D049
:10097000002008702846F0BD33B9302001F8010B83
:10098000002008702846F6E7002B03DA2D2001F836
:10099000010B5B4242F210720DE093FBF2F404B9DA
:1009A00037B104F1300001F8010B04FB12330127C9
:1009B0000A2092FBF0F2002AEFDC002008702846A3
:1009C000D9E70FB470B586B006460CA8019073E065
:1009D0000B9800785C281CD10B98401C0B90007879
:1009E0006E2809D072280FD10D21304600F02CFE60
:1009F0000B98401C0B900BE00A21304600F024FEBF
:100A00000B98401C0B9003E00B98401C0B9000BF10
:100A10004BE00B980078252840D10B98401C0B9098
:100A20000078642818D0732833D1019810C8019039
:100A30000BE02178304600F007FE00BF4021304631
:100A400000F070FE0028F9D0641C20780028F0D156
:100A50000B98401C0B9020E0019820C801900A22BE
:100A600002A92846FFF77CFF02AC0BE02178304654
:100A700000F0EAFD00BF4021304600F053FE0028A0
:100A8000F9D0641C20780028F0D10B98401C0B9002
:100A900003E00B98401C0B9000BF06E00B9810F889
:100AA000011B0B90304600F0CFFD00BF40213046C7
:100AB00000F038FE0028F9D00B980078002887D184
:100AC00006B070BC5DF814FB00080140003801401E
:100AD00010B586B004460121880500F072FA0121A4
:100AE000082000F061FA4FF44060ADF804000320E4
:100AF0008DF806001C208DF8070001A9704800F051
:100B00001BFB704800F068FE0020ADF80C004BF6AF
:100B1000FF70ADF80E00ADF810404FF48060ADF8F6
:100B200012000001ADF814006748029001216548E9
:100B300000F0E9FE02A9634800F067FE0121614868
:100B400000F01DFF4FF480615D4800F0A2FB4FF400
:100B500000615B4800F09DFB06B010BD2DE9F0413F
:100B60000646884617461D4600BF4FF400315548DB
:100B700000F0F0FF0028F8D10121524800F0FFFEFC
:100B80000121504800F0E3FE00BF50494D4800F0FD
:100B9000BFFF0028F9D0002231464A4800F02DFF5F
:100BA00000BF4B49474800F0B3FF0028F9D0414649
:100BB000444800F01CFF00BF4549891C414800F033
:100BC000A7FF0028F8D001213E4800F0C0FE00BF7A
:100BD0003E493C4800F09CFF0028F9D001223146F4
:100BE000384800F00AFF00BF3849491C354800F07A
:100BF0008FFF0028F8D0002417E0681EA04207D11C
:100C00000021304800F0BBFE01212E4800F0ABFE71
:100C100000BF2E493F312B4800F07AFF0028F8D062
:100C2000284800F0E6FE3855641CAC42E5DB0121A3
:100C3000244800F0A4FE0020BDE8F08170B5044611
:100C40000E46154600BF4FF400311E4800F082FFEB
:100C50000028F8D101211B4800F079FE00BF1B4994
:100C6000184800F055FF0028F9D000222146154809
:100C700000F0C3FE00BF1649124800F049FF0028EB
:100C8000F9D031460F4800F0B2FE00BF1049891C70
:100C90000C4800F03DFF0028F8D02946094800F034
:100CA000A6FE00BF0A49891C064800F031FF002853
:100CB000F8D00121034800F056FE002070BD00006E
:100CC000000C014000580040A08601000100030014
:100CD00082000700DD48006840F00100DB49086041
:100CE00008464068DA490840D84948600846006824
:100CF000D8490840D54908600846006820F480209B
:100D000008600846406820F4FE0048604FF41F0069
:100D100088607047CD49096821F48031CB4A116061
:100D20001146096821F480211160B0F5803F03D09D
:100D3000B0F5802F0ED106E0C449096841F4803136
:100D4000C24A116007E0C149096841F4A021BF4AC5
:100D5000116000E000BF00BF704710B501460022DF
:100D6000002300204A11012A02D1B84C236806E072
:100D7000022A02D1B54C236A01E0B44C636A01F047
:100D80001F02012494401C4201D0012000E00020F9
:100D900010BD38B5002000900024002500BF312090
:100DA000FFF7DBFF05460098401C00900098B0F567
:100DB000A06F01D0002DF2D03120FFF7CEFF08B197
:100DC000012400E00024204638BD014600209F4A4F
:100DD000106820F0F80040EAC100106070479E499A
:100DE0000860704702460020984B586820F47C1039
:100DF00042EA01031843954B5860704796490866CC
:100E0000704701460020914A506820F003000843D3
:100E1000506070478D48406800F00C0070470146F4
:100E200000208A4A506820F0F00008435060704764
:100E300001460020854A506820F4E0600843506075
:100E4000704701460020814A506820F4605040EA13
:100E5000C1005060704729B17C4A527A02437B4BF3
:100E60005A7204E0794A527A8243784B5A72704738
:100E70007A490860704701460020744A506820F49F
:100E800040400843506070470021754A11706F4A16
:100E900082F82010012802D0042808D103E00121A3
:100EA0006F4A117004E005216D4A117000E000BF27
:100EB00000BF70476B49086070476449096A014385
:100EC000624A11627047674944390860704730B51B
:100ED00000210022002400235C4D6D6805F00C0108
:100EE00021B1042905D0082923D105E05E4D056014
:100EF00022E05D4D05601FE0544D6D6805F47012F1
:100F0000524D6D6805F48034022505EB92421CB900
:100F1000564D554305600BE04C4D6D6815F4003F90
:100F200003D0524D5543056002E04F4D55430560D7
:100F300002E04D4D056000BF00BF444D6D6805F0F7
:100F4000F00109094A4D6B5C0568DD4045603F4D85
:100F50006D6805F4E061090A454D6B5C4568DD404C
:100F600085603A4D6D6805F46051C90A404D6B5C6F
:100F70004568DD40C560354D6D6805F44041890B1D
:100F80003C4D6B5CC568B5FBF3F5056130BD29B11F
:100F90002E4A526902432D4B5A6104E02B4A526992
:100FA00082432A4B5A61704729B1284A9269024309
:100FB000264B9A6104E0254A92698243234B9A6149
:100FC000704729B1214AD2690243204BDA6104E01B
:100FD0001E4AD26982431D4BDA61704729B11B4A10
:100FE000D2680243194BDA6004E0184AD26882439F
:100FF000164BDA60704729B1144A12690243134B49
:101000001A6104E0114A12698243104B1A61704759
:1010100014494039086070470F49C86470470B494C
:10102000C87170470948406A40F0807007494862BB
:10103000704701460020054A92680A4201D001200B
:1010400000E000207047014988727047001002409C
:101050000000FFF8FFFFF6FE00004242D8004242C7
:10106000201002408004424200127A0000093D0034
:10107000100000202000002010B50446CA48844219
:1010800008D101210420FFF7A9FF00210420FFF768
:10109000A5FF46E0C548844208D101210820FFF79A
:1010A0009DFF00210820FFF799FF3AE0C0488442E5
:1010B00008D101211020FFF791FF00211020FFF738
:1010C0008DFF2EE0BB48844208D101212020FFF78C
:1010D00085FF00212020FFF781FF22E0B6488442EF
:1010E00008D101214020FFF779FF00214020FFF7C0
:1010F00075FF16E0B148844208D101218020FFF736
:101100006DFF00218020FFF769FF0AE0AC488442B0
:1011100007D101218015FFF761FF0021A015FFF71E
:101120005DFF10BD10B501210846FFF757FF0021F4
:101130000120FFF753FF10BD2DE9F04102460025C5
:101140000026002000230024002791F803C00CF0A3
:101150000F0591F803C01CF0100F03D091F802C0E6
:101160004CEA050591F800C0BCF1000F31D01468BD
:1011700000202BE04FF0010C0CFA00F3B1F800C096
:101180000CEA03069E4220D183004FF00F0C0CFAAC
:1011900003F7BC4305FA03FC4CEA040491F803C0CE
:1011A000BCF1280F06D14FF0010C0CFA00FCC2F87C
:1011B00014C00AE091F803C0BCF1480F05D14FF00C
:1011C000010C0CFA00FCC2F810C0401C0828D1D356
:1011D0001460B1F800C0BCF1FF0F34DD546800208A
:1011E0002EE000F1080C4FF0010808FA0CF3B1F8FA
:1011F00000C00CEA03069E4221D183004FF00F0C81
:101200000CFA03F7BC4305FA03FC4CEA040491F81A
:1012100003C0BCF1280F05D100F1080C08FA0CF846
:10122000C2F8148091F803C0BCF1480F07D100F157
:10123000080C4FF0010808FA0CF8C2F81080401CA6
:101240000828CED35460BDE8F0814FF6FF710180CD
:10125000022181700421C17070470246002093680A
:101260000B4201D0012000E0002070470146886851
:1012700080B2704702460020D3680B4201D00120A3
:1012800000E0002070470146C86880B270470161E5
:101290007047416170470AB1016100E041617047E8
:1012A000C16070474FF480320A438261816182617C
:1012B00082698269704702460020424B18684FF6E7
:1012C0008073184040EA021008433E4B1860704794
:1012D0003D49C8617047F0B50A460023002400214B
:1012E000002500F00046B6F1004F02D1354EF169FD
:1012F00001E0344E7168C0F3034583B200F4401638
:10130000B6F5401F08D121F070612E4E766826F0A8
:1013100070662C4F7E6012E000F48016B6F5801FD8
:1013200006D1032606FA05F4A14341F0706106E0F8
:10133000460D360103FA06F6B14341F0706122B161
:10134000460D360103FA06F6314300F00046B6F1C9
:10135000004F02D11B4EF16101E01A4E7160F0BDE9
:1013600030B500228B071C0F0F2303FA04F2154B34
:1013700008338C1053F824309343124C08348D10EA
:1013800044F8253023468C1053F824308C07240F62
:1013900000FA04F423430B4C08348D1044F8253034
:1013A00030BD0A490860704700080140000C014048
:1013B000001001400014014000180140001C0140D1
:1013C000002001400000014000002042DC002042DB
:1013D00010B50446FB48844209D101218803FFF778
:1013E000FDFD00214FF48040FFF7F8FD32E0F648A4
:1013F000844209D101214804FFF7FDFD00214FF48B
:101400000030FFF7F8FD25E0F048844209D10121C2
:101410008804FFF7F0FD00214FF48020FFF7EBFD7B
:1014200018E0EB48844209D10121C804FFF7E3FD2D
:1014300000214FF40020FFF7DEFD0BE0E548844279
:1014400008D101210805FFF7D6FD00214FF48010D7
:10145000FFF7D1FD10BD2DE9F04786B005460E46D9
:101460000024A24600BFA1460027B08900B100BFFA
:101470002F462C8A4CF6FF700440F08804432C82DF
:10148000AC894EF6F3100440B08831890843718965
:1014900008430443AC81AC8A4FF6FF400440B08956
:1014A0000443AC8201A8FFF712FDC648874202D16F
:1014B000DDF810A001E0DDF80CA0A88910F4004FC1
:1014C00008D00AEBCA0000EB0A1031684900B0FBF3
:1014D000F1F807E00AEBCA0000EB0A103168890056
:1014E000B0FBF1F86420B8FBF0F00401200964219E
:1014F00001FB1089A88910F4004F08D0322000EBBE
:10150000C900B0FBF1F000F00700044308E032200E
:1015100000EB09106421B0FBF1F000F00F00044370
:101520002C8106B0BDE8F0874FF416510160002110
:101530008180C18001810C2141810021818170471E
:1015400010B502460020108A4FF2FF0318400B88A6
:101550004C8823438C882343CC8823431843108230
:1015600010BD0021018041808180C180704721B180
:10157000828942F40052828104E082894DF6FF7331
:101580001A4082817047F0B50346002400260025EA
:101590000020A1F510676A3F00D100BF1846C1F3D3
:1015A000421401F01F06012707FA06F5012C01D1AC
:1015B0000C3004E0022C01D1103000E014301AB1DC
:1015C00007682F43076002E00768AF430760F0BD7C
:1015D0001AB1838A0B43838202E0838A8B4383821E
:1015E0007047028A4FF6F0731A400282028A0A4359
:1015F0000282704782894FF2FF731A40828182898A
:101600000A438281704721B1828942F002028281BD
:1016100004E082894FF6FD731A4082817047028A86
:101620004FF6DF731A400282028A0A430282704731
:1016300021B1028A42F48042028204E0028A4BF61F
:10164000FF731A4002827047C1F30802828070471C
:1016500001468888C0F308007047818941F0010184
:1016600081817047028BD2B20283028B42EA01224F
:1016700002837047028B02F47F420283028B0A438B
:101680000283704721B1828A42F02002828204E004
:10169000828A4FF6DF731A408282704721B1828AB4
:1016A00042F01002828204E0828A4FF6EF731A4001
:1016B0008282704721B1828A42F00802828204E06D
:1016C000828A4FF6F7731A408282704721B182896D
:1016D00042F40042828103E08289C2F30E028281D9
:1016E000704721B1828A42F40062828204E0828AD9
:1016F0004FF2FF731A4082827047828A4FF6FB7363
:101700001A408282828A0A438282704721B1828A89
:1017100042F00202828204E0828A4FF6FD731A4090
:101720008282704702460020B1F5007F00D100BFE1
:1017300013880B4201D0012000E00020704701F423
:101740000072B2F5007F00D100BFCA43028070472B
:1017500070B502460024002300250020A1F5106684
:101760006A3E00D100BFC1F3421501F01F030126FC
:1017700006FA03F3012D02D19689334006E0022DCB
:1017800002D1168A334001E0968A33400C120126BA
:1017900006FA04F41688344013B10CB1012000E0BD
:1017A000002070BD10B500220023A1F510646A3C32
:1017B00000D100BF0A1201249440A3B2DC4304808C
:1017C00010BD0000003801400044004000480040C7
:1017D000004C00400050004010B50446F7488442D9
:1017E00009D101214805FFF706FC00214FF4001044
:1017F000FFF701FC08E001218805FFF7FCFB002151
:101800004FF48000FFF7F7FB10BD2DE9F04385B0E2
:1018100004460D460026B1460427DFF8A483A688B7
:101820004FF6C07006406846FFF751FBDDF80880B0
:10183000E448B8FBF0F01FFA80F946EA0906A680F2
:1018400020884FF6FE71084020800026DE49286877
:1018500088420CD828684000B8FBF0F087B2042F0B
:1018600000DA04273E4309F10100208427E0E888DC
:10187000A0F53F41FF3906D1286800EB4000B8FBD6
:10188000F0F087B209E0286800EBC00101EB00101E
:10189000B8FBF0F087B247F480473805000D01D15E
:1018A00047F0010747F4004006434FF4967009FBE8
:1018B00000F04FF47A7190FBF1F0401C2084A68375
:1018C000208840F00100208026884FF6F530064041
:1018D000A8886989084306432680A889298908437E
:1018E000208105B0BDE8F08341F28831016000211C
:1018F00081804BF6FF71C1800021018141814FF44D
:1019000080418181704721B1028842F0010202804A
:1019100004E002884FF6FE731A400280704721B13E
:10192000828842F40062828004E082884FF2FF7372
:101930001A408280704721B1828842F480528280AE
:1019400004E082884EF6FF731A408280704721B10E
:10195000028842F48072028004E002884FF6FF633E
:101960001A400280704721B1028842F4007202805E
:1019700004E002884FF6FF531A400280704721B1FD
:10198000028842F48062028004E002884FF6FF334E
:101990001A40028070470A46002181894FF6017380
:1019A000194002F0FE0319438181704721B18289F9
:1019B00042F00102828104E082894FF6FE731A40F0
:1019C0008281704721B1028842F04002028004E027
:1019D00002884FF6BF731A40028070471AB183889D
:1019E0000B43838002E083888B43838070470182AE
:1019F00070470146088AC0B2704712B141F0010138
:101A000002E04FF6FE7319400182704708B50246A6
:101A100000200090009200980844009000980088F0
:101A200008BD21B1028842F40042028003E002882E
:101A3000C2F30E0202807047B1F5006F04D1028834
:101A400042F40062028004E002884FF2FF731A4001
:101A500002807047B1F5005F04D1028842F4005261
:101A6000028004E002884DF6FF731A40028070473E
:101A700021B1028842F48052028004E002884EF6CE
:101A8000FF731A4002807047B1F5006F04D10288DD
:101A900042F40062028004E002884FF2FF731A40B1
:101AA0000280704721B1028842F02002028004E0E7
:101AB00002884FF6DF731A40028070470146088B98
:101AC0000012704721B1028842F01002028004E047
:101AD00002884FF6EF731A400280704721B90288DE
:101AE00042F08002028004E002884FF67F731A40C1
:101AF00002807047B1F5804F05D0828B4BF6FF73A3
:101B00001A40828303E0828B42F4804282837047D2
:101B100070B502460024002500230020958A138B0F
:101B20001B0445EA030626F07F4404EA01068E42C0
:101B300001D1012000E0002070BD10B50146002059
:101B4000002300228B8A0A8B120443EA020424F049
:101B50007F4010BD0CB50246002000230193009386
:101B600000920B0F019321F07F41019B1BB1009B61
:101B70001433009303E0090C009B18330093009B7F
:101B80001B680B4201D0012000E000200CBD0022A8
:101B900021F07F42D3438382704730B50246002054
:101BA0000023948801F0E06504EA154321F07F41A9
:101BB000948A0C420AD04BB1012008E00054004046
:101BC00000127A0040420F00A0860100002030BDC4
:101BD000002221F07F42D3438382704710B5044630
:101BE000BE48844208D101218014FFF7F7F9002193
:101BF000A014FFF7F3F916E0B948844208D1012197
:101C00000014FFF7F8F900212014FFF7F4F90AE0B7
:101C1000B448844207D10121C013FFF7ECF9002139
:101C2000E013FFF7E8F910BD10B50022028802F4B6
:101C300041520B884C8823438C882343CC88234310
:101C40000C8923434C8923438C892343CC89234328
:101C50001A430280838B4FF2FF74234083830B8AE5
:101C6000038210BD2DE9F04F85B005460C464FF0BC
:101C7000000902274FF000084FF0010B0026B24682
:101C8000A88B4FF240010840A88302202884B5F8B1
:101C90001C90A068022801D100BF38E0A08810B9CC
:101CA0004FF0010B01E04FF0020B8D48854200D14F
:101CB00000E000BF6846FFF70AF9DDF800A0E08801
:101CC000B0F5007F0AD14FEA1A2000EB80004000F7
:101CD000A168B0FBF1F0401D86B20BE04FEA4B105B
:101CE000BAFBF0F000EB80004000A168B0FBF1F01F
:101CF000401D86B20A20B6FBF0F606F00108A6EBFE
:101D00000800C0F34F074FF6FF7000EA0828022FC3
:101D100001DBFF2F02DD02274FF00008E08840EAD8
:101D2000080038432884A088A189084361880843B3
:101D30002188084340F4006040EA0909A5F81C9096
:101D400005B0BDE8F08F0021018041808180C18015
:101D5000018141818181C181072101827047002178
:101D6000018041808180C1800221816000218181C8
:101D7000704721B1028842F04002028004E00288EC
:101D80004FF6BF731A400280704721B1828B42F434
:101D90008062828304E0828B4FF6FF331A40828395
:101DA000704730B5002400230C110125A540ABB2CB
:101DB0001AB185881D43858002E085889D43858012
:101DC00030BD1AB183880B43838002E083888B4344
:101DD0008380704781817047014688897047A1F5EB
:101DE0007E42FF3A04D0028842F48072028004E00E
:101DF00002884FF6FF631A400280704721B1828843
:101E000042F00402828004E082884FF6FB731A409D
:101E10008280704702884FF2FF731A400280028866
:101E20000A4302807047018841F480510180704765
:101E300021B1028842F40052028004E002884DF68B
:101E4000FF731A400280704702460020012901D02A
:101E5000108B00E0908A70470146088A7047B1F500
:101E6000804F04D1028842F48042028004E002885C
:101E70004BF6FF731A400280704702460020138918
:101E80000B4201D0012000E000207047CA430281CC
:101E90007047F0B50246002000240023002501F021
:101EA0000F070126BE40B4B20B1101269E40B3B20B
:101EB000968806EA03051689264202D00DB1012054
:101EC00000E00020F0BD10B5002201F00F04012356
:101ED000A3409AB2D343038110BD000000300140FB
:101EE00000380040003C00400CB5002001900090FC
:101EF0006B48006840F480306949086000BF68485A
:101F0000006800F4003000900198401C0190009897
:101F100018B90198B0F5A06FF1D16148006810F4CC
:101F2000003F02D00120009001E0002000900098C6
:101F3000012842D15B48006840F010005949086010
:101F40000846006820F0030008600846006840F07A
:101F5000020008605248406851494860084640689D
:101F600048600846406840F4806048600846406821
:101F700020F47C1048600846406840F4E81048604F
:101F80000846006840F08070086000BF4448006860
:101F900010F0007FFAD04248406820F0030040492A
:101FA00048600846406840F00200486000BF3C4876
:101FB000406800F00C000828F9D10CBD10B5FFF7FF
:101FC00093FF10BD10B53648006840F00100344959
:101FD000086008464068344908403149486008466E
:101FE0000068324908402E4908600846006820F41D
:101FF000802008600846406820F4FE0048604FF4E6
:102000001F008860FFF7DAFF4FF000602849086082
:1020100010BD10B5002100200022214B5B6803F0A9
:102020000C0121B1042906D0082928D107E0214B51
:10203000214C236027E01F4B1F4C236023E0184BEB
:102040005B6803F47010164B5B6803F48032022364
:1020500003EB904022B9194B4343174C23600DE02A
:102060000F4B5B6813F4003F04D0144B4343124CF6
:10207000236003E00F4B43430F4C236003E00D4B01
:102080000D4C236000BF00BF054B5B68C3F3031317
:102090000B4CE15C084B1B68CB40074C236010BD28
:1020A00000100240002002400000FFF8FFFFF6FE93
:1020B00008ED00E000127A002400002000093D0035
:1020C00028000020D2B201E000F8012B491EFBD20B
:1020D00070470022F6E710B513460A460446194633
:1020E000FFF7F0FF204610BD30B50B46014600203B
:1020F0002022012409E021FA02F59D4205D303FACA
:1021000002F5491B04FA02F52844151EA2F101024A
:10211000F1DC30BD064C074D06E0E06840F00103FD
:1021200094E8070098471034AC42F6D3FEF704F861
:102130002C2300084C2300080FB4054B10B503A94D
:10214000044A029800F018F810BC5DF814FB000077
:10215000430900083800002002E008C8121F08C127
:10216000002AFAD170477047002001E001C1121F18
:10217000002AFBD1704700002DE9FF4F89B09B4634
:102180000446002597E0252833D10027641C4E49DA
:10219000B84601222378203B02FA03F0084202D01D
:1021A0000743641CF6E720782E2819D114F8010F94
:1021B00047F004072A280ED06FF02F022078A0F1F4
:1021C000300109290CD808EB880102EB410100EB32
:1021D0000108641CF2E70A98641C50F8048B0A900A
:1021E000207800286BD0642808D0692806D075288C
:1021F00020D05A460B9990476D1C5BE00A994FF02E
:102200000A0901C90A91002804DAC0F100004FF060
:102210002D0102E0390504D52B218DF82010012174
:1022200003E0F90704D02021F7E78A4608AE0EE064
:102230000021FAE70A994FF00A0901C90A91F7E764
:102240004946FFF751FF01F1300106F8011D002852
:10225000F6D1ADEB060000F12009780701D44FF06C
:102260000108C84502DDA8EB090000E00020804617
:10227000002706E008A85A46C05D0B9990476D1CE0
:102280007F1C5745F6DB04E030205A460B999047F7
:102290006D1CB8F10001A8F10108F5DC05E016F8A5
:1022A000010B5A460B9990476D1CB9F10001A9F139
:1022B0000109F4DC641C207800287FF464AF0DB0C1
:1022C0002846BDE8F08F000009280100424D50303B
:1022D000383520696E697469616C697A65642C208F
:1022E0006163313D25642C6163323D25642C61635B
:1022F000333D25642C6163343D25642C6163353D99
:1023000025642C6163363D25642C62313D25642CA7
:1023100062323D25642C6D623D25642C6D633D2544
:10232000642C6D643D25640D0A0000004C230008F8
:10233000000000203C00000058210008882300080D
:102340003C0000200C0400006821000834431010F9
:1023500001344310100100000000000000000000E4
:102360000102030401020304060708090204060827
:1023700000A24A0400000000000000000102030463
:08238000060708090000000037
:0400000508000131BD
:00000001FF
