:020000040800F2
:10000000E0050020F50A0008250A0008270A000874
:100010002B0A00082F0A0008330A0008000000001D
:10002000000000000000000000000000370A000887
:10003000390A0008000000003B0A00083D0A0008D9
:100040000F0B00080F0B00080F0B00080F0B000828
:100050000F0B00080F0B00080F0B00080F0B000818
:100060000F0B00080F0B00080F0B00080F0B000808
:100070000F0B00080F0B00080F0B00080F0B0008F8
:100080000F0B00080F0B00080F0B00080F0B0008E8
:100090000F0B00080F0B00080F0B0008E1390008D8
:1000A0000F0B00080F0B00080F0B00080F0B0008C8
:1000B000515400080F0B00080F0B00080F0B00082D
:1000C0000F0B00080F0B00080F0B00080F0B0008A8
:1000D0000F0B0008510A00080F0B00080F0B000857
:1000E0000F0B00080F0B00080F0B00080F0B000888
:1000F0000F0B00080F0B00080F0B00080F0B000878
:100100000F0B0008275400080F0B00080F0B000806
:100110000F0B00080F0B00080F0B00080F0B000857
:100120000F0B00080F0B00080F0B00080F0B000847
:10013000DFF80CD006F0C2FA00480047A901000819
:10014000E005002070B503461A46002008E0145C64
:100150004D1E2D1A555D15544D1E2D1A5455401C1B
:1001600001EBD176B0EB660FF1DB70BD01B502E0BB
:100170000098401E009000980028F9D108BD014663
:10018000002901DD084670474842FCE702468A42E2
:1001900001DD104670470846FCE702468A4201DA54
:1001A000104670470846FCE7B2B00020319000BF0F
:1001B00000BF202129A805F039FE002028904FF427
:1001C000347026902698B0F1807F00D321E02698E5
:1001D000401E4FF0E0214861481724900F202590E1
:1001E0002498002808DA25980001FE49249A02F094
:1001F0000F02121F885404E025980001FA49249A3E
:10020000885400BF00204FF0E0218861072008617A
:1002100000BF03F0BFFD03F0FBF903F0DFFA3190FC
:10022000F2A0319906F08EFA012003F08EFD302005
:1002300003F088F805F01DF93320ADF89C0010207C
:100240008DF89F0003208DF89E0027A9EC4802F04E
:100250003FFE00BF00BF4FF08040818C2698081AF7
:10026000269028211CA805F0E1FD00BF00BF00BFBB
:100270000020269025902490239022902190209079
:100280001F901E901D901C901B901A901990189012
:10029000179029A8169000BF00BF05F013FB05F0CA
:1002A000D7F905F089FB0020319064E01698801D95
:1002B00005F03FFB169805F0ADFA1698B0F90E0060
:1002C000149005F06DFF1590209905F0BAFD20906F
:1002D0001698B0F91000149005F062FF15901F9960
:1002E00005F0AFFD1F901698B0F91200149005F0BC
:1002F00057FF15901E9905F0A4FD1E901698B0F9B1
:10030000060040431699B1F9082002FB0201169835
:10031000B0F90A2002FB0210149005F041FF15907D
:100320001D9905F08EFD1D901698B0F906001490E9
:1003300005F036FF15901C9905F083FD1C9016986A
:10034000B0F90800149005F02BFF15901B9905F0EB
:1003500078FD1B901698B0F90A00149005F020FF64
:1003600015901A9905F06DFD1A90642000F0ACFB11
:100370003198401C31903198B0F57A7F96DBA149D5
:10038000209805F0ECFD20909E491F9805F0E7FDB0
:100390001F909C491E9805F0E2FD1E9000BF00BF13
:1003A00000BF98491D9805F0DAFD1D901D9805F0D5
:1003B0003EFFCDE9120107F081F8CDE9140105F007
:1003C00049FF1D901698B0F90A0040431699B1F9FB
:1003D000082002FB0200039005F0EBFECDE90401CA
:1003E00007F06CF8CDE908011698B0F90600049002
:1003F00005F0D6FE80F00040059005F018FFCDE92D
:100400000601DDE9082305F05CFECDE90A0106F0EE
:1004100083FE81F0004100227B4BCDE90C0105F009
:10042000DEFD7A4A7A4BCDE90E0105F04AFE002244
:10043000784BCDE9100105F0D2FD0022764BCDE9D5
:10044000120105F03EFECDE9140105F003FF2690F0
:100450001698B0F90A00069005F0A2FE08901698CA
:10046000B0F90800069005F09BFE80F00040079070
:10047000089905F074FD099005F0D9FECDE90A014F
:1004800006F04AFE81F0004100225F4BCDE90C01ED
:1004900005F0A5FD5D4A5E4BCDE90E0105F011FEAC
:1004A00000225C4BCDE9100105F099FD00225A4B6A
:1004B000CDE9120105F005FECDE9140105F0CAFEF3
:1004C00024901698B0F90200079005F072FECDE96D
:1004D0000A011698B0F90000079005F06AFECDE910
:1004E0000801DDE90A2306F029FF0022464BCDE989
:1004F0000C0105F074FD454A454BCDE90E0105F0B0
:10050000E0FD0022434BCDE9100105F068FD00221B
:10051000414BCDE9120105F0D4FDCDE9140105F000
:1005200099FE229024981990269818902298179056
:10053000269805F07CFECDE91401249805F077FE9D
:10054000CDE912011D9805F072FECDE910011E984B
:1005500005F06DFECDE90E011F9805F068FECDE9AE
:100560000C01209805F063FECDE90A01DDE91401D4
:10057000CDE90801DDE91201CDE90601DDE910014F
:10058000CDE90401DDE90E01CDE90201DDE90C014F
:10059000CDE900012148DDE90A2306F0D3F8002067
:1005A000319016E205F021F812901021144802F063
:1005B0003CFD1698801D05F0BCF9169805F02AF947
:1005C0001698B0F910000F9005F0EAFD10901F99F1
:1005D00005F089FC1190269905F033FC26901698B9
:1005E0001EE0000018ED00E000E400E04E52465F1F
:1005F000436865636B2829203D20256400000000C6
:100600000008014000007A4400806640F1D4C853DD
:10061000FB2109400017D140000022400C75000862
:10062000B0F910000F9005F0BBFD10901F9905F078
:100630005AFC1190259905F004FC25901698B0F904
:100640000E000F9005F0ACFD1090209905F04BFCCA
:100650001190249905F0F5FB24901698B0F90E003E
:100660000F9005F09DFD1090209905F03CFC119035
:10067000239905F0E6FB23901698B0F90A0000FBD9
:1006800000F11698B0F9082002FB0210039005F063
:1006900090FDCDE9040106F011FFCDE9080116989F
:1006A000B0F90600049005F07BFD80F00040059055
:1006B00005F0BDFDCDE90601DDE9082305F001FDEA
:1006C000CDE90A0106F028FD81F000410022C14B6E
:1006D000CDE90C0105F083FCBF4AC04BCDE90E010A
:1006E00005F0EFFCCDE9100105F0B4FD149016986B
:1006F000B0F90A00069005F053FD08901698B0F97D
:100700000800069005F04CFD80F000400790089925
:1007100005F025FC099005F08AFDCDE90A0106F0F7
:10072000FBFC81F000410022AA4BCDE90C0105F051
:1007300056FCA94AA94BCDE90E0105F0C2FCCDE952
:10074000100105F087FD1590A548149905F0D1FB1F
:10075000A4490E9005F0CDFBA3490F9005F0FFFBD7
:100760001190A248269905F0C4FB1090119905F04C
:1007700068FB26909A48159905F0BBFB99490E90A5
:1007800005F0B7FB98490F9005F0E9FB11909748E9
:10079000249905F0AEFB1090119905F052FB2490BE
:1007A0001698B0F90200079005F003FDCDE90A01A3
:1007B0001698B0F90000079005F0FBFCCDE90801A0
:1007C000DDE90A2306F0BAFD0022824BCDE90C01D7
:1007D00005F005FC804A814BCDE90E0105F071FC66
:1007E000CDE9100105F036FD13901698B0F912000E
:1007F0000F9005F0D5FC10901E9905F074FB119038
:10080000229905F01EFB22901698B0F912000F9065
:1008100005F0C6FC10901E9905F065FB119021991A
:1008200005F00FFB21906E48139905F062FB6D49AE
:100830000E9005F05EFB6C490F9005F090FB6B4944
:100840001190229805F055FB1090119905F0F9FAD6
:1008500022901021664802F0E6FB3198401C31904E
:100860001999249805F03FFB5F490D9005F041FB75
:100870005C490E9005F073FB5E490F9005F039FB63
:100880005D49109005F032FB119005F0BCFC81B27F
:100890005A4801801899269805F025FB52490D9079
:1008A00005F027FB4F490E9005F059FB54490F9076
:1008B00005F01FFB5049109005F0C3FA119005F0A8
:1008C000A2FC4E4948801799229805F00CFB464936
:1008D0000D9005F00EFB43490E9005F040FB484992
:1008E0000F9005F006FB4449109005F0AAFA11900C
:1008F00005F089FC414988800020319020E03F4983
:10090000319831F81000014611904FF47A70FFF7DA
:100910003DFC81B2394A319822F8101011463198C5
:1009200031F81000014611904FF4FA60FFF735FCE2
:1009300081B2324A319822F810103198401C31901F
:1009400031980328DBDB072003F0B9F92649229808
:1009500005F0CFFA23490A9005F001FB0B9005F052
:1009600066FCCDE910012049269805F0C2FA1D4920
:100970000A9005F0F4FA0B9005F059FCCDE90E0150
:100980001949249805F0B5FA16490A9005F0E7FAD6
:100990000B9005F04CFCCDE90C01DDE91001CDE92F
:1009A0000201DDE90E01CDE9000116A0DDE90C230D
:1009B00005F0C8FE00BF04F018FE129AD317821A81
:1009C00061EB03004FF4FA53D21A70F10000F2DB2E
:1009D00000BFE7E500806640F1D4C853FB21094021
:1009E00000D7A33B00B888460000104152B87E3FB4
:1009F000000801400000C8410080BB4438000020CE
:100A0000000040410D20726F6C6C2C207069746383
:100A1000682C20796177203D2025662C2025662CC6
:100A200020256600704700BFFEE700BFFEE700BF5D
:100A3000FEE700BFFEE77047704770472B4800682D
:100A4000401C2A4908607047284800687047704772
:100A500070B5002540F22551254801F085FE01289A
:100A60000BD1234801F016FE0446012500BF4021AA
:100A70001F4801F079FE0028F9D040F225511C48AA
:100A800001F088FE20B140F22551194801F0ACFE7A
:100A90001DB1A1B2164801F0F9FD70BD00B50246C6
:100AA0000B46D1188A4205D800BFFFF7CDFF884218
:100AB000FBD308E000BFFFF7C7FF9042FBD8FFF76A
:100AC000C3FF8842F7D300BD30B50446FFF7BCFF33
:100AD00005462146FFF7E2FF30BD0246914201D9AB
:100AE000881A7047C2F1FF300844FAE7000000207E
:100AF000003801400648804706480047FEE7FEE709
:100B0000FEE7FEE7FEE7FEE7FEE7FEE7FEE7FEE7BD
:100B1000453200083101000800206C490860486037
:100B20008860C86048628862C8626948886300203B
:100B3000C86370470021654A516847F6FF629143D8
:100B4000027D83681A4343681A43C3681A430368E3
:100B50001A4303691A4311435C4A516070470021EC
:100B60000175016041608160C16001617047594950
:100B7000086070475549096821F00301534A116024
:100B8000114609680143116070475048006800F041
:100B90000300704729B14D4AD26B02434B4BDA63D5
:100BA00004E04A4AD26B8243484BDA6370474A49B1
:100BB000086070470021454B02689A601A46D16868
:100BC0006FF30A01D0E901231A43C3681A4303698A
:100BD0001A4311433D4AD1607047002101604160D2
:100BE0008160C1600161704738480069C0B27047D8
:100BF00008B50146002000903448143008440090A5
:100C00000098006808BD0021304B02685A624268B3
:100C10009A621A46D16A21F0F701D0E902231A43F9
:100C200003691A4343691A431143284AD162704742
:100C30004FF0FF310160002141608160C1600161BE
:100C4000416170472148006B704724480068704735
:100C50002249086070471D48806C70471E49143156
:100C6000086070471C491831086070471A491C31E8
:100C700008607047184920310860704718490860BB
:100C8000704718490860704701218143164A116076
:100C90007047164908607047014600200B4A526BA6
:100CA0000A4201D0012000E0002070470749886314
:100CB000704701460020054A526B0A4201D00120CC
:100CC00000E00020704701498863704700800140C0
:100CD000FF07C000A00030428C05304280800140F8
:100CE000AC013042B0013042B4013042B801304270
:100CF000002044490860091D0860091D0860091D9D
:100D0000086041483F4914310860704700213D495F
:100D10008279002A3AD00A46126803689A430B4641
:100D20001A600A1D126803689A430B1D1A60027943
:100D300011440A6803681A430A60324A083212688A
:100D400003689A432F4B08331A601A1D1268036810
:100D50009A432C4B0C331A604279102A0ED11A1F79
:100D6000126803681A43274B08331A601A1D126869
:100D700003681A43234B0C331A600DE02149427972
:100D800011440A6803681A430A6005E002791144B5
:100D90000A6803689A430A60704700210160017184
:100DA0000C21417100218171704716491031096889
:100DB0000143144A10321160704701460020114A65
:100DC000143212680A4201D0012000E0002070476E
:100DD0000C49143108607047014600200022094B7D
:100DE0001B6803EA0102074B14331B680B4202D055
:100DF0000AB1012000E00020704702491431086068
:100E00007047000000040140FFFF0F0010B50446CA
:100E1000FE48844208D10121C01401F0ABFF00213B
:100E2000E01401F0A7FFC4E0B4F1804F08D1012124
:100E3000084601F0ACFF0021012001F0A8FFB8E056
:100E4000F348844208D10121022001F0A0FF0021D3
:100E5000022001F09CFFACE0EE48844208D1012161
:100E6000042001F094FF0021042001F090FFA0E095
:100E7000E948844208D10121082001F088FF0021BF
:100E8000082001F084FF94E0E448844208D1012165
:100E9000102001F07CFF0021102001F078FF88E095
:100EA000DF48844208D10121202001F070FF002199
:100EB000202001F06CFF7CE0DA48844208D1012157
:100EC000401401F057FF0021601401F053FF70E05F
:100ED000D548844209D10121C80401F04BFF00210B
:100EE0004FF4002001F046FF63E0D048844209D16E
:100EF0000121080501F03EFF00214FF4801001F0B0
:100F000039FF56E0CA48844209D10121480501F061
:100F100031FF00214FF4001001F02CFF49E0C548DB
:100F2000844208D10121402001F031FF00214020FE
:100F300001F02DFF3DE0C048844208D1012180200E
:100F400001F025FF0021802001F021FF31E0BB48A6
:100F5000844208D10121801501F019FF0021A0155C
:100F600001F015FF25E0B648844209D101210804AB
:100F700001F000FF00214FF4803001F0FBFE18E08B
:100F8000B048844209D10121480401F0F3FE002158
:100F90004FF4003001F0EEFE0BE0AB48844208D184
:100FA0000121880401F0E6FE00214FF4802001F0C9
:100FB000E1FE10BD00220288944B98420ED0994B5E
:100FC00098420BD0B0F1804F08D0914B984205D099
:100FD000904B984202D0904B984204D14FF68F73B9
:100FE0001A404B881A438D4B984207D08C4B98423D
:100FF00004D04FF6FF431A40CB881A4302808B88F7
:1010000083850B880385814B98420BD0854B984292
:1010100008D08B4B984205D08A4B984202D08A4B1D
:10102000984201D10B7A038601238382704770B501
:10103000002400220023058C4FF6FE7635400584FF
:10104000028C8388048B4FF68F752C40B51E2C4084
:101050000D882C43751E2A400D892A434D882A434A
:101060006A4DA8420BD06F4DA84208D0744DA842DB
:1010700005D0744DA84202D0734DA84213D14FF64B
:10108000F7752A404D892A434FF6FB752A408D8813
:101090002A434FF6FF652B404FF6FF552B408D89B5
:1010A0002B43CD892B4383800483CD88858602849E
:1010B00070BD70B5002400220023058C4FF6EF763A
:1010C00035400584028C8388048B48F6FF752C40DC
:1010D0004FF6FF452C400D884FF6FF7606EA0525B2
:1010E0002C434FF6DF752A400D8906EA05152A4381
:1010F0004D8806EA05152A43444DA84202D0494DC1
:10110000A8421DD14FF67F752A404D894FF6FF76D4
:1011100006EA05152A434FF6BF752A408D8806EA70
:1011200005152A434FF6FF352B404FF2FF752B4034
:101130008D8906EA85052B43CD8906EA85052B4373
:1011400083800483CD880587028470BD70B5002438
:1011500000220023058C4FF6FF6635400584028C83
:101160008388848B4FF68F752C404FF6FC752C408E
:101170000D882C434FF6FF552A400D894FF6FF7618
:1011800006EA05252A434D8806EA05252A431F4D10
:10119000A84202D0234DA8421DD14FF2FF752A402C
:1011A0004D894FF6FF7606EA05252A434FF6FF35AF
:1011B0002A408D8806EA05252A434EF6FF752B4006
:1011C0004DF6FF752B408D8906EA05152B43CD8919
:1011D00006EA05152B4383808483CD8885870284A6
:1011E00070BD70B5002200230024058C4EF6FF76FA
:1011F00035400584038C8488828B48F6FF752A402D
:101200004FF6FF452A400D8820E00000002C0140E9
:101210000004004000080040000C004000100040A6
:101220000014004000340140004C014000500140D7
:101230000054014000180040001C00400020004005
:101240000040014000440140004801404FF6FF7655
:1012500006EA05252A434DF6FF752B400D8906EA5F
:1012600005352B434D8806EA05352B43FA4DA84238
:1012700002D0FA4DA84208D14BF6FF752C408D895B
:101280004FF6FF7606EA85152C4384808283CD884D
:10129000A0F84050038470BD828B4FF2FF331A4098
:1012A0008283828B4FF6FF7303EA01231A43828302
:1012B0007047F0B50C461546002200210026078C29
:1012C0004EF6FF7C07EA0C070784828B018C4FF6F1
:1012D000FF7707EA043640F6FF473A404FF6FF77BC
:1012E00007EA05273A434FF6FF7707EA03373A4301
:1012F000D94FB8420ED0D94FB8420BD0B0F1804F81
:1013000008D0D74FB84205D0D64FB84202D0D64FFA
:10131000B84206D14DF6FF77394046F4805739433D
:1013200005E047F6FF57394044F48057394382833C
:101330000184F0BD828B4FF6F3731A408283828B57
:101340000A4382837047F0B50C46154600220021FF
:101350000026078C4FF6FF6C07EA0C070784828B88
:10136000018C4FF6FF7707EA04264FF60C773A40D8
:101370004FF6FF7707EA03172F433A43B64FB842B9
:101380000ED0B64FB8420BD0B0F1804F08D0B44F5A
:10139000B84205D0B34FB84202D0B34FB84206D1DD
:1013A0004FF6FF57394046F48077394305E04FF256
:1013B000FF57394044F48077394382830184F0BD7C
:1013C000028B4FF2FF331A400283028B4FF6FF73FA
:1013D00003EA01231A4302837047F0B50C46154611
:1013E000002200210026078C4FF6EF7C07EA0C074D
:1013F0000784028B018C4FF6FF7707EA041640F64C
:10140000FF473A404FF6FF7707EA03373A434FF674
:10141000FF7707EA05273A438F4FB8420ED08F4F28
:10142000B8420BD0B0F1804F08D08D4FB84205D0F4
:101430008C4FB84202D08C4FB84206D14FF6DF77BE
:10144000394046F01007394305E04FF65F773940E1
:1014500044F01007394302830184F0BD028B4FF63C
:10146000F3731A400283028B0A4302837047F0B57C
:101470000C46154600220021068C4FF6FE773E40B2
:101480000684028B018C4FF60C7632407E1C06EAF5
:1014900003162E433243704EB0420ED06F4EB04210
:1014A0000BD0B0F1804F08D06D4EB04205D06D4EDC
:1014B000B04202D06C4EB04206D14FF6FD763140BC
:1014C00044F00106314305E04FF6F576314044F033
:1014D0000106314302830184F0BD70B505460C4618
:1014E0005D4885420ED05D4885420BD0B5F1804FF6
:1014F00008D05B48854205D05A48854202D05A48F8
:10150000854200D100E000BF208850B92389A2881D
:1015100061882846FFF7ABFFE1882846FFF79EFF6A
:1015200025E0208804280AD12389A28861882846DA
:10153000FFF753FFE1882846FFF742FF17E02088B6
:1015400008280AD12389A28861882846FFF7FBFE74
:10155000E1882846FFF7EEFE09E02389A28861882A
:101560002846FFF7A6FEE1882846FFF795FE70BDE6
:101570002DE9F04105460C4600260127608808B990
:10158000022600E00026A088012801D1022700E001
:1015900001272088A0B92389A28861882846FFF7FF
:1015A00066FFE1882846FFF759FF23893A4631460E
:1015B0002846FFF712FFE1882846FFF701FF13E0F6
:1015C0002389A28861882846FFF707FFE18828461B
:1015D000FFF7F6FE23893A4631462846FFF747FFD4
:1015E000E1882846FFF73AFFBDE8F0810A884B887A
:1015F0001A438B881A43CB881A430B891A434B89A9
:101600001A438B891A43A0F8442070474FF6FF71A4
:10161000818000210180C1804180017270470021DA
:10162000018041808180C180018141818181C181AE
:101630007047002101804180012181800021C1800B
:10164000018170470021018041808180C18001813A
:101650004181818170470000002C0140003401402D
:101660000004004000080040000C004021B1028846
:1016700042F00102028004E002884FF6FE731A4035
:101680000280704731B1B0F8442042F40042A0F823
:10169000442005E0B0F84420C2F30E02A0F8442034
:1016A00070471AB183890B43838102E083898B439E
:1016B000838170478182704741EA0203A0F8483075
:1016C00070471AB183890B43838102E083898B437E
:1016D0008381704701894FF6F8721140018170478C
:1016E0000A46002101894FF68F7319401143018189
:1016F000704730B504460D4629462046FFF7F0FFF7
:10170000208940F00700208130BD2DE9F0410446DA
:101710000D4616461F46602D06D13B460122314636
:101720002046FFF75AFE05E03B460122314620469F
:10173000FFF79DFE29462046FFF7D2FF208940F0A3
:1017400007002081BDE8F08130B50C4600210189F9
:10175000C9B24FF6FF7505EA032515432543294312
:10176000018130BD2DE9F04105460E4617469846E9
:10177000002443463A4631462846FFF7E5FF2C89C8
:101780004FF6F870044044F007044FF68F700440A1
:1017900044F070042C81BDE8F081F0B504460D469C
:1017A00016461F463B46324629462046FFF7CCFFE9
:1017B000208940F480402081F0BD018582827047FD
:1017C0000A46002101884FF68F73194011430180AA
:1017D0007047F0B50C4615461E4600210022002336
:1017E0000189028B038C4FF6F877394021434FF67D
:1017F000FC473A4040F201173A434FF6DD773B4051
:101800004FF6FF7707EA06172F433B430181028318
:101810000384F0BD0A460021018B4FF68F731940F7
:101820001143018370470A460021018B48F6FF737C
:1018300019404FF6FF7303EA0223194301837047EF
:101840000A460021818B4FF68F7319401143818323
:1018500070470A460021818B48F6FF7319404FF606
:10186000FF7303EA022319438183704721B1028881
:1018700042F08002028004E002884FF67F731A4033
:101880000280704721B1828842F00402828004E025
:1018900082884FF6FB731A408280704721B182889C
:1018A00042F00802828004E082884FF6F7731A4003
:1018B0008280704721B1828842F00102828004E078
:1018C00082884FF6FE731A40828070470A460021D4
:1018D000018B4FF6F77319401143018370470A4695
:1018E0000021018B4FF2FF7319404FF6FF7303EA9B
:1018F00002231943018370470A460021818B4FF66A
:10190000F77319401143818370470A460021818B88
:101910004FF2FF7319404FF6FF7303EA0223194396
:10192000818370470A460021018B4FF6FB731940F3
:101930001143018370470A460021018B4FF6FF33A4
:1019400019404FF6FF7303EA0223194301837047DE
:101950000A460021818B4FF6FB73194011438183A6
:1019600070470A460021818B4FF6FF3319404FF62E
:10197000FF7303EA02231943818370470A4600215B
:10198000018B4FF67F7319401143018370470A465C
:101990000021018BC1F30E014FF6FF7303EA02230E
:1019A0001943018370470A460021818B4FF67F73EC
:1019B00019401143818370470A460021818BC1F38E
:1019C0000E014FF6FF7303EA022319438183704728
:1019D0000A460021018C4FF6FD7319401143018422
:1019E00070470A460021018C4FF6F77319401143E6
:1019F000018470470A460021018C4FF6DF731940BD
:101A00004FF6FF7303EA02131943018470470A4635
:101A10000021018C4FF67F7319404FF6FF7303EAE4
:101A200002131943018470470A460021018C4FF6C6
:101A3000FF5319404FF6FF7303EA02231943018451
:101A400070470A460021018C4FF2FF7319404FF690
:101A5000FF7303EA02231943018470470A460021F9
:101A6000018C4DF6FF7319404FF6FF7303EA023302
:101A700019430184704730B5002301248C40A3B280
:101A8000048C9C430484048C02FA01F5ADB22C430F
:101A9000048430BD30B5002304248C40A3B2048CF0
:101AA0009C430484048C02FA01F5ADB22C430484F7
:101AB00030BD70B5034600200024184618300125BB
:101AC0008D40ACB21D8CA5431D8409B1082909D1F4
:101AD00000EB6100056825F0700505600568154399
:101AE00005600EE00D1FC5F34E052844056825F47A
:101AF000E045056005684FF6FF7606EA02263543A5
:101B0000056070BD21B1028842F00202028004E04B
:101B100002884FF6FD731A400280704721B1028897
:101B200042F00402028004E002884FF6FB731A4080
:101B30000280704721B1828842F08002828004E0F6
:101B400082884FF67F731A408280704702884FF672
:101B5000F7731A40028002880A4302807047828825
:101B60004FF68F731A40828082880A4382807047C2
:101B700002894FF6F8731A40028102890A430281F2
:101B8000704702894FF67F731A40028102890A4327
:101B900002817047818470478185704781867047D4
:101BA0000187704781877047A0F84010704702880E
:101BB0004FF6FF431A40028002880A4302807047B2
:101BC0000146888E70470146088F70470146888F0E
:101BD00070470146B1F8400070470146888C704755
:101BE0000146088D704702460020138A0B4201D03F
:101BF000012000E000207047CA430282704730B5E0
:101C00000246002000230024158A05EA0103958975
:101C100005EA010413B10CB1012000E0002030BD41
:101C2000CA4302827047000031490143314A1160C2
:101C3000704770B5002100230F22C4780CB32D4CDF
:101C4000246804F4E064C4F5E064210AC1F10403EB
:101C5000CA40447804FA03F184781440214309010E
:101C6000254C0678A155047804F01F050124AC40EA
:101C700005786D114FF0E02606EB8505C5F80041AB
:101C800009E0047804F01F050124AC401B4D0678E0
:101C9000761145F8264070BD194A0A400243154B9B
:101CA0001B1F1A60704739B1124A121D1268024395
:101CB000104B1B1D1A6006E00E4A121D126882436B
:101CC0000C4B1B1D1A607047042808D14FF0E0210F
:101CD000096941F004014FF0E022116107E04FF083
:101CE000E021096921F004014FF0E0221161704701
:101CF0000000FA050CED00E000E400E080E100E007
:101D000080FFFF1F10B50446BE48844208D1012160
:101D1000801401F02FF80021A01401F02BF816E038
:101D2000B948844208D10121001401F030F80021A3
:101D3000201401F02CF80AE0B448844207D10121B4
:101D4000C01301F024F80021E01301F020F810BDC9
:101D500010B50022028802F441520B884C882343BC
:101D60008C882343CC8823430C8923434C89234309
:101D70008C892343CC8923431A430280838B4FF2FF
:101D8000FF74234083830B8A038210BD2DE9F04F3B
:101D900085B005460C464FF0000902274FF00008B9
:101DA0004FF0010B0026B246A88B4FF240010840CD
:101DB000A88302202884B5F81C90A068022801D1CD
:101DC00000BF38E0A08810B94FF0010B01E04FF0E0
:101DD000020B8D48854200D100E000BF684600F04C
:101DE00042FFDDF800A0E088B0F5007F0AD14FEA9D
:101DF0001A2000EB80004000A168B0FBF1F0401D0C
:101E000086B20BE04FEA4B10BAFBF0F000EB80001B
:101E10004000A168B0FBF1F0401D86B20A20B6FB7D
:101E2000F0F606F00108A6EB0800C0F34F074FF6E6
:101E3000FF7000EA0828022F01DBFF2F02DD0227D6
:101E40004FF00008E08840EA080038432884A08862
:101E5000A1890843618808432188084340F4006051
:101E600040EA0909A5F81C9005B0BDE8F08F0021F3
:101E7000018041808180C180018141818181C18156
:101E80000721018270470021018041808180C1804B
:101E90000221816000218181704721B1028842F0D6
:101EA0004002028004E002884FF6BF731A400280AD
:101EB000704721B1828B42F48062828304E0828B7E
:101EC0004FF6FF331A408283704730B50024002359
:101ED0000C110125A540ABB21AB185881D43858040
:101EE00002E085889D43858030BD1AB183880B430D
:101EF000838002E083888B438380704781817047B1
:101F0000014688897047A1F57E42FF3A04D00288D5
:101F100042F48072028004E002884FF6FF631A40A8
:101F20000280704721B1828842F00402828004E07E
:101F300082884FF6FB731A408280704702884FF206
:101F4000FF731A40028002880A43028070470188AA
:101F500041F480510180704721B1028842F400525F
:101F6000028004E002884DF6FF731A400280704739
:101F700002460020012901D0108B00E0908A7047B2
:101F80000146088A7047B1F5804F04D1028842F4B7
:101F90008042028004E002884BF6FF731A40028000
:101FA00070470246002013890B4201D0012000E057
:101FB00000207047CA4302817047F0B502460020F6
:101FC00000240023002501F00F070126BE40B4B213
:101FD0000B1101269E40B3B2968806EA03051689C6
:101FE000264202D00DB1012000E00020F0BD10B566
:101FF000002201F00F040123A3409AB2D3430381CE
:1020000010BD00000030014000380040003C00409E
:1020100010B50446F748844209D10121480500F073
:10202000B6FE00214FF4001000F0B1FE08E00121DF
:10203000880500F0ACFE00214FF4800000F0A7FE00
:1020400010BD2DE9F04385B004460D460026B1468B
:102050000427DFF8A483A6884FF6C07006406846C0
:1020600000F001FEDDF80880E448B8FBF0F01FFA4C
:1020700080F946EA0906A68020884FF6FE710840DE
:1020800020800026DE49286888420CD82868400055
:10209000B8FBF0F087B2042F00DA04273E4309F1C1
:1020A0000100208427E0E888A0F53F41FF3906D1F0
:1020B000286800EB4000B8FBF0F087B209E0286820
:1020C00000EBC00101EB0010B8FBF0F087B247F461
:1020D00080473805000D01D147F0010747F4004063
:1020E00006434FF4967009FB00F04FF47A7190FBB1
:1020F000F1F0401C2084A683208840F0010020805D
:1021000026884FF6F5300640A888698908430643BB
:102110002680A88929890843208105B0BDE8F0837D
:1021200041F288310160002181804BF6FF71C1804E
:102130000021018141814FF480418181704721B1AB
:10214000028842F00102028004E002884FF6FE732A
:102150001A400280704721B1828842F40062828076
:1021600004E082884FF2FF731A408280704721B1E9
:10217000828842F48052828004E082884EF6FF73A7
:102180001A408280704721B1028842F48072028036
:1021900004E002884FF6FF631A400280704721B1C5
:1021A000028842F40072028004E002884FF6FF5376
:1021B0001A400280704721B1028842F48062028096
:1021C00004E002884FF6FF331A40028070470A4647
:1021D000002181894FF60173194002F0FE03194373
:1021E0008181704721B1828942F00102828104E03D
:1021F00082894FF6FE731A408281704721B10288AE
:1022000042F04002028004E002884FF6BF731A4099
:10221000028070471AB183880B43838002E0838871
:102220008B4383807047018270470146088AC0B2A1
:10223000704712B141F0010102E04FF6FE73194000
:102240000182704708B50246002000900092009875
:10225000084400900098008808BD21B1028842F42B
:102260000042028003E00288C2F30E02028070473F
:10227000B1F5006F04D1028842F40062028004E0EC
:1022800002884FF2FF731A4002807047B1F5005F79
:1022900004D1028842F40052028004E002884DF624
:1022A000FF731A400280704721B1028842F48052C5
:1022B000028004E002884EF6FF731A4002807047E5
:1022C000B1F5006F04D1028842F40062028004E09C
:1022D00002884FF2FF731A400280704721B10288D2
:1022E00042F02002028004E002884FF6DF731A40B9
:1022F000028070470146088B0012704721B10288A6
:1023000042F01002028004E002884FF6EF731A4098
:102310000280704721B9028842F08002028004E006
:1023200002884FF67F731A4002807047B1F5804FE4
:1023300005D0828B4BF6FF731A40828303E0828BB9
:1023400042F480428283704770B502460024002523
:1023500000230020958A138B1B0445EA030626F010
:102360007F4404EA01068E4201D1012000E00020F2
:1023700070BD10B501460020002300228B8A0A8B15
:10238000120443EA020424F07F4010BD0CB502465B
:10239000002000230193009300920B0F019321F082
:1023A0007F41019B1BB1009B1433009303E0090C98
:1023B000009B18330093009B1B680B4201D0012047
:1023C00000E000200CBD002221F07F42D343838235
:1023D000704730B5024600200023948801F0E06584
:1023E00004EA154321F07F41948A0C420AD04BB194
:1023F000012008E00054004000127A0040420F0023
:10240000A0860100002030BD002221F07F42D3438E
:102410008382704710B50446FB48844209D10121EC
:10242000880300F0A7FC00214FF4804000F0A2FCDC
:1024300032E0F648844209D10121480400F0A7FCAB
:1024400000214FF4003000F0A2FC25E0F048844267
:1024500009D10121880400F09AFC00214FF480206A
:1024600000F095FC18E0EB48844209D10121C80432
:1024700000F08DFC00214FF4002000F088FC0BE000
:10248000E548844208D10121080500F080FC0021C4
:102490004FF4801000F07BFC10BD2DE9F04786B0B2
:1024A00005460E460024A24600BFA1460027B0897B
:1024B00000B100BF2F462C8A4CF6FF700440F08814
:1024C00004432C82AC894EF6F3100440B088318965
:1024D0000843718908430443AC81AC8A4FF6FF403E
:1024E0000440B0890443AC8201A800F0BCFBC6489C
:1024F000874202D1DDF810A001E0DDF80CA0A88928
:1025000010F4004F08D00AEBCA0000EB0A10316843
:102510004900B0FBF1F807E00AEBCA0000EB0A1033
:1025200031688900B0FBF1F86420B8FBF0F00401D9
:102530002009642101FB1089A88910F4004F08D0FC
:10254000322000EBC900B0FBF1F000F007000443BB
:1025500008E0322000EB09106421B0FBF1F000F03C
:102560000F0004432C8106B0BDE8F0874FF41651EC
:10257000016000218180C18001810C214181002105
:102580008181704710B502460020108A4FF2FF0388
:1025900018400B884C8823438C882343CC882343E2
:1025A0001843108210BD0021018041808180C180CC
:1025B000704721B1828942F40052828104E082890D
:1025C0004DF6FF731A4082817047F0B50346002430
:1025D000002600250020A1F510676A3F00D100BF4A
:1025E0001846C1F3421401F01F06012707FA06F549
:1025F000012C01D10C3004E0022C01D1103000E09C
:1026000014301AB107682F43076002E00768AF4330
:102610000760F0BD1AB1838A0B43838202E0838A8C
:102620008B4383827047028A4FF6F0731A4002820E
:10263000028A0A430282704782894FF2FF731A406E
:10264000828182890A438281704721B1828942F066
:102650000202828104E082894FF6FD731A40828172
:102660007047028A4FF6DF731A400282028A0A43D9
:102670000282704721B1028A42F48042028204E061
:10268000028A4BF6FF731A4002827047C1F30802B8
:102690008280704701468888C0F3080070478189AE
:1026A00041F0010181817047028BD2B20283028B1B
:1026B00042EA012202837047028B02F47F420283C6
:1026C000028B0A430283704721B1828A42F02002C2
:1026D000828204E0828A4FF6DF731A40828270475A
:1026E00021B1828A42F01002828204E0828A4FF68F
:1026F000EF731A408282704721B1828A42F0080249
:10270000828204E0828A4FF6F7731A408282704711
:1027100021B1828942F40042828103E08289C2F3BE
:102720000E028281704721B1828A42F40062828265
:1027300004E0828A4FF2FF731A4082827047828AD5
:102740004FF6FB731A408282828A0A438282704764
:1027500021B1828A42F00202828204E0828A4FF62C
:10276000FD731A408282704702460020B1F5007F57
:1027700000D100BF13880B4201D0012000E00020EF
:10278000704701F40072B2F5007F00D100BFCA4368
:102790000280704770B50246002400230025002007
:1027A000A1F510666A3E00D100BFC1F3421501F0E9
:1027B0001F03012606FA03F3012D02D19689334047
:1027C00006E0022D02D1168A334001E0968A33409A
:1027D0000C12012606FA04F41688344013B10CB129
:1027E000012000E0002070BD10B500220023A1F5FB
:1027F00010646A3C00D100BF0A1201249440A3B2C5
:10280000DC43048010BD000000380140004400405B
:1028100000480040004C00400050004001684FF666
:10282000FE72114001600021016041608160C16061
:102830008C49884208D18B490839496841F00F0119
:10284000884A083A51608AE086491431884208D1A2
:1028500084490839496841F0F001824A083A5160D8
:102860007DE080492831884208D17E49083949688D
:1028700041F470617B4A083A516070E079493C311B
:10288000884208D177490839496841F47041754A4E
:10289000083A516063E073495031884208D1714968
:1028A0000839496841F470216E4A083A516056E08F
:1028B0006C496431884208D16A490839496841F451
:1028C0007001684A083A516049E0664978318842A7
:1028D00008D164490839496841F07061614A083A91
:1028E00051603CE06049884206D1011F096841F00F
:1028F0000F01021F116032E05B491431884208D198
:102900005949091F096841F0F001574A121F116027
:1029100025E055492831884208D15349091F0968E3
:1029200041F47061504A121F116018E04E493C3169
:10293000884208D14C49091F096841F470414A4A4C
:10294000121F11600BE048495031884207D14649B7
:10295000091F096841F47021434A121F1160704732
:1029600010B50022026847F6F0739A430C6A8B6830
:1029700023430C6923434C6923438C692343CC696B
:1029800023434C6A23438C6A23431A430260CB6877
:1029900043600B6883604B68C36010BD0021016019
:1029A00041608160C160016141618161C161016219
:1029B00041628162704721B1026842F00102026007
:1029C00004E002684FF6FE731A40026070471AB1C5
:1029D00003680B43036002E003688B4303607047A6
:1029E000416070470146486880B270470146002048
:1029F000002211F0805F03D01B4B083B1A6802E0F5
:102A0000184B083B1A680A4201D0012000E0002060
:102A1000704710F0805F03D01349091F086002E07F
:102A2000104908394860704701460020002211F023
:102A3000805F03D00C4B083B1A6802E0094B083B4F
:102A40001A680A4201D0012000E00020704710F00F
:102A5000805F03D00449091F086002E0014908397A
:102A6000486070470800024008040240DD480068E2
:102A700040F00100DB49086008464068DA49084038
:102A8000D849486008460068D8490840D5490860D8
:102A90000846006820F4802008600846406820F45A
:102AA000FE0048604FF41F0088607047CD490968F8
:102AB00021F48031CB4A11601146096821F480214C
:102AC0001160B0F5803F03D0B0F5802F0ED106E045
:102AD000C449096841F48031C24A116007E0C14924
:102AE000096841F4A021BF4A116000E000BF00BFA7
:102AF000704710B501460022002300204A11012A28
:102B000002D1B84C236806E0022A02D1B54C236AF0
:102B100001E0B44C636A01F01F02012494401C429E
:102B200001D0012000E0002010BD38B50020009049
:102B30000024002500BF3120FFF7DBFF0546009889
:102B4000401C00900098B0F5A06F01D0002DF2D08D
:102B50003120FFF7CEFF08B1012400E00024204619
:102B600038BD014600209F4A106820F0F80040EA76
:102B7000C100106070479E490860704702460020FF
:102B8000984B586820F47C1042EA01031843954B97
:102B90005860704796490866704701460020914A80
:102BA000506820F003000843506070478D4840682B
:102BB00000F00C007047014600208A4A506820F05F
:102BC000F00008435060704701460020854A506875
:102BD00020F4E06008435060704701460020814ABD
:102BE000506820F4605040EAC1005060704729B13D
:102BF0007C4A527A02437B4B5A7204E0794A527AF9
:102C00008243784B5A7270477A4908607047014690
:102C10000020744A506820F44040084350607047D8
:102C20000021754A11706F4A82F82010012802D0E5
:102C3000042808D103E001216F4A117004E0052146
:102C40006D4A117000E000BF00BF70476B4908601B
:102C500070476449096A0143624A116270476749D3
:102C600044390860704730B5002100220024002359
:102C70005C4D6D6805F00C0121B1042905D00829CF
:102C800023D105E05E4D056022E05D4D05601FE04B
:102C9000544D6D6805F47012524D6D6805F4803422
:102CA000022505EB92421CB9564D554305600BE0D9
:102CB0004C4D6D6815F4003F03D0524D55430560EF
:102CC00002E04F4D5543056002E04D4D056000BFE9
:102CD00000BF444D6D6805F0F00109094A4D6B5C79
:102CE0000568DD4045603F4D6D6805F4E061090A07
:102CF000454D6B5C4568DD4085603A4D6D6805F477
:102D00006051C90A404D6B5C4568DD40C560354D7A
:102D10006D6805F44041890B3C4D6B5CC568B5FBA3
:102D2000F3F5056130BD29B12E4A526902432D4B9E
:102D30005A6104E02B4A526982432A4B5A61704718
:102D400029B1284A92690243264B9A6104E0254A38
:102D500092698243234B9A61704729B1214AD26913
:102D60000243204BDA6104E01E4AD26982431D4BC4
:102D7000DA61704729B11B4AD2680243194BDA6005
:102D800004E0184AD2688243164BDA60704729B1D2
:102D9000144A12690243134B1A6104E0114A126982
:102DA0008243104B1A6170471449403908607047DC
:102DB0000F49C86470470B49C87170470948406A99
:102DC00040F0807007494862704701460020054A7C
:102DD00092680A4201D0012000E0002070470149BA
:102DE00088727047001002400000FFF8FFFFF6FEF7
:102DF00000004242D8004242201002408004424279
:102E000000127A0000093D00040000201400002098
:102E100010B50446CA48844208D101210420FFF7B6
:102E2000A9FF00210420FFF7A5FF46E0C548844222
:102E300008D101210820FFF79DFF00210820FFF79E
:102E400099FF3AE0C048844208D101211020FFF7E1
:102E500091FF00211020FFF78DFF2EE0BB48844238
:102E600008D101212020FFF785FF00212020FFF756
:102E700081FF22E0B648844208D101214020FFF7BB
:102E800079FF00214020FFF775FF16E0B14884422A
:102E900008D101218020FFF76DFF00218020FFF77E
:102EA00069FF0AE0AC48844207D101218015FFF791
:102EB00061FF0021A015FFF75DFF10BD10B50121D6
:102EC0000846FFF757FF00210120FFF753FF10BD11
:102ED0002DE9F041024600250026002000230024B1
:102EE000002791F803C00CF00F0591F803C01CF007
:102EF000100F03D091F802C04CEA050591F800C00C
:102F0000BCF1000F31D0146800202BE04FF0010C11
:102F10000CFA00F3B1F800C00CEA03069E4220D17F
:102F200083004FF00F0C0CFA03F7BC4305FA03FCC7
:102F30004CEA040491F803C0BCF1280F06D14FF00D
:102F4000010C0CFA00FCC2F814C00AE091F803C0AE
:102F5000BCF1480F05D14FF0010C0CFA00FCC2F88F
:102F600010C0401C0828D1D31460B1F800C0BCF1D7
:102F7000FF0F34DD546800202EE000F1080C4FF004
:102F8000010808FA0CF3B1F800C00CEA03069E42EF
:102F900021D183004FF00F0C0CFA03F7BC4305FA64
:102FA00003FC4CEA040491F803C0BCF1280F05D1DE
:102FB00000F1080C08FA0CF8C2F8148091F803C06C
:102FC000BCF1480F07D100F1080C4FF0010808FAD6
:102FD0000CF8C2F81080401C0828CED35460BDE81D
:102FE000F0814FF6FF710180022181700421C170D0
:102FF00070470246002093680B4201D0012000E098
:10300000002070470146886880B270470246002061
:10301000D3680B4201D0012000E000207047014638
:10302000C86880B2704701617047416170470AB15A
:10303000016100E041617047C16070474FF4803228
:103040000A438261816182618269826970470246B6
:103050000020424B18684FF68073184040EA021077
:1030600008433E4B186070473D49C8617047F0B552
:103070000A46002300240021002500F00046B6F196
:10308000004F02D1354EF16901E0344E7168C0F352
:10309000034583B200F44016B6F5401F08D121F075
:1030A00070612E4E766826F070662C4F7E6012E0BE
:1030B00000F48016B6F5801F06D1032606FA05F443
:1030C000A14341F0706106E0460D360103FA06F6B1
:1030D000B14341F0706122B1460D360103FA06F6A4
:1030E000314300F00046B6F1004F02D11B4EF161B2
:1030F00001E01A4E7160F0BD30B500228B071C0F45
:103100000F2303FA04F2154B08338C1053F82430C4
:103110009343124C08348D1044F8253023468C100C
:1031200053F824308C07240F00FA04F423430B4C8B
:1031300008348D1044F8253030BD0A4908607047C6
:1031400000080140000C0140001001400014014043
:1031500000180140001C0140002001400000014017
:1031600000002042DC0020420CB5002001900090BD
:103170006B48006840F480306949086000BF6848C7
:10318000006800F4003000900198401C0190009805
:1031900018B90198B0F5A06FF1D16148006810F43A
:1031A000003F02D00120009001E000200090009834
:1031B000012842D15B48006840F01000594908607E
:1031C0000846006820F0030008600846006840F0E8
:1031D000020008605248406851494860084640680B
:1031E00048600846406840F480604860084640688F
:1031F00020F47C1048600846406840F4E8104860BD
:103200000846006840F08070086000BF44480068CD
:1032100010F0007FFAD04248406820F00300404997
:1032200048600846406840F00200486000BF3C48E3
:10323000406800F00C000828F9D10CBD10B5FFF76C
:1032400093FF10BD10B53648006840F001003449C6
:1032500008600846406834490840314948600846DB
:103260000068324908402E4908600846006820F48A
:10327000802008600846406820F4FE0048604FF453
:103280001F008860FFF7DAFF4FF0006028490860F0
:1032900010BD10B5002100200022214B5B6803F017
:1032A0000C0121B1042906D0082928D107E0214BBF
:1032B000214C236027E01F4B1F4C236023E0184B59
:1032C0005B6803F47010164B5B6803F480320223D2
:1032D00003EB904022B9194B4343174C23600DE098
:1032E0000F4B5B6813F4003F04D0144B4343124C64
:1032F000236003E00F4B43430F4C236003E00D4B6F
:103300000D4C236000BF00BF054B5B68C3F3031384
:103310000B4CE15C084B1B68CB40074C236010BD95
:1033200000100240002002400000FFF8FFFFF6FE00
:1033300008ED00E000127A001800002000093D00AE
:103340001C00002010B586B0044601218805FFF757
:1033500004FD01210820FFF7F3FC4FF44060ADF8B5
:10336000040003208DF8060010208DF8070001A945
:10337000A248FFF7ADFDA248FEF74AFE0020ADF8D7
:103380000C004BF6FF70ADF80E00ADF810404FF496
:103390008060ADF812000001ADF814009948029069
:1033A00001219748FEF7CBFE02A99548FEF749FE9A
:1033B00001219348FEF7FFFE00214FF48000FFF744
:1033C000CCFC4FF480618D48FFF72FFE642002F0A3
:1033D000CDF84FF400618948FFF727FE642002F022
:1033E000C5F84FF480618548FFF71DFE642002F0A8
:1033F000BDF84FF480618148FFF715FE642002F0AC
:10340000B5F81C208DF8070001A97C48FFF760FD86
:1034100001218805FFF7A1FC002006B010BD2DE9B1
:10342000F0410646884617461D4600BF4FF400315E
:103430007348FEF7ABFF0028F8D101217048FEF772
:10344000BAFE01216E48FEF79EFE00BF6E496C4831
:10345000FEF77AFF0028F9D0002231466848FEF7CF
:10346000E8FE00BF69496648FEF76EFF0028F9D004
:1034700041466348FEF7D7FE00BF6449891C604897
:10348000FEF762FF0028F8D001215D48FEF77BFEC1
:1034900000BF5D495A48FEF757FF0028F9D00122C6
:1034A00031465748FEF7C5FE00BF5749491C5448EE
:1034B000FEF74AFF0028F8D0002417E0681EA0425B
:1034C00007D100214E48FEF776FE01214C48FEF759
:1034D00066FE00BF4C493F314948FEF735FF0028E2
:1034E000F8D04748FEF7A1FE3855641CAC42E5DB36
:1034F00001214348FEF75FFE0020BDE8F08170B572
:1035000004460E46154600BF4FF400313C48FEF716
:103510003DFF0028F8D101213948FEF734FE00BFF5
:1035200039493748FEF710FF0028F9D0002221461C
:103530003348FEF77EFE00BF34493148FEF704FFF2
:103540000028F9D031462E48FEF76DFE00BF2F4906
:10355000891C2B48FEF7F8FE0028F8D02946284899
:10356000FEF761FE00BF2949891C2548FEF7ECFEE5
:103570000028F8D001212248FEF711FE002070BD7E
:103580002DE9F04105460F46164641F2883400E029
:10359000641E4FF400311A48FEF7F8FE08B1002C03
:1035A000F6DC002C03DC4FF0FF30BDE8F081012198
:1035B0001348FEF7E8FD4FF47A7001F0D7FF0022C0
:1035C00029460F48FEF735FE4FF47A7001F0CEFF22
:1035D00039460B48FEF727FE4FF47A7001F0C6FF1C
:1035E00031460748FEF71FFE4FF47A7001F0BEFF28
:1035F00001210348FEF7D3FD0020D6E7000C01406F
:1036000000580040A086010001000300820007006E
:1036100000B587B001214520FFF792FB0121080387
:10362000FFF78EFBE020ADF8040001208DF80600C6
:1036300018208DF8070001A9E348FFF749FC062090
:10364000ADF8040001208DF8060010208DF8070069
:1036500001A9DD48FFF73CFC0820ADF8040001207B
:103660008DF8060048208DF8070001A9D648FFF71D
:103670002FFC0221D448FFF7D6FC0020ADF808004B
:103680004FF48270ADF80A000020ADF80C00ADF8E0
:103690000E00ADF810004FF40070ADF812001020CD
:1036A000ADF814000020ADF816000720ADF81800A2
:1036B00002A9C648FEF74CFB0121C448FEF7EDFB0A
:1036C00007B000BD10B5044600BF0221BF48FEF799
:1036D00068FC0028F9D02146BC48FEF70FFC00BF6B
:1036E0000121BA48FEF75DFC0028F9D0B748FEF783
:1036F00007FCC0B210BD2DE9F04107460C46154647
:103700000421B148FFF791FC0221AF48FFF78DFC7F
:103710003846FFF7D7FF8046002605E014F8010B76
:10372000FFF7D0FF701CC6B2AE42F7DB0221A648FD
:10373000FFF779FC4046BDE8F0812DE9F0410746EE
:103740000D4616460421A048FFF76FFC02219E4853
:10375000FFF76BFC3846FFF7B5FF8046002405E015
:10376000FF20FFF7AFFF2855601CC4B2B442F7DB5F
:1037700002219548FFF757FC4046BDE8F08170B53F
:1037800005460C4604219048FFF74FFC02218E4865
:10379000FFF74BFC2846FFF795FF06462046FFF74C
:1037A00091FF02218848FFF73EFC304670BD70B59E
:1037B000044604218448FFF738FC02218248FFF7C1
:1037C00034FC2046FFF77EFFFF20FFF77BFF054616
:1037D00002217D48FFF727FC284670BD1FB57CA15C
:1037E00003C9CDE90201002000900190052202A941
:1037F0003020FFF780FF052269461020FFF79DFF6C
:10380000002406E01DF80400C22800D003E0601C7C
:10381000C4B2052CF6DB00BF052C02D1002004B099
:1038200010BD0120FBE710B504216748FFF7FDFB41
:103830000D212020FFF7A3FF04216348FFF7F3FBCE
:103840000A2001F093FE10BD10B5FFF7ECFF042134
:103850005D48FFF7EAFB05225F492A20FFF74BFF8F
:1038600001212120FFF78BFF01212220FFF787FF95
:1038700028212520FFF783FF20213120FFF77FFF3C
:1038800027212620FFF77BFF0F212020FFF777FF5E
:1038900004214D48FFF7C7FB0A2001F067FE10BD69
:1038A00010B5FFF7C0FF04214748FFF7BEFB052214
:1038B0004A493020FFF71FFF052247492A20FFF71A
:1038C0001AFF01212120FFF75AFF01212220FFF7D3
:1038D00056FF1A212420FFF752FF28212520FFF749
:1038E0004EFF27212620FFF74AFF0E212020FFF759
:1038F00046FF04213448FFF796FB0A2001F036FE0C
:1039000010BD70B5054604212F48FFF78EFB20221D
:103910002946A020FFF7EFFE04212B48FFF783FB89
:1039200000BF08212848FFF764FB0028F9D10720D1
:10393000FFF73DFF044621462720FFF720FFFF2128
:10394000E120FFF71CFF14F0100F01D0102070BD14
:1039500014F0200F01D02020F9E70020F7E770B520
:103960000546002604211848FFF75DFB00BF08212B
:103970001548FFF73EFB28B13046761C41F28831EE
:103980008842F4DBA6F59850883800D170BD042138
:103990000D48FFF74AFB0720FFF709FF04462146C1
:1039A0002720FFF7ECFE14F0400F0AD02022294612
:1039B0006120FFF7C2FEFF21E220FFF7E0FE40207A
:1039C000E4E70020E2E70000000801400030014089
:1039D000C2C2C2C2C2000000310000202C00002080
:1039E00070B54FF0FF3449E04FF0FF344020FDF751
:1039F000F3F900B100248020FDF7EEF900B10124B5
:103A00004FF48070FDF7E8F900B102244FF4007024
:103A1000FDF7E2F900B10324601C00D12FE0D24889
:103A20000068D24951F82410084206D0D048FEF769
:103A3000D4F8D04941F824001BE0CD48FEF7CDF87A
:103A40000546CC4850F82400A84207D2C94830F8AF
:103A50002400281AC84921F8140009E0C54830F8A4
:103A6000240042F210712944081AC34921F81400B5
:103A700000BFC24951F82400FDF7BFF9B4E700BF09
:103A800070BD38B5044601210620FFF766F9012113
:103A90000D20FFF755F93320ADF8000018208DF800
:103AA000030003208DF802006946AF480838FFF78D
:103AB0000FFA4FF47070ADF800000CB1042000E074
:103AC00018208DF803006946A7480838FFF700FA68
:103AD0000121AB48FFF7CBFA0121AA48FFF7C7FA4B
:103AE00038BD10B58AB0044642F20F70ADF8200020
:103AF0004720ADF81C000020ADF82200ADF81E00F4
:103B000007A9A148FDF756FA07A99948FDF752FA07
:103B100001219D48FDF7AAFD01219548FDF7A6FD6D
:103B200001219948FDF7A2FE01219148FDF79EFE73
:103B300008219548FDF7CAFE08219348FDF7CFFEFE
:103B400008219148FDF7D8FE08218F48FDF7DDFEDA
:103B500008218748FDF7BAFE08218548FDF7BFFE1A
:103B600008218348FDF7C8FE08218148FDF7CDFEF6
:103B70006020ADF800000120ADF802000020ADF893
:103B8000080082480088ADF8060069467E48FDF7C7
:103B90004EFA7E484088ADF8060069467A48FDF73F
:103BA00088FA7A488088ADF8060069467648FDF7BD
:103BB000CDFA7648C088ADF8060069467248FDF730
:103BC00010FB72480089ADF8060069466848FDF7A9
:103BD0002EFA6E484089ADF8060069466448FDF744
:103BE00068FA6A488089ADF8060069466048FDF7C2
:103BF000ADFA6648C089ADF8060069465C48FDF735
:103C0000F0FA002C4BD04020FDF7F7F88020FDF7AC
:103C1000F4F84FF48070FDF7F0F84FF40070FDF702
:103C2000ECF806210120FFF767FA07210120FFF7D2
:103C300063FA08210120FFF75FFA09210120FFF74D
:103C40005BFA00208DF8180010208DF81900012073
:103C50008DF81A004020059005A8FDF757F8802040
:103C6000059005A8FDF752F84FF48070059005A85F
:103C7000FDF74CF84FF40070059005A8FDF746F8E5
:103C800017208DF8100002208DF811008DF8120019
:103C900001208DF8130004A8FDF7CBFF0DE01720DD
:103CA0008DF8100002208DF811008DF81200002010
:103CB0008DF8130004A8FDF7BCFF0AB010BD10B5C5
:103CC000044614F0010F04D0304801882E48FDF757
:103CD00065FF14F0020F04D02C4841882A48FDF7F4
:103CE0005FFF14F0040F04D0284881882648FDF7B0
:103CF00059FF14F0080F04D02448C1882248FDF76A
:103D000053FF23480068F8B914F0100F04D01F487F
:103D100001891748FDF742FF14F0200F04D01B481B
:103D200041891348FDF73AFF14F0400F04D01748BB
:103D300081890F48FDF732FF14F0800F04D013483B
:103D4000C1890B48FDF72AFF10BD10B50446104885
:103D500004602046FFF795FE2046FFF7C2FEFF20D5
:103D6000FFF7ADFF10BD0000080C01404800002027
:103D700000080040F40000206800002058000020E7
:103D800000081A0000023000000400403800002043
:103D9000700000207047074A126812F0807F08D038
:103DA00000BF4FF060421268002AFAD04FF0604323
:103DB00018707047FCED00E008B50020FCF7D7FE56
:103DC0000020FCF7D7FEFCF7A7FE00214FF480602F
:103DD000FEF7A9FF4FF4F850ADF8000004208DF86D
:103DE00003006946FB48FFF773F80420ADF80000B4
:103DF0006946F948FFF76CF808BD08B54FF4C06094
:103E0000FDF712FF31208DF8000000208DF8010031
:103E10008DF8020001208DF803006846FDF709FFC8
:103E200008BD10B5ED48FEF7E1FD10BD30B58BB013
:103E300005460C46EA48FEF7ECFD0021E948FEF78E
:103E4000BAFDE9480090019500200290A008039077
:103E5000002004908020059080000690800007904C
:103E6000002008904FF40050099000200A90694605
:103E7000DC48FEF775FD0121DA48FEF79CFD0BB02A
:103E800030BD30B58BB005460C46D548FEF7C1FDB8
:103E90000021D448FEF78FFDD348009001951020F3
:103EA0000290A008039000200490802005908000DC
:103EB000069080000790002008904FF40050099071
:103EC00000200A906946C748FEF74AFD0121C5480F
:103ED000FEF771FD0BB030BD08B501213020FEF7B3
:103EE0002FFF4FF4F850ADF8000003208DF80200CA
:103EF00018208DF803006946B648FEF7E9FF042054
:103F0000ADF800006946B448FEF7E2FF01218802DF
:103F1000FEF709FF01210220FEF705FF08BD01465B
:103F200000BFB1488038406B10F0450FF9D040F227
:103F3000FF50AD4A803A9063104640690822104015
:103F4000C0B270472DE9FC4107460D46002600240B
:103F50000020009001900820A449086010204860CB
:103F6000402088600020C8604FF4806008610846E7
:103F7000FCF720FE1020FFF7D2FF044614B12046C4
:103F8000BDE8FC819A480088000498490860372001
:103F90004860402088600020C8604FF4806008615D
:103FA0000846FCF707FE3720FFF7B9FF04460CB1BF
:103FB0002046E5E74FF0FF308E4908600820486052
:103FC000302088600220C86000200861012048611C
:103FD0000846FCF718FE002084490860332048603A
:103FE000402088600020C8604FF480600861084667
:103FF000FCF7E0FD3320FFF792FF04460CB12046AA
:10400000BEE70CE04FF40010FCF746FE38B1FCF7B9
:104010001CFE4DF82600761C012E00D906E07248E1
:104020008038406B40F22A610842EBD000BF082084
:10403000FCF732FE28B10820FCF738FE04242046A5
:104040009EE70220FCF728FE28B10220FCF72EFE96
:104050000224204694E72020FCF71EFE28B12020F1
:10406000FCF724FE062420468AE74FF40070FCF794
:1040700013FE30B14FF40070FCF718FE0724204601
:104080007EE740F2FF50FCF711FE00980006009911
:1040900001F47F4140EA0120009901F47F0140EAE8
:1040A0001120009940EA11606860019800060199AA
:1040B00001F47F4140EA0120019901F47F0140EAC7
:1040C0001120019940EA11602860204658E77CB52C
:1040D00005460024002000900190FCF789FD10F0B7
:1040E000007F02D00E2420467CBD4149098888B259
:1040F0006946FFF727FF04460CB12046F4E7012D7F
:1041000035D1019810F4802F2ED039480088000452
:104110003649086037204860402088600020C86029
:10412000A80208610846FCF745FD3720FFF7F7FEB7
:1041300004460CB12046D7E702202C49086006202F
:104140004860402088600020C8604FF480600861AB
:104150000846FCF72FFD0620FFF7E1FE04460CB1F0
:104160002046C1E72046BFE725242046BCE701984A
:1041700010F4803F42D01E48008800041B490860AC
:1041800037204860402088600020C8604FF480607D
:1041900008610846FCF70EFD3720FFF7C0FE044615
:1041A0000CB12046A0E700201049086006204860B6
:1041B000402088600020C8604FF480600861084695
:1041C000FCF7F8FC0620FFF7AAFE0446A4B120463F
:1041D0008AE7000000100140001401400020001098
:1041E00000F0001044040240808001409C01002047
:1041F00080000020B0010020204675E725242046DD
:1042000072E770B504460025F7480068032802D11C
:104210002725284670BDF448006838B1F248006888
:10422000012803D0F048006802282ED1B4F5805F41
:1042300002D127252846EDE7B4F5006F14D10120FF
:10424000FFF745FF054605BB0120E849087500203A
:104250000860486088604FF40060C8600020086112
:104260000846FCF767FC10E00020FFF730FF05462A
:104270005DB90120DD49087500200860486088604C
:10428000C86008610846FCF755FC2846C2E770B5CF
:1042900004460025D64804600720D54948604020E0
:1042A00088600020C8604FF4806008610846FCF711
:1042B00081FC0720FFF733FE0546284670BD30B568
:1042C000014600200022C84B1B7881F84E30C94BB4
:1042D0001B88A1F84C30C84B1B681A0E93090B7051
:1042E000C2F383034B7002F003038B70C24B1B6855
:1042F000C3F30742CA70C04B1B88C3F307220A717D
:10430000BD4B1A784A715B681A0E1301CB80BA4B09
:104310005B68C3F30742CB8843EA1213CB8002F0F9
:104320000F030B72B44B9B88C3F30722D3094B7264
:10433000C2F380138B72C2F34013CB72C2F300132B
:104340000B7300234B73A84B1B681BB1A64B1B6858
:10435000012B3CD193071B0D0B61A74B1A790B69FD
:1043600043EA82030B61A44B9B681A0E0B6943EA74
:1043700092130B61C2F3C2030B7502F007034B7576
:104380009D4B9B68C3F3074253098B75C2F38203AD
:10439000CB7593075B0F0B76974B1B89C3F30722F3
:1043A0000B7E43EAD2130B760B695B1C4B640C7ECD
:1043B0004B6CA41C0125A5406B434B640C7A012374
:1043C000A3408B64D1E9113463434B6421E0864BF5
:1043D0001B68022B1DD1884B1A7993069B0A0B612F
:1043E000854B9B681A0E0B6943EA02230B61824BD3
:1043F0009B68C3F307420B6913430B617E4B1B8918
:10440000C3F307220B695B1CDB044B644FF400739E
:104410008B64C2F3801301F8193F93065B0E4B7057
:10442000754B1A7A4B7843EAD2134B7002F07F0334
:104430008B70714BDB681A0ED309CB70C2F341133A
:104440000B71C2F382034B7193071B0F8B716A4B85
:10445000DB68C3F307428B7943EA92138B71C2F393
:104460004013CB7100230B7202F001034B72624BBD
:104470009B89C3F30722D3098B72C2F38013CB72DB
:10448000C2F340130B73C2F300134B73C2F38103E7
:104490008B7302F00303CB73574B1A7B53080B74D7
:1044A00001234B74554B1B681A0ECA74A1F11901F4
:1044B000524B1B68C3F307424FEA0224CC854F4B93
:1044C0001B88C3F30722CB8D43EA0203CB854B4BFA
:1044D0001A784FEA02640C635B684FEA13620B6B55
:1044E00043EA02440C63454B5B68C3F307420B6B22
:1044F00043EA02240C63414B9B88C3F307220B6BF6
:1045000043EA02030B633D4B1A794FF034035A54CC
:104510003A4B9B684FEA13624FF035035A54374BBE
:104520009B68C3F307424FEA02648C63334B1B89D9
:10453000C3F307228B6B43EA02448C632F4B1A7A36
:104540008B6B43EA02248C632C4BDB684FEA1362CB
:104550008B6B43EA02038B63284BDB68C3F3074290
:104560004FF03C035B5C43EA12144FF03C035C5495
:104570004FEA02734FEA1354CC87204B9B89C3F355
:104580000722CB8F43EA0203CB871C4B1A7B4FEAEF
:1045900052044FF040035C544FF001044FF04103CC
:1045A0005C5430BD70B500251548446B01E01448DB
:1045B000446B14F0450FFAD014F0040F05D0032516
:1045C0000420FCF773FB284670BD14F0010F05D0E2
:1045D00001250120FCF76AFB2846F5E740F2FF5071
:1045E000FCF764FB2846EFE77C00002084010020F4
:1045F0009C01002080000020040100201401002004
:10460000008001402DE9F04106460F464FF00008BA
:10461000F848456B01E0F748456B15F0450FFAD0B7
:1046200015F0040F07D04FF003080420FCF73EFB01
:104630004046BDE8F08115F0010F06D04FF00108AB
:104640000120FCF733FB4046F3E7FCF7CDFAB0421C
:1046500003D04FF010084046EBE740F2FF50FCF764
:1046600025FB0020FCF7C4FA044614F4604F03D184
:10467000200C38804046DCE714F4005F01D01320A2
:10468000D7E714F4804F01D01020D2E714F4004F84
:1046900001D00F20CDE74046CBE738B500240120FC
:1046A0000090FCF772FA10B92524204638BDD24894
:1046B0000068042828D00020D04908600220486003
:1046C000C02088600020C8604FF480600861084600
:1046D000FCF770FAFFF766FF04460CB12046E5E7E9
:1046E0000020FCF785FAC64908600420FCF780FA30
:1046F000C34948600820FCF77BFAC14988600C2058
:10470000FCF776FABE49C860BB48006858B1BA48A1
:104710000068012807D0B8480068062803D0B648CA
:104720000068022816D10020B449086003204860C0
:10473000402088600020C8604FF48060086108460F
:10474000FCF738FA69460320FFF75CFF04460CB11A
:104750002046ABE7A848006804282ED0BDF800002A
:10476000A8490860BDF800000004A44908600920B9
:104770004860C02088600020C8604FF480600861F5
:104780000846FCF717FAFFF70DFF04460CB1204668
:104790008CE70020FCF72CFA9B4908600420FCF70A
:1047A00027FA994948600820FCF722FA9649886060
:1047B0000C20FCF71DFA9449C8600024204675E7D8
:1047C00070B500258B48446B01E08A48446B14F0B7
:1047D000450FFAD014F0040F05D003250420FCF790
:1047E00065FA284670BD40F2FF50FCF75FFA284694
:1047F000F8E770B500264FF480357E48446B02E040
:104800006D1E7C48446B14F0450F01D1002DF7D18B
:1048100015B114F0040F05D003260420FCF746FA66
:10482000304670BD14F0400F05D000264020FCF744
:104830003DFA3046F5E73046F3E770B500254FF412
:10484000803400E0641E24B18020FCF725FA0028A3
:10485000F8D014B90325284670BD40F2FF50FCF78C
:1048600025FA2846F8E72DE9F04100240026002526
:104870000027A046B22065490875002008604860FE
:104880008860C86008610846FCF754F90320FCF70B
:1048900071F90120FCF76BF9002058490860486065
:1048A0008860C8604FF4806008610846FCF782F9B0
:1048B000FFF7C3FF044614B12046BDE8F0814FF472
:1048C000D5704E490860082048604020886000206C
:1048D000C8604FF4806008610846FCF76BF9FFF789
:1048E00088FF04462CB90120434908604FF08048F6
:1048F00012E000204149086037204860402088606D
:104900000020C8604FF4806008610846FCF752F947
:104910003720FFF704FB04460020384908603720A1
:104920004860402088600020C8604FF480600861C3
:104930000846FCF73FF93720FFF7F1FA0446002C50
:104940004AD136E000202D490860372048604020D9
:1049500088600020C8604FF4806008610846FCF75A
:1049600029F93720FFF7DBFA04460CB12046A4E70B
:10497000274848EA00002149086029204860402073
:1049800088600020C8604FF4806008610846FCF72A
:1049900011F9FFF715FF04460CB120468DE7002002
:1049A000FCF726F90646012080EAD67080F0010760
:1049B0006D1C1FB94FF6FF708542C3D34FF6FF70D1
:1049C000854202D31B24204677E706F0804006008C
:1049D00002D002200849086020466EE710B5002486
:1049E000FFF77AFAFCF798F8FFF73DFF04468CB121
:1049F000204610BD008001407C0000209C0100206A
:104A00001401002080000020040100208401002007
:104A100000001080FFF741FE04460CB12046E8E795
:104A20000120FE4908750020086048608860C86061
:104A300008610846FCF77EF81CB9F948FFF73FFC0F
:104A4000044634B9F649B1F84C100804FFF71FFCCE
:104A5000044624B94FF40060FFF7D3FB0446204618
:104A6000C7E770B504460025EE4800880004EE490B
:104A7000886040F24D40C8600D20FFF750FA0546AF
:104A80000DB1284670BDE848406920602846F9E726
:104A900008B5002000906846FFF7E3FF08B1FF204B
:104AA00008BD0098C0F34320FAE710B50424FFF7CF
:104AB000EFFF0446042C01D1002010BDFF2C01D1D2
:104AC0000220FAE70120F8E710B500240020FCF7E7
:104AD00051F8204610BD70B5044600250026002080
:104AE000FCF786F810F0007F02D00E25284670BD36
:104AF0004020CE4908601020486040208860002097
:104B0000C8604FF4806008610846FCF753F8102035
:104B1000FFF705FA05460DB12846E8E7C1480088C9
:104B20000004C249086037204860402088600020A7
:104B3000C8604FF4806008610846FCF73BF83720F6
:104B4000FFF7EDF905460DB12846D0E74FF0FF30ED
:104B5000B749086040204860602088600220C86033
:104B600000200861012048610846FCF74CF800204D
:104B7000AE4908600D204860402088600020C86071
:104B80004FF4806008610846FCF714F80D20FFF729
:104B9000C6F905460DB12846A9E70EE04FF40040DE
:104BA000FCF77AF848B1002604E0FCF74EF844F828
:104BB0002600761C082EF8D320349B48406B40F228
:104BC0002A610842EAD00820FCF766F828B10820DC
:104BD000FCF76CF80425284689E70220FCF75CF80E
:104BE00028B10220FCF762F8022528467FE7202042
:104BF000FCF752F828B12020FCF758F80625284683
:104C000075E74FF40070FCF747F830B14FF40070CF
:104C1000FCF74CF80725284669E703E0FCF715F890
:104C20002060241D4FF40010FCF736F80028F5D161
:104C300040F2FF50FCF73AF8284658E770B50446B2
:104C4000002600257B48FFF746FF06460EB130469A
:104C500070BD784800788509257076480078C0F3E3
:104C60004015657073488578280260807148C57862
:104C70006088284360806F480579280660606D4829
:104C80004579606840EA054060606A4885796068F7
:104C900040EA052060606748C57960682843606025
:104CA0006448057A2572457A6572807A0509A5728D
:104CB0006048C57A2802A0815E48057BA089284308
:104CC000A0815C48407B8508A5735A48407B00F072
:104CD0000305E5733046BBE72DE9F04107460D4675
:104CE000144600260020544908705449086054496D
:104CF00008604D49C86253480068022801D1040287
:104D00006D0A4A4804601020484948604020886085
:104D10000020C8604FF4806008610846FBF74AFF36
:104D20001020FFF7FCF8064616B13046BDE8F081CA
:104D30004FF0FF303E49086008464460902088608C
:104D40000220C86000200861012048610846FBF786
:104D50005AFF364805601120344948604020886079
:104D60000020C8604FF4806008610846FBF722FF0E
:104D70001120FFF7D4F806460EB13046D6E70121E0
:104D80000802FBF707FF0120FBF711FF2146384619
:104D9000FFF74CF83046C9E72DE9F04180460D4653
:104DA00014461E4600270020234908702349086046
:104DB00001202349086000201B49C862214800687F
:104DC000022801D104026D0A184804601020174916
:104DD0004860402088600020C8604FF4806008610F
:104DE0000846FBF7E7FE1020FFF799F8074617B1D2
:104DF0003846BDE8F0814FF0FF300D49086006FBF2
:104E000004F04860902088600220C860002008619B
:104E1000012048610846FBF7F6FE15E084010020FA
:104E20003401002080000020008001409C0100200F
:104E3000B001002024010020880000208C00002008
:104E4000840000207C000020F94805601220F84909
:104E50004860402088600020C8604FF4806008618E
:104E60000846FBF7A7FE1220FFF759F807460FB1D7
:104E70003846BEE701210802FBF78CFE0120FBF754
:104E800096FE06FB04F14046FEF7D0FF3846B0E739
:104E900010B5002400BFFEF7C4FF30B9E548006834
:104EA00018B9E54800780028F5D0E348007810B13B
:104EB000E148007810BD2046FCE72DE9F0410746A7
:104EC0000D46144600260020DB490870D9490860C9
:104ED000DA490860DA49C862DA480068022801D174
:104EE00004026D0AD24804601020D1494860402075
:104EF00088600020C8604FF4806008610846FBF7B6
:104F000059FE1020FFF70BF8064616B13046BDE8F3
:104F1000F081C74805601820C54948604020886076
:104F20000020C8604FF4806008610846FBF742FE2D
:104F30001820FEF7F4FF06460EB13046E7E74FF0C3
:104F4000FF30C14908600846446090208860002016
:104F5000C8600861012048610846FBF754FE012142
:104F60000802FBF717FE21463846FEF78AFF0120AC
:104F7000FBF71DFE3046CAE72DE9F84380460F4691
:104F800015461E46002400200090AB490870A94930
:104F900008600120A94908600020A949C862A94801
:104FA0000068022801D105027F0AA148056010208F
:104FB0009F494860402088600020C8604FF48060AE
:104FC00008610846FBF7F6FD1020FEF7A8FF04462F
:104FD00014B12046BDE8F8839C4800880004944939
:104FE000086037204860402088600020C8604FF487
:104FF000806008610846FBF7DDFD3720FEF78FFF74
:1050000004460CB12046E5E7894806601720884928
:105010004860402088600020C8604FF480600861CC
:105020000846FBF7C7FD1720FEF779FF04460CB1D1
:105030002046CFE77E48076019207D494860402020
:1050400088600020C8604FF4806008610846FBF764
:10505000B1FD1920FEF763FF04460CB12046B9E705
:105060004FF0FF307849086006FB05F0486090205B
:1050700088600020C8600861012048610846FBF78D
:10508000C2FD01210802FBF785FD0120FBF78FFD22
:1050900006FB05F14046FEF7F4FE20469AE710B500
:1050A000002400BFFEF7BDFE30B96248006818B9A1
:1050B000614800780028F5D05F48007810B15E485C
:1050C000007810BD40F2FF50FBF7F0FD2046F8E7F6
:1050D0005B48406B10F4405F01D001207047002016
:1050E000FCE710B5002400205549886040F24C4090
:1050F000C8600C20FEF713FF0446204610BD7CB5A7
:1051000004460025002001900090504800880004CB
:10511000474908600D204860402088600020C86032
:105120004FF4806008610846FBF744FD4448406B3B
:10513000009002E04248406B0090009810F0450F4C
:10514000F8D0009810F0040F05D003250420FBF7D9
:10515000ADFD28467CBD009810F0010F05D001255B
:105160000120FBF7A3FD2846F4E7FBF73DFD009087
:1051700000980D2802D010252846EBE740F2FF509A
:10518000FBF794FD0020FBF733FD01900198C0F37D
:10519000432020702E490198084201D12846D9E7C2
:1051A000019810F0004F01D01C20D3E7019810F0B7
:1051B000804F01D00920CDE7019810F0005F01D0A9
:1051C0000A20C7E7019810F0805F01D00B20C1E7EB
:1051D000019810F0006F01D00C20BBE7019810F08F
:1051E000806F01D00D20B5E7019810F0807F01D0CD
:1051F0000E20AFE7019810F4000F01D00F20A9E7AF
:10520000019810F4800F01D01020A3E7019810F44A
:10521000001F01D011209DE7019810F4801F01D0DC
:10522000122097E7019810F4002F13D0132091E774
:105230009C0100208C0000208800002084000020B9
:10524000008001407C000020B00100208000002090
:1052500008E0FFFD019810F4802F01D0142079E7B9
:10526000019810F4003F01D0152073E7019810F465
:10527000803F01D016206DE7019810F4004F01D057
:10528000172067E7019810F4804F01D0182061E7DC
:10529000019810F4005F01D019205BE7019810F02D
:1052A000080F01D01A2055E7284653E72DE9FC41A5
:1052B00005460E46002400270020019000905C481F
:1052C0004068202111EA105F03D125242046BDE863
:1052D000FC8158484068C0B2801C5749B1FBF0F0CF
:1052E00001900020FBF784FC10F0007F02D00E2418
:1052F0002046ECE751480068022801D16D0A760A81
:105300004E48006838B14D480068012803D04B482A
:10531000006802282BD14A4805602020484948608F
:10532000402088600020C8604FF480600861084613
:10533000FBF740FC2020FEF7F2FD04460CB12046AE
:10534000C5E73F48066021203D494860402088600D
:105350000020C8604FF4806008610846FBF72AFC13
:105360002120FEF7DCFD04460CB12046AFE700200B
:105370003349086026204860402088600020C860CB
:105380004FF4806008610846FBF714FC2620FEF706
:10539000C6FD04460CB1204699E7002700E07F1CBB
:1053A00001988742FBD36846FFF7A9FE044603E055
:1053B0006846FFF7A4FE04463CB99DF800000728A4
:1053C000F6D09DF800000628F2D020467FE710B501
:1053D0001C48006801280BD100201649886040F263
:1053E0004C40C8600C20FEF79AFD1749087002E097
:1053F0000020154908704FF48070FBF764FC002111
:105400004FF48070FBF7C6FB0120104908600E487E
:10541000007810BD0146002002E04910421CD0B2C5
:105420000129FAD1704710B5FFF7D1FF10BD000078
:105430000401002000800140C0D401007C00002055
:105440009C01002084000020880000208C000020A7
:1054500010B501218807FCF7E3FB6E48D0E9003066
:105460004EF660229A1840F100006A49C1E9002016
:1054700010BD1FB5684800686849B0FBF1F0684985
:10548000086009684EF6602292FBF1F000EBD071E3
:105490004910644A116001210846FDF75EFC1C209A
:1054A0008DF80C0000208DF80D008DF80E00012005
:1054B0008DF80F0003A8FCF7BCFB4FF08040FBF712
:1054C000A5FC4FF08040FCF705F90020ADF8000086
:1054D000ADF80600ADF802004EF65F20ADF804000E
:1054E00069464FF08040FBF765FD01218807FCF716
:1054F00083FB00214FF08040FCF7B8F901221146F0
:105500009007FCF7CEF801218807FCF7AFF80020E0
:1055100004B010BD30B50246902A00DA30BD4FF01D
:105520008043988C8318903B4EF6602493FBF4F5EF
:1055300004FB153399B288420BDC00BF4FF0804367
:105540009B8C8B4210DA4FF080439B8C8342F5DAC0
:105550000AE000BF4FF080439B8C8342FADC4FF09F
:1055600080439B8C8B42F5DB00BFD7E770B50446C8
:105570002C480068844208DA294A126804FB02F1C8
:10558000A1F11900FFF7C6FF0FE000F010F8244B5F
:105590001B6804FB03F2851841EBE27600BF00F0C4
:1055A00006F8401BB141FADB00BF002070BD10B50A
:1055B0004FF08040848C1A480068B4EB400F07DB42
:1055C000174800684EF66021A1EB4000A04202DAC5
:1055D0000220FFF7CBFF4FF08040808C0D4AD2E9CC
:1055E0000032C01842F1000110BD70B5FFF7DFFFB7
:1055F00004460B480268D317204600F0E3FB70BD59
:1056000010B504464FF47A7104FB01F0FFF7AEFFCA
:1056100010BD0000900000201800002040420F0044
:10562000980000209C00002070B503461A46002018
:1056300008E0145C4D1E2D1A555D15544D1E2D1A93
:105640005455401C01EBD176B0EB660FF1DB70BD19
:105650002DE9F04F8BB08C4AD2E900109268CDE969
:1056600007020691112200213C20FDF748FF40224D
:1056700001213C20FDF743FF012202213C20FDF7E0
:105680003EFF0A20FFF7BCFF062309AA03213C20A6
:10569000FDF7C5FE4FF0000B2CE0012202213C205B
:1056A000FDF72DFF0A20FFF7ABFF062309AA032110
:1056B0003C20FDF7B4FE4FF0000A16E009A901EB0B
:1056C0004A000221FFF7B0FF09A931F91A0000F0E2
:1056D00067FD04466D4850F82A10204600F0B1FBE3
:1056E0006A4941F82A000AF1010ABAF1030FE5DB21
:1056F0000BF1010BBBF10A0FCFDB122200213C2082
:10570000FDF7FDFE012202213C20FDF7F8FE0A20F4
:10571000FFF776FF062309AA03213C20FDF77FFE51
:105720004FF0000B2CE0012202213C20FDF7E7FEA8
:105730000A20FFF765FF062309AA03213C20FDF795
:105740006EFE4FF0000A16E009A901EB4A000221A3
:10575000FFF76AFF09A931F91A0000F021FD04469C
:105760004A4850F82A10204600F0C0FB474941F84B
:105770002A000AF1010ABAF1030FE5DB0BF1010B74
:10578000BBF10A0FCFDB4FF0000A2DE03F4951F883
:105790002A0000F04CFD04460D4606A951F82A00E7
:1057A00000F045FD80460022394B00F018FC002235
:1057B0004FF08043CDE9000100F011FC0022354B91
:1057C000CDE9020100F00BFC064622462B4600F014
:1057D00078FC21F00041CDE9040100F03BFD2B49AC
:1057E00041F82A000AF1010ABAF1030FCEDB702258
:1057F00000213C20FDF783FE202201213C20FDF703
:105800007EFE002202213C20FDF779FE00200BB035
:10581000BDE8F08F2DE9FC41054606236A460321C9
:105820003C20FDF7FCFD002420E0694601EB44002C
:105830000221FFF7F9FE3DF9140000F0B1FC074624
:10584000124850F82410384600F053FB064600F08A
:10585000C1FC00B22DF814003DF814000E4931F8D7
:105860002410401A00B22DF81400641C032CDCDB59
:10587000BDF800002880BDF804006880BDF8020073
:10588000A8800020BDE8FC815C750008C8010020EC
:1058900000A0894000002440A000002070B503460D
:1058A0001A46002008E0145C4D1E2D1A555D155453
:1058B0004D1E2D1A5455401C01EBD176B0EB660FEE
:1058C000F1DB70BD08B50020009024A000F03AFF85
:1058D0000A20FFF795FE00226B21D020FDF70FFE76
:1058E00007221921D020FDF70AFE06221A21D02016
:1058F000FDF705FE18221B21D020FDF700FE08222F
:105900001C21D020FDF7FBFD01236A467521D02024
:10591000FDF785FD9DF8001014A000F013FF022292
:105920003721D020FDF7EBFD0A20FFF769FE0020AC
:1059300008BD70B504460E2322463B21D020FDF75A
:105940006EFD0646002505E004EB45000221FFF749
:10595000A5FF6D1C072DF7DB002070BD737461720D
:1059600074204D5055363035300D0A004D505536A7
:1059700030353020696E697469616C697A65642CB0
:105980002057484F5F414D5F493D25780D0A000083
:1059900070B503461A46002008E0145C4D1E2D1A0F
:1059A000555D15544D1E2D1A5455401C01EBD176F2
:1059B000B0EB660FF1DB70BDF8B500221E21EE20C2
:1059C000FDF79DFD0A20FFF71BFE002412E0A22038
:1059D00000EB4400C1B202236A46EE20FDF71FFD32
:1059E0009DF801009DF8001000EB0120E94921F825
:1059F0001400641C062CEADBE74800785030C1B282
:105A00000022EE20FDF77BFD0A20FFF7F9FD0323BE
:105A10006A460021EE20FDF702FD9DF8000000041B
:105A20009DF8011000EB01209DF802100844C117F9
:105A3000DA4A03C2D74800890102CA17D748D0E919
:105A40000030591A60EB0200D54AC2E90010D14873
:105A50004089002382CAA0FB012C03FB01C100FB8B
:105A60000711D00D40EA4122C8154FF4FA63D5184A
:105A700040F1000101220023284600F0A3F9C949A2
:105A80000860C54800784030C1B20022EE20FDF722
:105A900036FD0A20FFF7B4FD03236A460021EE20FD
:105AA000FDF7BDFC9DF8000000049DF8011000EB1F
:105AB00001209DF802100844C117BB4A03C2B54833
:105AC00041880020000440EA11400A04B149C98815
:105AD0000026B34DD5E90075A1FB073C06FB07C6C0
