:020000040800F2
:100000009004002045010008C1080008C30800084A
:10001000C7080008CB080008CF080008000000004F
:10002000000000000000000000000000D3080008ED
:10003000D508000800000000D7080008D90800080B
:100040005F0100085F0100085F0100085F01000810
:100050005F0100085F0100085F0100085F01000800
:100060005F0100085F0100085F0100085F010008F0
:100070005F0100085F0100085F0100085F010008E0
:100080005F0100085F0100085F0100085F010008D0
:100090005F0100085F0100085F01000829120008E5
:1000A0005F0100085F0100085F0100085F010008B0
:1000B0005F0100085F0100085F0100085F010008A0
:1000C0005F0100085F0100085F0100085F01000890
:1000D0005F010008ED0800085F0100085F010008EB
:1000E0005F0100085F0100085F0100085F01000870
:1000F0005F0100085F0100085F0100085F01000860
:100100005F0100085F0100085F0100085F0100084F
:100110005F0100085F0100085F0100085F0100083F
:100120005F0100085F0100085F0100085F0100082F
:10013000DFF80CD004F08AF800480047D10100082D
:10014000900400200648804706480047FEE7FEE787
:10015000FEE7FEE7FEE7FEE7FEE7FEE7FEE7FEE777
:10016000E93800083101000801B502E00098401E9E
:10017000009000980028F9D108BD70B503461A46D2
:10018000002008E0145C4D1E2D1A555D15544D1EBF
:100190002D1A5455401C01EBD176B0EB660FF1DB04
:1001A00070BD38B504460D4602236A4629462046EE
:1001B00000F05DFD02216846FFF7DFFFBDF900009A
:1001C00038BD0146002901DD084670474842FCE77A
:1001D000ACB000202B9000BF00BF202123A803F06B
:1001E0000AFC00201F9000BF00BF00BF00BF00F04E
:1001F000CFFB00F031FE00F015FF01461E90FEA07F
:1002000004F068F84FF434701E901E98B0F1807FAF
:1002100000D321E01E98401E4FF0E02148614817AE
:100220001C900F201D901C98002808DA1D980001D2
:10023000F6491C9A02F00F02121F885404E01D9820
:100240000001F3491C9A885400BF00204FF0E021C0
:1002500088610720086100BF012001F09EF9EDA030
:1002600004F038F8302000F0BBFCEDA004F032F8C8
:1002700000221E21EE2000F06AFD4FF47A7000F09B
:1002800071FB00202B9019E0A2212B9801EB40007C
:10029000C0B2022323AA01461E90EE2000F0E7FC24
:1002A0009DF88D009DF88C1000EB012081B220AAF2
:1002B0002B9822F810102B98401C2B902B98062876
:1002C000E2DB00BF00BF00BF00201E901D901C900D
:1002D0001B901A901990189017901690159023A8BB
:1002E0001490D3A003F0F6FF4FF47A7000F03AFBBD
:1002F00000226B21D02000F02AFD07221921D020F6
:1003000000F025FD06221A21D02000F020FD182241
:100310001B21D02000F01BFD08221C21D02000F062
:1003200016FD01231EAA7521D02000F0A0FC9DF827
:100330007810C3A003F0CEFF02223721D02000F0B6
:1003400006FD42F2107000F00DFB002202213C205D
:1003500000F0FDFC00202B9075E00E23149A921DF6
:100360003B21D02000F083FC062303213C20149A7B
:1003700000F07DFC02211498FFF7FFFE0221149883
:10038000001DFFF7FAFE02211498801CFFF7F5FE0E
:10039000022114980E30FFF7F0FE0221149810305D
:1003A000FFF7EBFE022114981230FFF7E6FE022160
:1003B0001498801DFFF7E1FE022114980830FFF722
:1003C000DCFE022114980A30FFF7D7FE1498B0F92A
:1003D0000E00129003F0C9FC1390189903F016FB5D
:1003E00018901498B0F91000129003F0BEFC13900E
:1003F000179903F00BFB17901498B0F912001290A4
:1004000003F0B3FC1390169903F000FB16901498B8
:10041000B0F9060040431499B1F9082002FB02012B
:100420001498B0F90A2002FB0210129003F09DFC10
:100430001390159903F0EAFA1590642000F092FAEF
:100440002B98401C2B902B98B0F57A7F85DB854943
:10045000189803F069FB18908249179803F064FB21
:1004600017908049169803F05FFB16907D49159808
:1004700003F05AFB1590159803F096FCCDE9100196
:1004800004F0E4FDCDE9120103F0A1FC15901598EC
:1004900003F08AFCCDE91201169803F085FCCDE942
:1004A0001001179803F080FCCDE90E01189803F0B5
:1004B0007BFCCDE90C01DDE91201CDE90401DDE9A8
:1004C0001001CDE90201DDE90E01CDE9000166A0D0
:1004D000DDE90C2303F0FEFE00BFC6E100F002FAE6
:1004E00012904FF0FF3011906FF08D0010906FF070
:1004F00029000F9010216C4801F053FB0E23149A31
:10050000921D3B21D02000F0B2FB062303213C20AA
:10051000149A00F0ACFB02211498FFF72EFE022182
:100520001498001DFFF729FE02211498801CFFF784
:1005300024FE022114980E30FFF71FFE02211498AA
:100540001030FFF71AFE022114981230FFF715FE43
:1005500002211498801DFFF710FE02211498083024
:10056000FFF70BFE022114980A30FFF706FE1498DD
:10057000B0F90E000B9003F0F8FB0C90189903F003
:1005800097FA0D901D9903F041FA1D901498B0F957
:100590000E000B9003F0E9FB0C90189903F088FA19
:1005A0000D901C9903F032FA1C901498B0F91000C9
:1005B0000B9003F0DAFB0C90179903F079FA0D9089
:1005C0001B9903F023FA1B901498B0F90A000290CB
:1005D00003F0CBFB04901498B0F90800029003F0EC
:1005E000C4FB80F000400390049903F09DFA05904D
:1005F00003F0DAFB5AE000004E52465F4368656341
:100600006B2829203D2025640D0A000018ED00E02C
:1006100000E400E049324320696E69740D0A00006D
:1006200049324320696E6974204F4B0D0A00000067
:100630007374617274204D5055363035300D0A0098
:100640004D50553630353020696E697469616C697A
:100650007A65642C2057484F5F414D5F493D2578AE
:100660000D0A000000007A444D50553630353020D8
:10067000626173652076616C7565206D6561737567
:100680007265642C20622078797A3D25662C256677
:100690002C25662C20616363656C5F6D61783D2558
:1006A00066200D0A0000000000080140CDE90601A7
:1006B00004F0FAFA81F0004100226C4BCDE9080108
:1006C00003F072FA6A4A6B4BCDE90A0103F0DEFAD5
:1006D000CDE90C0103F07BFB13900021139803F08C
:1006E00093FB04D26448139903F090F91390634884
:1006F000139903F0E3F962490A9003F0DFF96149C5
:100700000B9003F011FA0D905F481D9903F0D6F994
:100710000C900D9903F07AF91D9010215B4801F0BF
:100720003EFA1498B0F904101098081A039003F0D8
:100730002AFBCDE906011498B0F900101198081AA7
:10074000039003F020FBCDE90401DDE9062304F06A
:10075000BDFB0022454BCDE9080103F025FA444AD0
:10076000444BCDE90A0103F091FACDE90C0103F005
:100770002EFB0E901498B0F912000B9003F0F5FACE
:100780000C90169903F094F90D901A9903F03EF924
:100790001A901498B0F912000B9003F0E6FA0C903E
:1007A000169903F085F90D90199903F02FF9199016
:1007B00032480E9903F082F931490A9003F07EF92C
:1007C00030490B9003F0B0F92F490D901A9803F0BF
:1007D00075F90C900D9903F019F91A9000F082F850
:1007E000039003F0CBFA2A49049003F09DF9059099
:1007F00003F0DAFACDE90C010E9803F0D5FACDE951
:100800000A012049199803F059F91D49049003F091
:100810008BF9059003F0C8FACDE9080119491A9837
:1008200003F04CF91649049003F07EF9059003F0AB
:10083000BBFACDE90601DDE90C01CDE90401DDE9F2
:100840000A01CDE90201DDE90801CDE9000111A0AD
:10085000DDE9062303F03EFD00BF00F043F81299E6
:10086000401AB0F5487FF8D300BF37E600806640F5
:10087000F1D4C853FB210940000034C300D7A33B87
:1008800000B888460000104152B87E3F0008014081
:100890000050C3477961772C20796177492C207902
:1008A00061775F6D61672C2074696D65203D20253F
:1008B000662C2025662C2025662C2025660D0A0036
:1008C000704700BFFEE700BFFEE700BFFEE700BFC6
:1008D000FEE77047704770472B480068401C2A4964
:1008E00008607047284800687047704770B5002559
:1008F00040F22551254801F09DFB01280BD12348EA
:1009000001F02EFB0446012500BF40211F4801F0E5
:1009100091FB0028F9D040F225511C4801F0A0FBC2
:1009200020B140F22551194801F0C4FB1DB1A1B21C
:10093000164801F011FB70BD00B502460B46D118F8
:100940008A4205D800BFFFF7CDFF8842FBD308E0FD
:1009500000BFFFF7C7FF9042FBD8FFF7C3FF8842F5
:10096000F7D300BD30B50446FFF7BCFF054621466E
:10097000FFF7E2FF30BD0246914201D9881A704765
:10098000C2F1FF300844FAE70000002000380140BF
:1009900000B587B0012144F2040000F08DFF4FF450
:1009A0000070ADF8180018208DF81B0003208DF89A
:1009B0001A0006A9874801F047F84FF48060ADF8A7
:1009C000180004208DF81B0006A9824801F03CF8AD
:1009D0004FF4E06001F010FF25208DF804000020A6
:1009E0008DF8060001208DF8070001A801F009FF2D
:1009F0004FF4E13002900020ADF80C00ADF80E008D
:100A0000ADF81000ADF814000C20ADF8120002A9EA
:100A1000714801F0A8F901216F4801F030FA012274
:100A200040F225516C4801F036FA07B000BD6B4A20
:100A3000126812F0807F08D000BF4FF06042126849
:100A4000002AFAD04FF060431870704770B5044622
:100A50000D46E1B2604801F07FFA00BF5E480088B1
:100A600010F0800FFAD0204670BDF0B503460D4659
:100A70001646002729460A2E03D000200870284673
:100A8000F0BD33B9302001F8010B00200870284672
:100A9000F6E7002B03DA2D2001F8010B5B4242F24E
:100AA00010720DE093FBF2F404B937B104F1300099
:100AB00001F8010B04FB123301270A2092FBF0F22C
:100AC000002AEFDC002008702846D9E70FB470B583
:100AD00086B006460CA8019073E00B9800785C285D
:100AE0001CD10B98401C0B9000786E2809D07228FE
:100AF0000FD10D21304601F02FFA0B98401C0B90BE
:100B00000BE00A21304601F027FA0B98401C0B90AD
:100B100003E00B98401C0B9000BF4BE00B98007853
:100B2000252840D10B98401C0B900078642818D0E1
:100B3000732833D1019810C801900BE0217830461A
:100B400001F00AFA00BF4021304601F073FA002894
:100B5000F9D0641C20780028F0D10B98401C0B9031
:100B600020E0019820C801900A2202A92846FFF738
:100B70007CFF02AC0BE02178304601F0EDF900BFBC
:100B80004021304601F056FA0028F9D0641C207844
:100B90000028F0D10B98401C0B9003E00B98401CF0
:100BA0000B9000BF06E00B9810F8011B0B9030462D
:100BB00001F0D2F900BF4021304601F03BFA002895
:100BC000F9D00B980078002887D106B070BC5DF88A
:100BD00014FB00000008014000380140FCED00E07B
:100BE00010B586B004460121880500F072FE01218F
:100BF000082000F061FE4FF44060ADF804000320CF
:100C00008DF806001C208DF8070001A98D4800F022
:100C10001BFF8D4801F068FA0020ADF80C004BF680
:100C2000FF70ADF80E00ADF810404FF48060ADF8E5
:100C300012000001ADF8140084480290012182489E
:100C400001F0E9FA02A9804801F067FA01217E4823
:100C500001F01DFB4FF480617A4800F0A2FF4FF4D1
:100C60000061784800F09DFF002006B010BD2DE91E
:100C7000F0410646884617461D4600BF4FF4003136
:100C8000714801F0EFFB0028F8D101216E4801F016
:100C9000FEFA01216C4801F0E2FA00BF6C496A4893
:100CA00001F0BEFB0028F9D000223146664801F071
:100CB0002CFB00BF6749644801F0B2FB0028F9D063
:100CC0004146614801F01BFB00BF6249891C5E4838
:100CD00001F0A6FB0028F8D001215B4801F0BFFA23
:100CE00000BF5B49584801F09BFB0028F9D0012266
:100CF0003146554801F009FB00BF5549491C52488F
:100D000001F08EFB0028F8D0002417E0681EA042F6
:100D100007D100214C4801F0BAFA01214A4801F0FC
:100D2000AAFA00BF4A493F31474801F079FB002841
:100D3000F8D0454801F0E5FA3855641CAC42E5DBD3
:100D40000121414801F0A3FA0020BDE8F08170B50F
:100D500004460E46154600BF4FF400313A4801F0F4
:100D600081FB0028F8D10121374801F078FA00BF53
:100D70003749354801F054FB0028F9D000222146BC
:100D8000314801F0C2FA00BF32492F4801F048FB58
:100D90000028F9D031462C4801F0B1FA00BF2D49A6
:100DA000891C294801F03CFB0028F8D02946264838
:100DB00001F0A5FA00BF2749891C234801F030FB48
:100DC0000028F8D00121204801F055FA002070BD1C
:100DD0002DE9F04105460F46164641F2883400E001
:100DE000641E4FF40031184801F03CFB08B1002CA0
:100DF000F6DC002C03DC4FF0FF30BDE8F081012170
:100E0000114801F02CFA6420FFF7ACFD00222946BE
:100E10000D4801F07AFA6420FFF7A4FD39460A482C
:100E200001F06DFA6420FFF79DFD3146064801F0A0
:100E300066FA6420FFF796FD0121034801F01BFAD2
:100E40000020DAE7000C014000580040A0860100B5
:100E5000010003008200070000B587B00121452092
:100E600000F02AFD0121080300F026FDE020ADF886
:100E7000040001208DF8060018208DF8070001A954
:100E8000E34800F0E1FD0620ADF8040001208DF8F4
:100E9000060010208DF8070001A9DD4800F0D4FD00
:100EA0000820ADF8040001208DF8060048208DF8D8
:100EB000070001A9D64800F0C7FD0221D44800F080
:100EC0006EFE0020ADF808004FF48270ADF80A0005
:100ED0000020ADF80C00ADF80E00ADF810004FF496
:100EE0000070ADF812001020ADF814000020ADF82D
:100EF00016000720ADF8180002A9C64801F01CFB37
:100F00000121C44801F0BDFB07B000BD10B5044687
:100F100000BF0221BF4801F038FC0028F9D021466B
:100F2000BC4801F0DFFB00BF0121BA4801F02DFCF5
:100F30000028F9D0B74801F0D7FBC0B210BD2DE9A9
:100F4000F04107460C4615460421B14800F029FE41
:100F50000221AF4800F025FE3846FFF7D7FF804654
:100F6000002605E014F8010BFFF7D0FF701CC6B295
:100F7000AE42F7DB0221A64800F011FE4046BDE874
:100F8000F0812DE9F04107460D4616460421A048A0
:100F900000F007FE02219E4800F003FE3846FFF7EE
:100FA000B5FF8046002405E0FF20FFF7AFFF28557E
:100FB000601CC4B2B442F7DB0221954800F0EFFD9B
:100FC0004046BDE8F08170B505460C4604219048C6
:100FD00000F0E7FD02218E4800F0E3FD2846FFF710
:100FE00095FF06462046FFF791FF0221884800F052
:100FF000D6FD304670BD70B504460421844800F02B
:10100000D0FD0221824800F0CCFD2046FFF77EFF94
:10101000FF20FFF77BFF054602217D4800F0BFFD62
:10102000284670BD1FB57CA103C9CDE9020100208F
:1010300000900190052202A93020FFF780FF0522D1
:1010400069461020FFF79DFF002406E01DF804000C
:10105000C22800D003E0601CC4B2052CF6DB00BF40
:10106000052C02D1002004B010BD0120FBE710B513
:101070000421674800F095FD0D212020FFF7A3FF14
:101080000421634800F08BFD0120FFF76BFC10BDCD
:1010900010B5FFF7ECFF04215D4800F082FD05224A
:1010A0005F492A20FFF74BFF01212120FFF78BFF2B
:1010B00001212220FFF787FF28212520FFF783FF4A
:1010C00020213120FFF77FFF27212620FFF77BFF1C
:1010D0000F212020FFF777FF04214D4800F05FFD2E
:1010E0000120FFF73FFC10BD10B5FFF7C0FF042142
:1010F000474800F056FD05224A493020FFF71FFF00
:10110000052247492A20FFF71AFF01212120FFF776
:101110005AFF01212220FFF756FF1A212420FFF752
:1011200052FF28212520FFF74EFF27212620FFF719
:101130004AFF0E212020FFF746FF0421344800F02B
:101140002EFD0120FFF70EFC10BD70B505460421F1
:101150002F4800F026FD20222946A020FFF7EFFEB1
:1011600004212B4800F01BFD00BF0821284800F097
:10117000FCFC0028F9D10720FFF73DFF044621467B
:101180002720FFF720FFFF21E120FFF71CFF14F0CD
:10119000100F01D0102070BD14F0200F01D02020BE
:1011A000F9E70020F7E770B5054600260421184846
:1011B00000F0F5FC00BF0821154800F0D6FC28B16E
:1011C0003046761C41F288318842F4DBA6F598500F
:1011D000883800D170BD04210D4800F0E2FC0720E2
:1011E000FFF709FF044621462720FFF7ECFE14F025
:1011F000400F0AD0202229466120FFF7C2FEFF21BE
:10120000E220FFF7E0FE4020E4E70020E2E70000F4
:101210000008014000300140C2C2C2C2C20000004A
:10122000110000200C00002070B54FF0FF3449E0A1
:101230004FF0FF34402002F0CFFA00B100248020AC
:1012400002F0CAFA00B101244FF4807002F0C4FA2F
:1012500000B102244FF4007002F0BEFA00B1032482
:10126000601C00D12FE0D4480068D44951F8241004
:10127000084206D0D24802F014FAD24941F82400BC
:101280001BE0CF4802F00DFA0546CE4850F8240086
:10129000A84207D2CB4830F82400281ACA4921F8BE
:1012A000140009E0C74830F8240042F210712944C4
:1012B000081AC54921F8140000BFC44951F8240098
:1012C00002F09BFAB4E700BF70BD38B504460121B7
:1012D000062000F0FEFA01210D2000F0EDFA332087
:1012E000ADF8000018208DF8030003208DF80200EF
:1012F0006946B148083800F0A7FB4FF47070ADF8AC
:1013000000000CB1042000E018208DF803006946AD
:10131000A948083800F098FB0121AD4800F063FCB3
:101320000121AC4800F05FFC38BD10B58AB004461E
:1013300042F20F70ADF820004720ADF81C000020ED
:10134000ADF82200ADF81E0007A9A34801F096FBF6
:1013500007A99B4801F092FB01219F4801F0EAFE9A
:101360000121974801F0E6FE01219B4801F0E2FFD0
:101370000121934801F0DEFF0821974802F00AF8A6
:101380000821954802F00FF80821934802F018F858
:101390000821914802F01DF80821894801F0FAFF60
:1013A0000821874801F0FFFF0821854802F008F86E
:1013B0000821834802F00DF86020ADF800000120FC
:1013C000ADF802000020ADF8080084480088ADF8B0
:1013D00006006946804801F08EFB80484088ADF8E1
:1013E000060069467C4801F0C8FB7C488088ADF85F
:1013F00006006946784801F00DFC7848C088ADF8D1
:1014000006006946744801F050FC74480089ADF844
:10141000060069466A4801F06EFB70484089ADF8E5
:1014200006006946664801F0A8FB6C488089ADF863
:1014300006006946624801F0EDFB6848C089ADF8D6
:10144000060069465E4801F030FC002C4FD04FF496
:10145000A06001F0D1F9402002F0CFF9802002F025
:10146000CCF94FF4807002F0C8F94FF4007002F02C
:10147000C4F90621012000F0FBFB0721012000F048
:10148000F7FB0821012000F0F3FB0921012000F007
:10149000EFFB00208DF8180010208DF819000120B6
:1014A0008DF81A004020059005A802F02FF9802041
:1014B000059005A802F02AF94FF48070059005A860
:1014C00002F024F94FF40070059005A802F01EF90F
:1014D00017208DF8100002208DF811008DF81200F1
:1014E00001208DF8130004A801F08BF90DE01720FE
:1014F0008DF8100002208DF811008DF812000020E8
:101500008DF8130004A801F07CF90AB010BD10B5E5
:10151000044614F0010F04D0304801882E4802F030
:10152000A1F814F0020F04D02C4841882A4802F098
:101530009BF814F0040F04D028488188264802F054
:1015400095F814F0080F04D02448C188224802F00E
:101550008FF823480068F8B914F0100F04D01F4822
:101560000189174802F07EF814F0200F04D01B48C0
:101570004189134802F076F814F0400F04D0174860
:1015800081890F4802F06EF814F0800F04D01348E0
:10159000C1890B4802F066F810BD10B5044610482A
:1015A00004602046FFF791FE2046FFF7BEFEFF20B5
:1015B000FFF7ADFF10BD0000080C0140280000201F
:1015C0000008004080000020480000203800002073
:1015D00000081A000002300000040040180000203B
:1015E00050000020DD48006840F00100DB49086041
:1015F00008464068DA490840D8494860084600680B
:10160000D8490840D54908600846006820F4802081
:1016100008600846406820F4FE0048604FF41F0050
:1016200088607047CD49096821F48031CB4A116048
:101630001146096821F480211160B0F5803F03D084
:10164000B0F5802F0ED106E0C449096841F480311D
:10165000C24A116007E0C149096841F4A021BF4AAC
:10166000116000E000BF00BF704710B501460022C6
:10167000002300204A11012A02D1B84C236806E059
:10168000022A02D1B54C236A01E0B44C636A01F02E
:101690001F02012494401C4201D0012000E00020E0
:1016A00010BD38B5002000900024002500BF312077
:1016B000FFF7DBFF05460098401C00900098B0F54E
:1016C000A06F01D0002DF2D03120FFF7CEFF08B17E
:1016D000012400E00024204638BD014600209F4A36
:1016E000106820F0F80040EAC100106070479E4981
:1016F0000860704702460020984B586820F47C1020
:1017000042EA01031843954B5860704796490866B2
:10171000704701460020914A506820F003000843BA
:10172000506070478D48406800F00C0070470146DB
:1017300000208A4A506820F0F0000843506070474B
:1017400001460020854A506820F4E060084350605C
:10175000704701460020814A506820F4605040EAFA
:10176000C1005060704729B17C4A527A02437B4BDA
:101770005A7204E0794A527A8243784B5A7270471F
:101780007A490860704701460020744A506820F486
:1017900040400843506070470021754A11706F4AFD
:1017A00082F82010012802D0042808D103E001218A
:1017B0006F4A117004E005216D4A117000E000BF0E
:1017C00000BF70476B49086070476449096A01436C
:1017D000624A11627047674944390860704730B502
:1017E00000210022002400235C4D6D6805F00C01EF
:1017F00021B1042905D0082923D105E05E4D0560FB
:1018000022E05D4D05601FE0544D6D6805F47012D7
:10181000524D6D6805F48034022505EB92421CB9E7
:10182000564D554305600BE04C4D6D6815F4003F77
:1018300003D0524D5543056002E04F4D55430560BE
:1018400002E04D4D056000BF00BF444D6D6805F0DE
:10185000F00109094A4D6B5C0568DD4045603F4D6C
:101860006D6805F4E061090A454D6B5C4568DD4033
:1018700085603A4D6D6805F46051C90A404D6B5C56
:101880004568DD40C560354D6D6805F44041890B04
:101890003C4D6B5CC568B5FBF3F5056130BD29B106
:1018A0002E4A526902432D4B5A6104E02B4A526979
:1018B00082432A4B5A61704729B1284A92690243F0
:1018C000264B9A6104E0254A92698243234B9A6130
:1018D000704729B1214AD2690243204BDA6104E002
:1018E0001E4AD26982431D4BDA61704729B11B4AF7
:1018F000D2680243194BDA6004E0184AD268824386
:10190000164BDA60704729B1144A12690243134B2F
:101910001A6104E0114A12698243104B1A61704740
:1019200014494039086070470F49C86470470B4933
:10193000C87170470948406A40F0807007494862A2
:10194000704701460020054A92680A4201D00120F2
:1019500000E0002070470149887270470010024083
:101960000000FFF8FFFFF6FE00004242D8004242AE
:10197000201002408004424200127A0000093D001B
:10198000540000206400002010B50446CA48844278
:1019900008D101210420FFF7A9FF00210420FFF74F
:1019A000A5FF46E0C548844208D101210820FFF781
:1019B0009DFF00210820FFF799FF3AE0C0488442CC
:1019C00008D101211020FFF791FF00211020FFF71F
:1019D0008DFF2EE0BB48844208D101212020FFF773
:1019E00085FF00212020FFF781FF22E0B6488442D6
:1019F00008D101214020FFF779FF00214020FFF7A7
:101A000075FF16E0B148844208D101218020FFF71C
:101A10006DFF00218020FFF769FF0AE0AC48844297
:101A200007D101218015FFF761FF0021A015FFF705
:101A30005DFF10BD10B501210846FFF757FF0021DB
:101A40000120FFF753FF10BD2DE9F04102460025AC
:101A50000026002000230024002791F803C00CF08A
:101A60000F0591F803C01CF0100F03D091F802C0CD
:101A70004CEA050591F800C0BCF1000F31D01468A4
:101A800000202BE04FF0010C0CFA00F3B1F800C07D
:101A90000CEA03069E4220D183004FF00F0C0CFA93
:101AA00003F7BC4305FA03FC4CEA040491F803C0B5
:101AB000BCF1280F06D14FF0010C0CFA00FCC2F863
:101AC00014C00AE091F803C0BCF1480F05D14FF0F3
:101AD000010C0CFA00FCC2F810C0401C0828D1D33D
:101AE0001460B1F800C0BCF1FF0F34DD5468002071
:101AF0002EE000F1080C4FF0010808FA0CF3B1F8E1
:101B000000C00CEA03069E4221D183004FF00F0C67
:101B10000CFA03F7BC4305FA03FC4CEA040491F801
:101B200003C0BCF1280F05D100F1080C08FA0CF82D
:101B3000C2F8148091F803C0BCF1480F07D100F13E
:101B4000080C4FF0010808FA0CF8C2F81080401C8D
:101B50000828CED35460BDE8F0814FF6FF710180B4
:101B6000022181700421C1707047024600209368F1
:101B70000B4201D0012000E0002070470146886838
:101B800080B2704702460020D3680B4201D001208A
:101B900000E0002070470146C86880B270470161CC
:101BA0007047416170470AB1016100E041617047CF
:101BB000C16070474FF480320A4382618161826163
:101BC00082698269704702460020424B18684FF6CE
:101BD0008073184040EA021008433E4B186070477B
:101BE0003D49C8617047F0B50A4600230024002132
:101BF000002500F00046B6F1004F02D1354EF169E4
:101C000001E0344E7168C0F3034583B200F440161E
:101C1000B6F5401F08D121F070612E4E766826F08F
:101C200070662C4F7E6012E000F48016B6F5801FBF
:101C300006D1032606FA05F4A14341F0706106E0DF
:101C4000460D360103FA06F6B14341F0706122B148
:101C5000460D360103FA06F6314300F00046B6F1B0
:101C6000004F02D11B4EF16101E01A4E7160F0BDD0
:101C700030B500228B071C0F0F2303FA04F2154B1B
:101C800008338C1053F824309343124C08348D10D1
:101C900044F8253023468C1053F824308C07240F49
:101CA00000FA04F423430B4C08348D1044F825301B
:101CB00030BD0A490860704700080140000C01402F
:101CC000001001400014014000180140001C0140B8
:101CD000002001400000014000002042DC002042C2
:101CE00010B50446FB48844209D101218803FFF75F
:101CF000FDFD00214FF48040FFF7F8FD32E0F6488B
:101D0000844209D101214804FFF7FDFD00214FF471
:101D10000030FFF7F8FD25E0F048844209D10121A9
:101D20008804FFF7F0FD00214FF48020FFF7EBFD62
:101D300018E0EB48844209D10121C804FFF7E3FD14
:101D400000214FF40020FFF7DEFD0BE0E548844260
:101D500008D101210805FFF7D6FD00214FF48010BE
:101D6000FFF7D1FD10BD2DE9F04786B005460E46C0
:101D70000024A24600BFA1460027B08900B100BFE1
:101D80002F462C8A4CF6FF700440F08804432C82C6
:101D9000AC894EF6F3100440B0883189084371894C
:101DA00008430443AC81AC8A4FF6FF400440B0893D
:101DB0000443AC8201A8FFF712FDC648874202D156
:101DC000DDF810A001E0DDF80CA0A88910F4004FA8
:101DD00008D00AEBCA0000EB0A1031684900B0FBDA
:101DE000F1F807E00AEBCA0000EB0A10316889003D
:101DF000B0FBF1F86420B8FBF0F004012009642185
:101E000001FB1089A88910F4004F08D0322000EBA4
:101E1000C900B0FBF1F000F00700044308E03220F5
:101E200000EB09106421B0FBF1F000F00F00044357
:101E30002C8106B0BDE8F0874FF4165101600021F7
:101E40008180C18001810C21418100218181704705
:101E500010B502460020108A4FF2FF0318400B888D
:101E60004C8823438C882343CC8823431843108217
:101E700010BD0021018041808180C180704721B167
:101E8000828942F40052828104E082894DF6FF7318
:101E90001A4082817047F0B50346002400260025D1
:101EA0000020A1F510676A3F00D100BF1846C1F3BA
:101EB000421401F01F06012707FA06F5012C01D193
:101EC0000C3004E0022C01D1103000E014301AB1C3
:101ED00007682F43076002E00768AF430760F0BD63
:101EE0001AB1838A0B43838202E0838A8B43838205
:101EF0007047028A4FF6F0731A400282028A0A4340
:101F00000282704782894FF2FF731A408281828970
:101F10000A438281704721B1828942F002028281A4
:101F200004E082894FF6FD731A4082817047028A6D
:101F30004FF6DF731A400282028A0A430282704718
:101F400021B1028A42F48042028204E0028A4BF606
:101F5000FF731A4002827047C1F308028280704703
:101F600001468888C0F308007047818941F001016B
:101F700081817047028BD2B20283028B42EA012236
:101F800002837047028B02F47F420283028B0A4372
:101F90000283704721B1828A42F02002828204E0EB
:101FA000828A4FF6DF731A408282704721B1828A9B
:101FB00042F01002828204E0828A4FF6EF731A40E8
:101FC0008282704721B1828A42F00802828204E054
:101FD000828A4FF6F7731A408282704721B1828954
:101FE00042F40042828103E08289C2F30E028281C0
:101FF000704721B1828A42F40062828204E0828AC0
:102000004FF2FF731A4082827047828A4FF6FB7349
:102010001A408282828A0A438282704721B1828A70
:1020200042F00202828204E0828A4FF6FD731A4077
:102030008282704702460020B1F5007F00D100BFC8
:1020400013880B4201D0012000E00020704701F40A
:102050000072B2F5007F00D100BFCA430280704712
:1020600070B502460024002300250020A1F510666B
:102070006A3E00D100BFC1F3421501F01F030126E3
:1020800006FA03F3012D02D19689334006E0022DB2
:1020900002D1168A334001E0968A33400C120126A1
:1020A00006FA04F41688344013B10CB1012000E0A4
:1020B000002070BD10B500220023A1F510646A3C19
:1020C00000D100BF0A1201249440A3B2DC43048073
:1020D00010BD0000003801400044004000480040AE
:1020E000004C00400050004010B50446F7488442C0
:1020F00009D101214805FFF706FC00214FF400102B
:10210000FFF701FC08E001218805FFF7FCFB002137
:102110004FF48000FFF7F7FB10BD2DE9F04385B0C9
:1021200004460D460026B1460427DFF8A483A6889E
:102130004FF6C07006406846FFF751FBDDF8088097
:10214000E448B8FBF0F01FFA80F946EA0906A680D9
:1021500020884FF6FE71084020800026DE4928685E
:1021600088420CD828684000B8FBF0F087B2042FF2
:1021700000DA04273E4309F10100208427E0E888C3
:10218000A0F53F41FF3906D1286800EB4000B8FBBD
:10219000F0F087B209E0286800EBC00101EB001005
:1021A000B8FBF0F087B247F480473805000D01D145
:1021B00047F0010747F4004006434FF4967009FBCF
:1021C00000F04FF47A7190FBF1F0401C2084A6835C
:1021D000208840F00100208026884FF6F530064028
:1021E000A8886989084306432680A8892989084365
:1021F000208105B0BDE8F08341F288310160002103
:1022000081804BF6FF71C1800021018141814FF433
:1022100080418181704721B1028842F00102028031
:1022200004E002884FF6FE731A400280704721B125
:10223000828842F40062828004E082884FF2FF7359
:102240001A408280704721B1828842F48052828095
:1022500004E082884EF6FF731A408280704721B1F5
:10226000028842F48072028004E002884FF6FF6325
:102270001A400280704721B1028842F40072028045
:1022800004E002884FF6FF531A400280704721B1E4
:10229000028842F48062028004E002884FF6FF3335
:1022A0001A40028070470A46002181894FF6017367
:1022B000194002F0FE0319438181704721B18289E0
:1022C00042F00102828104E082894FF6FE731A40D7
:1022D0008281704721B1028842F04002028004E00E
:1022E00002884FF6BF731A40028070471AB1838884
:1022F0000B43838002E083888B4383807047018295
:1023000070470146088AC0B2704712B141F001011E
:1023100002E04FF6FE7319400182704708B502468D
:1023200000200090009200980844009000980088D7
:1023300008BD21B1028842F40042028003E0028815
:10234000C2F30E0202807047B1F5006F04D102881B
:1023500042F40062028004E002884FF2FF731A40E8
:1023600002807047B1F5005F04D1028842F4005248
:10237000028004E002884DF6FF731A400280704725
:1023800021B1028842F48052028004E002884EF6B5
:10239000FF731A4002807047B1F5006F04D10288C4
:1023A00042F40062028004E002884FF2FF731A4098
:1023B0000280704721B1028842F02002028004E0CE
:1023C00002884FF6DF731A40028070470146088B7F
:1023D0000012704721B1028842F01002028004E02E
:1023E00002884FF6EF731A400280704721B90288C5
:1023F00042F08002028004E002884FF67F731A40A8
:1024000002807047B1F5804F05D0828B4BF6FF7389
:102410001A40828303E0828B42F4804282837047B9
:1024200070B502460024002500230020958A138BF6
:102430001B0445EA030626F07F4404EA01068E42A7
:1024400001D1012000E0002070BD10B50146002040
:10245000002300228B8A0A8B120443EA020424F030
:102460007F4010BD0CB5024600200023019300936D
:1024700000920B0F019321F07F41019B1BB1009B48
:102480001433009303E0090C009B18330093009B66
:102490001B680B4201D0012000E000200CBD00228F
:1024A00021F07F42D3438382704730B5024600203B
:1024B0000023948801F0E06504EA154321F07F4190
:1024C000948A0C420AD04BB1012008E0005400402D
:1024D00000127A0040420F00A0860100002030BDAB
:1024E000002221F07F42D3438382704710B5044617
:1024F000BE48844208D101218014FFF7F7F900217A
:10250000A014FFF7F3F916E0B948844208D101217D
:102510000014FFF7F8F900212014FFF7F4F90AE09E
:10252000B448844207D10121C013FFF7ECF9002120
:10253000E013FFF7E8F910BD10B50022028802F49D
:1025400041520B884C8823438C882343CC882343F7
:102550000C8923434C8923438C892343CC8923430F
:102560001A430280838B4FF2FF74234083830B8ACC
:10257000038210BD2DE9F04F85B005460C464FF0A3
:10258000000902274FF000084FF0010B0026B24669
:10259000A88B4FF240010840A88302202884B5F898
:1025A0001C90A068022801D100BF38E0A08810B9B3
:1025B0004FF0010B01E04FF0020B8D48854200D136
:1025C00000E000BF6846FFF70AF9DDF800A0E088E8
:1025D000B0F5007F0AD14FEA1A2000EB80004000DE
:1025E000A168B0FBF1F0401D86B20BE04FEA4B1042
:1025F000BAFBF0F000EB80004000A168B0FBF1F006
:10260000401D86B20A20B6FBF0F606F00108A6EBE4
:102610000800C0F34F074FF6FF7000EA0828022FAA
:1026200001DBFF2F02DD02274FF00008E08840EABF
:10263000080038432884A088A1890843618808439A
:102640002188084340F4006040EA0909A5F81C907D
:1026500005B0BDE8F08F0021018041808180C180FC
:10266000018141818181C18107210182704700215F
:10267000018041808180C1800221816000218181AF
:10268000704721B1028842F04002028004E00288D3
:102690004FF6BF731A400280704721B1828B42F41B
:1026A0008062828304E0828B4FF6FF331A4082837C
:1026B000704730B5002400230C110125A540ABB2B2
:1026C0001AB185881D43858002E085889D438580F9
:1026D00030BD1AB183880B43838002E083888B432B
:1026E0008380704781817047014688897047A1F5D2
:1026F0007E42FF3A04D0028842F48072028004E0F5
:1027000002884FF6FF631A400280704721B1828829
:1027100042F00402828004E082884FF6FB731A4084
:102720008280704702884FF2FF731A40028002884D
:102730000A4302807047018841F48051018070474C
:1027400021B1028842F40052028004E002884DF672
:10275000FF731A400280704702460020012901D011
:10276000108B00E0908A70470146088A7047B1F5E7
:10277000804F04D1028842F48042028004E0028843
:102780004BF6FF731A4002807047024600201389FF
:102790000B4201D0012000E000207047CA430281B3
:1027A0007047F0B50246002000240023002501F008
:1027B0000F070126BE40B4B20B1101269E40B3B2F2
:1027C000968806EA03051689264202D00DB101203B
:1027D00000E00020F0BD10B5002201F00F0401233D
:1027E000A3409AB2D343038110BD000000300140E2
:1027F00000380040003C004031490143314A11603B
:10280000704770B5002100230F22C4780CB32D4C03
:10281000246804F4E064C4F5E064210AC1F104030F
:10282000CA40447804FA03F1847814402143090132
:10283000254C0678A155047804F01F050124AC400E
:1028400005786D114FF0E02606EB8505C5F80041CF
:1028500009E0047804F01F050124AC401B4D067804
:10286000761145F8264070BD194A0A400243154BBF
:102870001B1F1A60704739B1124A121D12680243B9
:10288000104B1B1D1A6006E00E4A121D126882438F
:102890000C4B1B1D1A607047042808D14FF0E02133
:1028A000096941F004014FF0E022116107E04FF0A7
:1028B000E021096921F004014FF0E0221161704725
:1028C0000000FA050CED00E000E400E080E100E02B
:1028D00080FFFF1F10B50446FE48844208D1012145
:1028E000C014FFF703F80021E014FEF7FFFFC4E077
:1028F000B4F1804F08D101210846FFF704F8002108
:102900000120FFF700F8B8E0F348844208D1012124
:102910000220FEF7F8FF00210220FEF7F4FFACE0F2
:10292000EE48844208D101210420FEF7ECFF00218B
:102930000420FEF7E8FFA0E0E948844208D1012125
:102940000820FEF7E0FF00210820FEF7DCFF94E0FE
:10295000E448844208D101211020FEF7D4FF002171
:102960001020FEF7D0FF88E0DF48844208D1012123
:102970002020FEF7C8FF00212020FEF7C4FF7CE0E6
:10298000DA48844208D101214014FEF7AFFF00214C
:102990006014FEF7ABFF70E0D548844209D10121F5
:1029A000C804FEF7A3FF00214FF40020FEF79EFFAE
:1029B00063E0D048844209D101210805FEF796FF63
:1029C00000214FF48010FEF791FF56E0CA48844280
:1029D00009D101214805FEF789FF00214FF40010BD
:1029E000FEF784FF49E0C548844208D10121402018
:1029F000FEF789FF00214020FEF785FF3DE0C0483B
:102A0000844208D101218020FEF77DFF0021802033
:102A1000FEF779FF31E0BB48844208D101218015DF
:102A2000FEF771FF0021A015FEF76DFF25E0B64807
:102A3000844209D101210804FEF758FF00214FF418
:102A40008030FEF753FF18E0B048844209D10121DD
:102A50004804FEF74BFF00214FF40030FEF746FF1D
:102A60000BE0AB48844208D101218804FEF73EFF09
:102A700000214FF48020FEF739FF10BD00220288AC
:102A8000944B98420ED0994B98420BD0B0F1804FA6
:102A900008D0914B984205D0904B984202D0904B71
:102AA000984204D14FF68F731A404B881A438D4BCE
:102AB000984207D08C4B984204D04FF6FF431A40FF
:102AC000CB881A4302808B8883850B880385814BD2
:102AD00098420BD0854B984208D08B4B984205D03A
:102AE0008A4B984202D08A4B984201D10B7A0386D6
:102AF00001238382704770B5002400220023058CD7
:102B00004FF6FE7635400584028C8388048B4FF6A1
:102B10008F752C40B51E2C400D882C43751E2A4005
:102B20000D892A434D882A436A4DA8420BD06F4D28
:102B3000A84208D0744DA84205D0744DA84202D0D6
:102B4000734DA84213D14FF6F7752A404D892A4399
:102B50004FF6FB752A408D882A434FF6FF652B40C0
:102B60004FF6FF552B408D892B43CD892B43838016
:102B70000483CD888586028470BD70B50024002250
:102B80000023058C4FF6EF7635400584028C838850
:102B9000048B48F6FF752C404FF6FF452C400D88FE
:102BA0004FF6FF7606EA05252C434FF6DF752A40DF
:102BB0000D8906EA05152A434D8806EA05152A43BC
:102BC000444DA84202D0494DA8421DD14FF67F7511
:102BD0002A404D894FF6FF7606EA05152A434FF63F
:102BE000BF752A408D8806EA05152A434FF6FF3542
:102BF0002B404FF2FF752B408D8906EA85052B434C
:102C0000CD8906EA85052B4383800483CD8805871B
:102C1000028470BD70B5002400220023058C4FF69D
:102C2000FF6635400584028C8388848B4FF68F7550
:102C30002C404FF6FC752C400D882C434FF6FF5569
:102C40002A400D894FF6FF7606EA05252A434D886E
:102C500006EA05252A431F4DA84202D0234DA8426B
:102C60001DD14FF2FF752A404D894FF6FF7606EAD7
:102C700005252A434FF6FF352A408D8806EA0525AB
:102C80002A434EF6FF752B404DF6FF752B408D897C
:102C900006EA05152B43CD8906EA05152B438380EB
:102CA0008483CD888587028470BD70B5002200239F
:102CB0000024058C4EF6FF7635400584038C84880D
:102CC000828B48F6FF752A404FF6FF452A400D8853
:102CD00020E00000002C01400004004000080040FB
:102CE000000C00400010004000140040003401407F
:102CF000004C0140005001400054014000180040C9
:102D0000001C004000200040004001400044014001
:102D1000004801404FF6FF7606EA05252A434DF6A6
:102D2000FF752B400D8906EA05352B434D8806EAD1
:102D300005352B43FA4DA84202D0FA4DA84208D1DE
:102D40004BF6FF752C408D894FF6FF7606EA851508
:102D50002C4384808283CD88A0F84050038470BDCA
:102D6000828B4FF2FF331A408283828B4FF6FF73C0
:102D700003EA01231A4382837047F0B50C461546D7
:102D8000002200210026078C4EF6FF7C07EA0C0784
:102D90000784828B018C4FF6FF7707EA043640F6F2
:102DA000FF473A404FF6FF7707EA05273A434FF6C9
:102DB000FF7707EA03373A43D94FB8420ED0D94FCD
:102DC000B8420BD0B0F1804F08D0D74FB84205D0F1
:102DD000D64FB84202D0D64FB84206D14DF6FF7753
:102DE000394046F48057394305E047F6FF573940EC
:102DF00044F48057394382830184F0BD828B4FF6BF
:102E0000F3731A408283828B0A4382837047F0B542
:102E10000C461546002200210026078C4FF6FF6C59
:102E200007EA0C070784828B018C4FF6FF7707EACD
:102E300004264FF60C773A404FF6FF7707EA031760
:102E40002F433A43B64FB8420ED0B64FB8420BD0DC
:102E5000B0F1804F08D0B44FB84205D0B34FB8425C
:102E600002D0B34FB84206D14FF6FF57394046F46F
:102E70008077394305E04FF2FF57394044F48077BB
:102E8000394382830184F0BD028B4FF2FF331A4035
:102E90000283028B4FF6FF7303EA01231A43028376
:102EA0007047F0B50C461546002200210026078C1D
:102EB0004FF6EF7C07EA0C070784028B018C4FF674
:102EC000FF7707EA041640F6FF473A404FF6FF77D0
:102ED00007EA03373A434FF6FF7707EA05273A43F5
:102EE0008F4FB8420ED08F4FB8420BD0B0F1804F09
:102EF00008D08D4FB84205D08C4FB84202D08C4FCD
:102F0000B84206D14FF6DF77394046F01007394313
:102F100005E04FF65F77394044F0100739430283EC
:102F20000184F0BD028B4FF6F3731A400283028BCB
:102F30000A4302837047F0B50C4615460022002173
:102F4000068C4FF6FE773E400684028B018C4FF6CE
:102F50000C7632407E1C06EA03162E433243704E36
:102F6000B0420ED06F4EB0420BD0B0F1804F08D0BF
:102F70006D4EB04205D06D4EB04202D06C4EB042A4
:102F800006D14FF6FD76314044F00106314305E0AD
:102F90004FF6F576314044F0010631430283018457
:102FA000F0BD70B505460C465D4885420ED05D48C3
:102FB00085420BD0B5F1804F08D05B48854205D0E3
:102FC0005A48854202D05A48854200D100E000BFED
:102FD000208850B92389A28861882846FFF7ABFF73
:102FE000E1882846FFF79EFF25E0208804280AD1C3
:102FF0002389A28861882846FFF753FFE188284685
:10300000FFF742FF17E0208808280AD12389A28809
:1030100061882846FFF7FBFEE1882846FFF7EEFEB1
:1030200009E02389A28861882846FFF7A6FEE18887
:103030002846FFF795FE70BD2DE9F04105460C4688
:1030400000260127608808B9022600E00026A08833
:10305000012801D1022700E001272088A0B9238997
:10306000A28861882846FFF766FFE1882846FFF7B7
:1030700059FF23893A4631462846FFF712FFE18877
:103080002846FFF701FF13E02389A28861882846BC
:10309000FFF707FFE1882846FFF7F6FE23893A4647
:1030A00031462846FFF747FFE1882846FFF73AFFF9
:1030B000BDE8F0810A884B881A438B881A43CB8875
:1030C0001A430B891A434B891A438B891A43A0F878
:1030D000442070474FF6FF71818000210180C1803C
:1030E0004180017270470021018041808180C18050
:1030F000018141818181C18170470021018041802E
:10310000012181800021C18001817047002101805F
:1031100041808180C18001814181818170470000AF
:10312000002C014000340140000400400008004031
:10313000000C004021B1028842F00102028004E04C
:1031400002884FF6FE731A400280704731B1B0F822
:10315000442042F40042A0F8442005E0B0F84420A6
:10316000C2F30E02A0F8442070471AB183890B43C2
:10317000838102E083898B4383817047818270471A
:1031800041EA0203A0F8483070471AB183890B4323
:10319000838102E083898B438381704701894FF6E5
:1031A000F8721140018170470A46002101894FF6EB
:1031B0008F73194011430181704730B504460D46A5
:1031C00029462046FFF7F0FF208940F007002081C4
:1031D00030BD2DE9F04104460D4616461F46602DD0
:1031E00006D13B46012231462046FFF75AFE05E054
:1031F0003B46012231462046FFF79DFE29462046E8
:10320000FFF7D2FF208940F007002081BDE8F08160
:1032100030B50C4600210189C9B24FF6FF7505EAA9
:103220000325154325432943018130BD2DE9F04194
:1032300005460E4617469846002443463A46314610
:103240002846FFF7E5FF2C894FF6F870044044F05C
:1032500007044FF68F70044044F070042C81BDE8E1
:10326000F081F0B504460D4616461F463B463246F1
:1032700029462046FFF7CCFF208940F4804020817A
:10328000F0BD0185828270470A46002101884FF611
:103290008F731940114301807047F0B50C461546F5
:1032A0001E460021002200230189028B038C4FF669
:1032B000F877394021434FF6FC473A4040F2011776
:1032C0003A434FF6DD773B404FF6FF7707EA0617A4
:1032D0002F433B43018102830384F0BD0A46002152
:1032E000018B4FF68F7319401143018370470A46D3
:1032F0000021018B48F6FF7319404FF6FF7303EA74
:1033000002231943018370470A460021818B4FF63F
:103310008F7319401143818370470A460021818BC6
:1033200048F6FF7319404FF6FF7303EA022319436F
:103330008183704721B1028842F08002028004E05C
:1033400002884FF67F731A400280704721B182884D
:1033500042F00402828004E082884FF6FB731A4038
:103360008280704721B1828842F00802828004E0A6
:1033700082884FF6F7731A408280704721B18288A5
:1033800042F00102828004E082884FF6FE731A4008
:10339000828070470A460021018B4FF6F77319406F
:1033A0001143018370470A460021018B4FF2FF73DE
:1033B00019404FF6FF7303EA022319430183704754
:1033C0000A460021818B4FF6F77319401143818320
:1033D00070470A460021818B4FF2FF7319404FF668
:1033E000FF7303EA02231943818370470A460021D1
:1033F000018B4FF6FB7319401143018370470A4656
:103400000021018B4FF6FF3319404FF6FF7303EA9B
:1034100002231943018370470A460021818B4FF62E
:10342000FB7319401143818370470A460021818B49
:103430004FF6FF3319404FF6FF7303EA0223194397
:10344000818370470A460021018B4FF67F73194034
:103450001143018370470A460021018BC1F30E011D
:103460004FF6FF7303EA02231943018370470A46AC
:103470000021818B4FF67F73194011438183704780
:103480000A460021818BC1F30E014FF6FF7303EA58
:1034900002231943818370470A460021018C4FF6AD
:1034A000FD7319401143018470470A460021018CC5
:1034B0004FF6F77319401143018470470A46002103
:1034C000018C4FF6DF7319404FF6FF7303EA0213C6
:1034D0001943018470470A460021018C4FF67F731F
:1034E00019404FF6FF7303EA021319430184704732
:1034F0000A460021018C4FF6FF5319404FF6FF7327
:1035000003EA02231943018470470A460021018C13
:103510004FF2FF7319404FF6FF7303EA022319437A
:10352000018470470A460021018C4DF6FF73194053
:103530004FF6FF7303EA023319430184704730B535
:10354000002301248C40A3B2048C9C430484048C8B
:1035500002FA01F5ADB22C43048430BD30B500232E
:1035600004248C40A3B2048C9C430484048C02FA8F
:1035700001F5ADB22C43048430BD70B50346002084
:1035800000241846183001258D40ACB21D8CA5438F
:103590001D8409B1082909D100EB6100056825F0F7
:1035A000700505600568154305600EE00D1FC5F345
:1035B0004E052844056825F4E045056005684FF68A
:1035C000FF7606EA02263543056070BD21B1028808
:1035D00042F00202028004E002884FF6FD731A40B6
:1035E0000280704721B1028842F00402028004E0A8
:1035F00002884FF6FB731A400280704721B182881F
:1036000042F08002828004E082884FF67F731A4085
:103610008280704702884FF6F7731A400280028852
:103620000A430280704782884FF68F731A40828067
:1036300082880A438280704702894FF6F8731A40E5
:10364000028102890A430281704702894FF67F7323
:103650001A40028102890A430281704781847047BF
:1036600081857047818670470187704781877047E1
:10367000A0F84010704702884FF6FF431A400280BE
:1036800002880A43028070470146888E70470146CF
:10369000088F70470146888F70470146B1F8400097
:1036A00070470146888C70470146088D7047024676
:1036B0000020138A0B4201D0012000E00020704757
:1036C000CA430282704730B502460020002300241E
:1036D000158A05EA0103958905EA010413B10CB1C5
:1036E000012000E0002030BDCA4302827047000084
:1036F000002044490860091D0860091D0860091D73
:10370000086041483F4914310860704700213D4935
:103710008279002A3AD00A46126803689A430B4617
:103720001A600A1D126803689A430B1D1A60027919
:1037300011440A6803681A430A60324A0832126860
:1037400003689A432F4B08331A601A1D12680368E6
:103750009A432C4B0C331A604279102A0ED11A1F4F
:10376000126803681A43274B08331A601A1D12683F
:1037700003681A43234B0C331A600DE02149427948
:1037800011440A6803681A430A6005E0027911448B
:103790000A6803689A430A6070470021016001715A
:1037A0000C2141710021817170471649103109685F
:1037B0000143144A10321160704701460020114A3B
:1037C000143212680A4201D0012000E00020704744
:1037D0000C49143108607047014600200022094B53
:1037E0001B6803EA0102074B14331B680B4202D02B
:1037F0000AB1012000E0002070470249143108603E
:103800007047000000040140FFFF0F000CB50020CE
:10381000019000906B48006840F48030694908606E
:1038200000BF6848006800F4003000900198401C18
:103830000190009818B90198B0F5A06FF1D16148D6
:10384000006810F4003F02D00120009001E0002049
:1038500000900098012842D15B48006840F01000B9
:10386000594908600846006820F0030008600846CF
:10387000006840F0020008605248406851494860C2
:103880000846406848600846406840F480604860E8
:103890000846406820F47C1048600846406840F4C0
:1038A000E81048600846006840F08070086000BF7B
:1038B0004448006810F0007FFAD04248406820F089
:1038C0000300404948600846406840F002004860F4
:1038D00000BF3C48406800F00C000828F9D10CBD3E
:1038E00010B5FFF793FF10BD10B53648006840F0E3
:1038F00001003449086008464068344908403149AD
:10390000486008460068324908402E490860084669
:10391000006820F4802008600846406820F4FE001B
:1039200048604FF41F008860FFF7DAFF4FF0006037
:103930002849086010BD10B5002100200022214B4D
:103940005B6803F00C0121B1042906D0082928D1B5
:1039500007E0214B214C236027E01F4B1F4C2360C5
:1039600023E0184B5B6803F47010164B5B6803F49C
:103970008032022303EB904022B9194B4343174C8A
:1039800023600DE00F4B5B6813F4003F04D0144B31
:103990004343124C236003E00F4B43430F4C23601F
:1039A00003E00D4B0D4C236000BF00BF054B5B686F
:1039B000C3F303130B4CE15C084B1B68CB40074C73
:1039C000236010BD00100240002002400000FFF8FC
:1039D000FFFFF6FE08ED00E000127A00680000200C
:1039E00000093D006C000020D2B201E000F8012B7C
:1039F000491EFBD270470022F6E710B513460A466F
:103A000004461946FFF7F0FF204610BDF0B480EAE7
:103A10000102D40F4200B2EB410F02D20246084627
:103A200011464A0042D0C30DDDB2C1F3C752AD1AF0
:103A3000202D35DAC1F3160141F4000204B15242DF
:103A4000C5F1200602FA06F12A411044B3EBD05F1B
:103A500023D0C4B1012DA0EBC35009DCF0BC4FF062
:103A6000004202EAC35200F50000DBB200F026BAC1
:103A7000400000F1807000EBC350A0F1807040EA7C
:103A8000D170490009E0490841EAC071A0EBC35078
:103A900000F50000400800EBC350F0BC00F005BA90
:103AA0006142012202EB4101001BF6E7F0BC7047C6
:103AB00081F00041AAE780F00040A7E780EA010218
:103AC00010B502F00043400026D04A0023D04FEA50
:103AD000106101EB1261C0F35600C2F3560240F4CC
:103AE000000042F40002A0FB0220A1F17F014FEA96
:103AF0000040140401D000F1010050EA124001D44A
:103B00004000491EC2B20C0604EBD010401C400815
:103B1000802A02D003E0002010BD20F0010000291F
:103B200000DA0020184310BD30B480EA010202F030
:103B3000004530F0004221F0004015D0A0B1C0F3A4
:103B4000C753C2F3C754C2F31601C0F31600E41AF8
:103B500041F4000140F400027D34914201D3641C21
:103B600000E04900002C02DA30BC002070474FF41E
:103B700000000023914201D3891A034340084FEA11
:103B80004101F7D151B1914202D14FF0004105E01E
:103B900002D24FF0010101E06FF0010103EBC450CC
:103BA000284430BC00F081B92DE9FE4F81EA0304BE
:103BB00004F0004421F0004100944FF0000B23F08A
:103BC000004350EA010402D052EA030404D1002069
:103BD000014603B0BDE8F08FC3F30A54C1F30A55A0
:103BE0002C44A4F2F3340194A0FB0254C1F313015A
:103BF00041F48011C3F3130343F4801301FB024427
:103C000000FB034E840A970A44EA815447EA83572B
:103C1000A4FB076802958D0A05FB07854FEA932CE4
:103C200004FB0C542705029D4FEA065847EA163755
:103C3000B5EB08056EEB070C870E920E47EA81176D
:103C400042EA8312A7FB0201B6EB0B0164EB00040E
:103C50002B0D43EA0C335E1844EB1C50DA465146F8
:103C6000E7FB0201C5F313044FEA0B3343EA145395
:103C70004FEA0432019C43EA0603A4F10C040294C7
:103C8000009CCDE900B400F053F9A2E72DE9F04D16
:103C900081EA030404F0004B21F0004514464FF084
:103CA000000A23F0004150EA050220D054EA010244
:103CB0001DD0C5F30A570246C5F31303C1F3130021
:103CC000C1F30A5640F4801543F48013A7EB0608AD
:103CD000101BD64608F2FD3873EB050002D308F13D
:103CE000010801E092185B41B8F1000F03DA0020EF
:103CF0000146BDE8F08D00204FF480110646844651
:103D00000EE0171B73EB050705D3121B63EB0503CE
:103D100006434CEA010C49084FEA300092185B4117
:103D200050EA0107EDD152EA030012D082EA040002
:103D300083EA0501084303D100224FF0004308E065
:103D4000101BAB4102D20122002302E06FF00102FE
:103D500053101AEB06004CEB085110EB0A0041EB34
:103D60000B01BDE8F04D00F0D6B8C10F80EAE0705D
:103D70000844CA079623002100F0A0B89623002229
:103D8000114600F09BB80EB5C10F80EAE070084400
:103D9000CA07002140F233438DE80E000A460B4665
:103DA00000F0C6F803B000BD00F0004230F0004063
:103DB0000AD0C10D01F56071C0F3160042EA01514D
:103DC000C20840071143704700200146704701F0C8
:103DD000004330B421F0004150EA010206D00A0D40
:103DE000A2F56072C1F31301002A02DC30BC00208E
:103DF0007047440F44EAC104C100E01830BC00EB36
:103E0000C25000F052B80000002801DBC0F10040B1
:103E1000002901DBC1F100418842704730B50B46F3
:103E2000014600202022012409E021FA02F59D42EA
:103E300005D303FA02F5491B04FA02F52844151EBE
:103E4000A2F10102F1DC30BD2DE9F05F0546002052
:103E500092469B4688460646814640241BE02846FB
:103E600041464746224600F012FA53465A46C01AC7
:103E7000914110D311461846224600F0F9F92D1A47
:103E800067EB01084F4622460120002100F0F0F9BF
:103E900017EB00094E41201EA4F10104DFDC484667
:103EA00031462A464346BDE8F09F0029A8BF704727
:103EB000401C490008BF20F00100704710B4B0FA60
:103EC00080FC00FA0CF050EA010404BF10BC7047FB
:103ED00049B1CCF1200421FA04F411FA0CF118BF15
:103EE000012121430843A3EB0C01CB1D0106000A6D
:103EF000002BBEBF002010BC704700EBC350104425
:103F00000029A4BF10BC7047401C490008BF20F026
:103F1000010010BC704710B5002B08DA401C41F1BD
:103F2000000192185B411A4301D120F0010010BD3D
:103F30002DE9F04D92469B4611B1B1FA81F202E0B3
:103F4000B0FA80F22032904600F092F904460F4613
:103F500040EA0A0041EA0B0153465A46084303D19E
:103F600020463946BDE8F08D114653EA010015D0D0
:103F7000C8F14002504600F08AF905460E46504608
:103F80005946424600F074F9084301D0012000E090
:103F90000020054346EAE0762C4337430A984FEA6F
:103FA0004453A0EB08004FEAD4240A304FF000023B
:103FB00044EA47544FEAD72502D500200146D1E70D
:103FC000010510196941DDE9084500196941BDE89D
:103FD000F04DA0E72DE9FE4F804681EA0300C00FB7
:103FE0000C46009021F0004123F00045B8EB0200A0
:103FF000A94105D24046214690461C460B46024642
:1040000023F00040104304D14046214603B0BDE8F0
:10401000F08F270DC7F30A00C3F30A510290401A2C
:104020000190402866DAC3F3130040F4801B009827
:10403000924620B10023D2EB030A63EB0B0B0198ED
:104040005946C0F14002504600F012F906460D46AE
:1040500050465946019A00F02AF910EB08006141D8
:10406000002487EA115284EAE7731A433BD0009A8E
:104070003AB3019A012A4FEA075210DC001B61EBA8
:1040800002014FF0004202EA0752CDE90042001C53
:1040900041F5801132462B46FFF74AFFB6E7001B79
:1040A00061EB0201001C41F5801300185B412018F0
:1040B000A2F5001747EB030140EAD570B6196D4130
:1040C00011E06D084FEA360645EAC0754FEA07521F
:1040D000001B61EB0201001C41F5801149084FEA09
:1040E00030000019514132462B4603B0BDE8F04F75
:1040F000FFF711BF0098012240000023D0EB02021D
:1041000063EBE073009821464FEAE074B8EB0000DF
:1041100061EB0401E9E783F000435BE781F00041D4
:1041200058E770B521F0004303430CD0C1F30A55A2
:104130000024D5EB040564EB0403D617AD1AB34194
:1041400002DB0020014670BD201841EB025170BD1A
:104150002DE9F04D00231A461B1A8A4103DB00208B
:104160000146BDE8F08DC1F30A52C1F3130141F4D9
:1041700080154FF0000BD10702D100186D41521E7F
:104180000027044640F2FF11384601EB620A3E4622
:104190008046024600204FF4801100F078F8C219E2
:1041A0007141BB1846EB0100B4EB030C75EB000C3E
:1041B00004D3E41A65EB000517460E46241908F1EE
:1041C00001006D4180463428E3DDF91946EB060015
:1041D000091BA84103D24FF0FF32134601E0002231
:1041E00013461BEB070046EB0A51BDE8F04DFFF705
:1041F00092BEC1F30A52C1F3130140F2FF3341F4FE
:1042000080119A4202DA00200146704740F233439F
:104210009A42A2F2334202DC524200F038B800F077
:1042200027B8000030B5002904DB4FF000444042BD
:1042300064EB0101002B04DB4FF00044524264EBBD
:104240000303994208BF904230BD0000064C074D61
:1042500006E0E06840F0010394E807009847103456
:10426000AC42F6D3FBF768FF4051000860510008EC
:10427000202A04DB203A00FA02F100207047914026
:10428000C2F1200320FA03F3194390407047202A1B
:1042900004DB203A21FA02F00021704721FA02F3F0
:1042A000D040C2F120029140084319467047202AAD
:1042B00006DBCB17203A41FA02F043EAE07306E04E
:1042C00041FA02F3D040C2F120029140084319465E
:1042D000704700000FB4054B10B503A9044A0298BB
:1042E00000F03EF910BC5DF814FB00002F0A000836
:1042F00004000020490050EAC12018BF04204A0DE4
:1043000018BF40F0010040F2FF72B2EB515F08BFEE
:1043100040F00200012808BF052070472DE9F04158
:104320004F1E00EBC7010446D1E9000115461E46A9
:1043300037F006020DD02A463346FFF735FC7F1EC4
:1043400004EBC703D3E90023FFF744FE37F006026E
:10435000F1D1022F25D0042F13D0062F18BFBDE8AE
:10436000F0812A463346FFF71FFCD4E90A23FFF702
:1043700031FE2A463346FFF717FCD4E90823FFF73E
:1043800029FE2A463346FFF70FFCD4E90623FFF740
:1043900021FE2A463346FFF707FCD4E90423FFF742
:1043A00019FE2A463346FFF7FFFBD4E90223FFF745
:1043B00011FE2A463346FFF7F7FBD4E90023BDE898
:1043C000F041FFF707BE0000024A00201107FFF787
:1043D000A8BE000001FDFFFF02E008C8121F08C1CF
:1043E000002AFAD170477047002001E001C1121F76
:1043F000002AFBD1704700000149086070470000A7
:104400007C0000202DE9FF5FDDE90220010DDDF8D1
:1044100038B0024310D10F9801244CA2012808D0D3
:10442000002100980F9BC0E90021C0E90243BDE8CC
:10443000FF9F6FEA0B01F4E7A1F2FF3144F6105041
:1044400041430D140F9801280ED0A5EB0B00401C22
:104450004FF000043E4EDFF8FC90B0F1000AA04699
:1044600005DACAF1000717E0CBF10000F0E70746D4
:1044700012E0F80707D02246334640464946FFF788
:1044800093FB804689462246334610461946FFF77D
:104490008BFB04460E467F10002FEAD1DDE90201B6
:1044A000BAF1000F42464B4602DAFFF77DFB01E00E
:1044B000FFF7ECFB04460E460022274BFFF7B2FE47
:1044C00003D84FF0FF30014607E00022234B20467F
:1044D0003146FFF77FFDFFF78CFE102409E0002C2A
:1044E0000ADB0A220023FFF7AFFC019B30321A558A
:1044F000641E50EA0102F2D1641C019AC4F1110356
:1045000014440F9A012A09D00122084301D15B45C6
:104510000FDD4FF0000205F101050DE0084303D166
:10452000A3EB0B056D1E09E000204FF0110B0F905F
:1045300088E701DA00226D1E002A83D000980F99C7
:10454000C0E90231C0E9004571E700003000000019
:10455000000024400000F03F0000F0430000E03F76
:104560002DE9FF4F95B09B4689460646002512E28D
:10457000252878D10024761CF94A27460121059484
:104580003378203B01FA03F0104202D00443761C3A
:10459000F6E730782A2811D06FF02F033078A0F199
:1045A0003002092A16D8059A44F0020402EB82026E
:1045B00003EB42021044761C0590EFE759F8042BF8
:1045C0000592002A03DA504244F40054059044F066
:1045D0000204761C30782E2816D116F8010F44F00C
:1045E00004042A280DD06FF02F023078A0F1300398
:1045F000092B09D807EB870302EB4303C718761C86
:10460000F3E759F8047B761C30786C280FD006DC71
:104610004C2817D068280DD06A2814D104E07428DB
:1046200010D07A280FD10DE044F400140AE044F4CD
:10463000801401E044F440147278824202D1761C66
:1046400004F58014761C307866280BD013DC5828CB
:1046500077D009DC002875D04528F6D04628F4D05C
:1046600047281AD19FE118E0632835D0642879D013
:10467000652812D197E1702873D008DC6728F1D043
:1046800069286FD06E280DD06F2806D1B5E0732849
:104690002CD0752875D0782874D05A461799904731
:1046A0006D1C76E1C4F30250022809D003280DD016
:1046B000D9F8001004280DD00D6009F1040968E153
:1046C000D9F80010EA17C1E90052F6E7D9F800104E
:1046D0000D80F2E70D70F0E719F8041B8DF800105B
:1046E00000208DF80100EA46012003E059F804ABF0
:1046F0004FF0FF3061074FF0000102D40DE008F1E8
:1047000001018846B9420FDA8045F8DB1AF8081033
:104710000029F4D108E008F1010188468142FADB62
:104720001AF808100029F6D105985B46A0EB080797
:1047300021463846179A00F09EFA284400EB0805F7
:1047400007E04DE02BE10DE01AF8010B5A461799EE
:104750009047B8F10108F7D25B4621463846179AD0
:1047600014E142E00A220092C4F302524FF0000A20
:10477000022A08D059F804CB032A4FEAEC710AD078
:104780000DE029E02AE009F1070121F00702F2E833
:1047900002C1914609E00FFA8CFC4FEAEC71042A41
:1047A00003D14FFA8CFC4FEAEC71002907DA0A4674
:1047B0000021DCF1000C61EB02012D2202E0220558
:1047C00004D52B228DF80420012203E0E20701D05A
:1047D0002022F7E7904653E00A2102E010220DE084
:1047E00010214FF0000A00910BE010224FF0000A58
:1047F00044F004040827009203E008224FF0000A66
:104800000092C4F30252022A05D059F804CB0021C9
:10481000032A08D009E009F1070121F00702F2E8B4
:1048200002C1914605E01FFA8CFC042A01D10CF06C
:10483000FF0C4FF00008220722D5702827D0009BDC
:1048400083F0100353EA0A0309D15CEA010206D09F
:1048500030228DF804208DF8050002229046009B3E
:1048600083F0080353EA0A030AD15CEA010201D18A
:10487000620705D530228DF804204FF001087F1E15
:10488000582809D037A003900EA8029013E04022C8
:104890008DF804200122E1E737A0F4E75346604693
:1048A000009AFFF7D1FA84460398825C0298A0F13F
:1048B0000100029002705CEA0100EFD1029806A9A3
:1048C000A1EB000000F1200A600702D524F4803437
:1048D00000E00127574502DDA7EB0A0000E00020B9
:1048E00000EB0A01009005984144A0EB01000590FF
:1048F000E00306D45B462146179A059800F0BBF901
:104900000544002706E001A85A46C05D1799904764
:104910006D1C7F1C4745F6DBE0030CD55B4621464A
:10492000179A059800F0A7F9054404E030205A468C
:10493000179990476D1C0099481E00900029F5DCDE
:1049400008E0029802995A460078491C029117998A
:1049500090476D1CBAF10001AAF1010AF1DC6BE18C
:104960000928010030313233343536373839616245
:104970006364656600000000303132333435363709
:1049800038394142434445460000000000F060F9D8
:10499000054406F10106307800287FF4E9AD19B02E
:1049A0002846BDE8F08F620700D4062709F1070208
:1049B00022F0070CFCE80223E14603F000485FEA1E
:1049C000080C02D00FF27C2C0DE05FEA045C02D5EB
:1049D0000FF2742C07E05FEAC47C02D00FF26C2C5B
:1049E00001E0AFF2700C4FF0FF3823F00043CDF838
:1049F00050C065280CD006DC452809D046281DD0BB
:104A000047283ED13EE0662818D0672839D139E0E2
:104A10000021112F01DB112000E0781CCDE90001FD
:104A200006A90EA8FFF7EEFCDDE90F010E9A03912F
:104A30000021009207F1010A04914EE04FF000407E
:104A40000097CDE9011006A90EA8FFF7DBFCDDE910
:104A50000F0203920E9B11990022DDF80CA0009327
:104A6000049219B907F1010100EB010AB7EB0A0042
:104A700004D4C0F1FF3007F1010A0490AAEB07004B
:104A8000019046E0012F00DA01270021112F01DDFE
:104A9000112000E03846CDE9000106A90EA8FFF775
:104AA000B1FCDDE90F010E9A0391002104910092FF
:104AB000BA4621070CD40399514500DA8A46BAF167
:104AC000010F05DD009AAAF10101515C302908D0DF
:104AD000B84202DA10F1040F06DA0121CDE9011023
:104AE00017E0AAF10101E9E7002805DC0499014477
:104AF0000491AAEB000102E0411C514500DD8A4609
:104B00000499A0EB010000F1010001904FF000407A
:104B10000290200704D40198504501DBCDF80480B1
:104B200000208DF84F0002980DF14F07B0F1004FB3
:104B300025D02B200E9002984FF0020800280CDAA6
:104B4000404202902D200E9007E00A210298FFF7C4
:104B500065F93031029007F8011DB8F10001A8F1A4
:104B60000108F2DC02980028EFD1791E0E98087037
:104B7000307800F0200040F0450007F8020D12A840
:104B8000A0EB070000F107081498007800B101209D
:104B900000EB0A01019801EBE07105984144A0EB9C
:104BA0000100A0F101000590E00306D45B46214618
:104BB000179A059800F05FF805441498007820B122
:104BC0005A461799904705F10105E00323D55B4646
:104BD0002146179A059800F04EF805441BE004980A
:104BE000002807DBDDE90301884203DD0098405C13
:104BF000179901E0179930205A46904704986D1C88
:104C0000401C04900198401E019004D12E205A4669
:104C1000179990476D1CBAF10001AAF1010ADEDC78
:104C200005E017F8010B5A46179990476D1CB8F12B
:104C30000001A8F10108F4DC5B462146179A0598AB
:104C4000A4E600002D0000002B0000002000000062
:104C50002DE9F041044600251E461746880405D478
:104C600006E039462020B04705F10105641EF8D55D
:104C70002846BDE8F0812DE9F041044600251E4696
:104C80009046C80301D5302700E02027880405D5C9
:104C900006E041463846B04705F10105641EF8D5E7
:104CA0002846BDE8F08100002DE9F84F04460D4686
:104CB00021F0004000917449884213DB7349884217
:104CC00001DC08D13CB120462946BDE8F84F4FF041
:104CD0000102FFF726BA6E48002DCCBF6D496E4920
:104CE000BDE8F88F6D49884211DA6D498842A8BF46
:104CF0004FF0FF366DDA20462946FFF7FBFA04280D
:104D000008BFFFF761FB20462946BDE8F88F6549DB
:104D1000654F25F00045884233DA6449884219DA44
:104D2000002632464FF0804320462946FFF752F9CD
:104D300080468A46012220462946FFF7F2F90022E2
:104D40003B46FFF7E8F942465346FEF79FFF04460D
:104D50000D463EE001260022BA463B462046294643
:104D6000FFF738F980460F46002253462046294671
:104D7000FFF7D1F942463B46FEF788FF04460D4651
:104D800027E04B4988421BDADFF8288102260022FF
:104D9000434620462946FEF707FF00223B46FFF721
:104DA00019F907468A460022434620462946FFF75E
:104DB000B2F93A465346FEF769FF04460D4608E04D
:104DC000032622462B4600203B49FEF75FFF0446A0
:104DD0000D4622462B4610461946FEF7E5FE8B4649
:104DE000824602460B46FEF7DFFE07460246334880
:104DF00088460B4606217844FFF790FA52465B46F8
:104E0000FEF7D2FE82462E488B463A46434605219F
:104E10007844FFF783FA3A464346FEF7C5FE02465A
:104E20000B46002E504659460CDAFFF7D3F82246BF
:104E30002B46FEF7B9FE01B022462B46BDE8F04FE7
:104E4000FFF76CB9FFF7C6F822462B46FEF7ACFE1B
:104E50001C4A7A4402EBC603D3E90023FFF75BF94F
:104E600022462B46FFF757F9174A7A4402EBC6034E
:104E7000D3E90023FFF752F9009A002AB8BF81F066
:104E80000041BDE8F88F0000000010440000F07FF2
:104E9000182D4454FB21F93FFB21F9BF0000DC3FF2
:104EA0000000203E0000F33F0000F03F0000E63F1E
:104EB000008003400000F83F0000F0BF0E03000038
:104EC000CC0200006A020000320200002DE9F04D21
:104ED0009446CCF1000423F000464CEA0404524FFF
:104EE00046EAD4749A46884621F00042BC4206D86D
:104EF000454240EA050442EAD474BC4204D9BDE804
:104F0000F04D6246FFF766B8AAF14055A5F17F65FE
:104F100055EA0C040BD0022404EAAA74434DDFF8CE
:104F200010E144EAD87452EA000B04D00CE0BDE86A
:104F3000F04DFFF7B9BE002C14BF012CBDE8F08D79
:104F4000022C30D0032C32D056EA0C0B0AD0BE42D1
:104F500020D1BA4209D126F0804622F08042334661
:104F6000114617E000291ADB25E0DFF8C8B0FB4442
:104F7000002C04BFDBE90001BDE8F08D012C02BF6D
:104F8000DBE9000181F00041BDE8F08D022C0AD080
:104F9000032C0CD0BA4212D1B8F1000F0BDA23481F
:104FA0002549BDE8F08D28462449BDE8F08D284606
:104FB0007146BDE8F08D1D482149BDE8F08D921B7A
:104FC00012153C2AC4BF19481D490EDCBAF1000F66
:104FD000BEBF12F13C0F0020014606DB6246FEF721
:104FE00055FE21F00041FFF75FFE002C08BFBDE831
:104FF000F08D012C04BF81F00041BDE8F08D114A15
:10500000114B022C07D0FFF786F82A46BDE8F04D79
:105010000A4BFFF780B8FFF77EF82A46BDE8F04D4F
:10502000064BFFF77BB800000000F07F182D4454BA
:10503000FB2109C0C6010000FB21F9BFFB2109408B
:10504000FB21F93F075C143326A6A13C2DE9F04172
:1050500006460F46FFF77CF804000D4618BF0120F6
:10506000284320F00040C0F17F6000F1E040C00F15
:105070000FD0002E14BF01200020384320F0004044
:10508000C0F17F6000F1E040C00F04BF0120FFF7D6
:10509000B3F920462946BDE8F08100000000000079
:1050A0004FBB610567ACDD3F182D4454FB21E93F40
:1050B0009BF681D20B73EF3F182D4454FB21F93F2F
:1050C000E2652F227F2B7A3C075C143326A6813CB5
:1050D000BDCBF07A8807703C075C143326A6913C60
:1050E000C4EB98999999C9BF711623FEC671BCBFCC
:1050F0006D9A74AFF2B0B3BF9AFDDE522DDEADBF34
:105100002F6C6A2C44B4A2BF0D5555555555D53F4B
:10511000FF8300922449C23F6E204CC5CD45B73F66
:10512000513DD0A0660DB13FEB0D76244B7BA93FDE
:1051300011DA22E33AAD903F0000000000000000C9
:10514000605100080000002080000000D8430008E3
:10515000E05100088000002010040000E84300082F
:1051600000000000000000000000000034431010A8
:105170000134431010010000DC05DC05DC05DC0512
:10518000DC05DC05DC05DC054000000080000000DB
:10519000000100000002000040000000800000004C
:1051A00000010000000200000000000000000000FC
:1051B00000000000000000000102030401020304DB
:1051C000060708090204060800A24A0400000000BD
:1051D00000000000010203040607080900000000A7
:0400000508000131BD
:00000001FF
