:020000040800F2
:100000006805002045010008550900085709000847
:100010005B0900085F090008630900080000000090
:100020000000000000000000000000006709000858
:1000300069090008000000006B0900086D0900084C
:100040005F0100085F0100085F0100085F01000810
:100050005F0100085F0100085F0100085F01000800
:100060005F0100085F0100085F0100085F010008F0
:100070005F0100085F0100085F0100085F010008E0
:100080005F0100085F0100085F0100085F010008D0
:100090005F0100085F0100085F01000835110008DA
:1000A0005F0100085F0100085F0100085F010008B0
:1000B0005F0100085F0100085F0100085F010008A0
:1000C0005F0100085F0100085F0100085F01000890
:1000D0005F010008810900085F0100085F01000856
:1000E0005F0100085F0100085F0100085F01000870
:1000F0005F0100085F0100085F0100085F01000860
:100100005F010008572B00085F0100085F0100082D
:100110005F0100085F0100085F0100085F0100083F
:100120005F0100085F0100085F0100085F0100082F
:10013000DFF80CD005F05CFD00480047D101000855
:10014000680500200648804706480047FEE7FEE7AE
:10015000FEE7FEE7FEE7FEE7FEE7FEE7FEE7FEE777
:10016000AD5200083101000801B502E00098401EC0
:10017000009000980028F9D108BD70B503461A46D2
:10018000002008E0145C4D1E2D1A555D15544D1EBF
:100190002D1A5455401C01EBD176B0EB660FF1DB04
:1001A00070BD38B504460D4602236A4629462046EE
:1001B00000F0E3FC02216846FFF7DFFFBDF9000015
:1001C00038BD0146002901DD084670474842FCE77A
:1001D000B0B000202E9000BF00BF202126A805F05F
:1001E000ECF80020259000BF00BF00BF00BF00BF9B
:1001F0004FF4347024902498B0F1807F00D321E034
:100200002498401E4FF0E0214861481722900F20AB
:1002100023902298002808DA23980001FE49229AA8
:1002200002F00F02121F885404E023980001FB49DA
:10023000229A885400BF00204FF0E02188610720F7
:10024000086100BF00F0EEFB00F08CFD00F070FED6
:100250002E90F3A02E9905F00FFD012001F01FF95B
:10026000302000F043FC00BF002024902390229017
:100270002190209000BF00BF1F901E901D901C90E9
:100280001B901A9019901890179026A81690E9A024
:1002900005F0F2FC4FF47A7000F0AEFB00226B2107
:1002A000D02000F0DAFC07221921D02000F0D5FC84
:1002B00006221A21D02000F0D0FC18221B21D020C9
:1002C00000F0CBFC08221C21D02000F0C6FC01234A
:1002D00024AA7521D02000F050FC9DF89010D9A0E0
:1002E00005F0CAFC02223721D02000F0B6FC42F211
:1002F000107000F081FB002202213C2000F0ADFCD8
:1003000000202E9096E00E23169A921D3B21D020BD
:1003100000F033FC062303213C20169A00F02DFC4C
:1003200002211698FFF729FF02211698001DFFF7FA
:1003300024FF02211698801CFFF71FFF0221169848
:100340000E30FFF71AFF022116981030FFF715FF45
:10035000022116981230FFF710FF02211698801D17
:10036000FFF70BFF022116980830FFF706FF022166
:1003700016980A30FFF701FF1698B0F90E00149096
:1003800005F0D5F915901F9905F022F81F901698E1
:10039000B0F91000149005F0CAF915901E9905F0F7
:1003A00017F81E901698B0F91200149005F0BFF9D6
:1003B00015901D9905F00CF81D901698B0F90600DF
:1003C00040431699B1F9082002FB02011698B0F9D2
:1003D0000A2002FB0210149005F0A9F915901C994F
:1003E00004F0F6FF1C901698B0F90600149005F082
:1003F0009EF915901B9904F0EBFF1B901698B0F92D
:100400000800149005F093F915901A9904F0E0FF94
:100410001A901698B0F90A00149005F088F9159012
:10042000199904F0D5FF1990642000F0E5FA2E9890
:10043000401C2E902E98B0F57A7FFFF664AF8A4963
:100440001F9805F053F81F9087491E9805F04EF845
:100450001E9085491D9805F049F81D9000BF00BF0A
:1004600000BF81491C9805F041F81C901C9805F0CC
:1004700078F9CDE9120106F0FBF9CDE9140105F098
:1004800083F91C901698B0F90A0040431699B1F907
:10049000082002FB0200079005F052F9CDE908019F
:1004A00006F0E6F9CDE90C011698B0F906000890BF
:1004B00005F03DF980F00040099005F052F9CDE9D2
:1004C0000A01DDE90C2305F0C3F8CDE90E0106F0C1
:1004D000BDF881F000410022644BCDE9100105F028
:1004E00045F8634A634BCDE9120105F0B1F8CDE957
:1004F000140105F049F923901698B0F90A000A9002
:1005000005F015F90C901698B0F908000A9005F05E
:100510000EF980F000400B900C9904F0E7FF0D906D
:1005200005F01FF9CDE90E0106F090F881F00041C9
:1005300000224E4BCDE9100105F018F84C4A4D4B06
:10054000CDE9120105F084F8CDE9140105F01CF99C
:1005500021904949239804F093FF4849159004F0ED
:10056000C5FF23904449219804F08AFF4349159020
:1005700004F0BCFF2190219818902398179023989D
:1005800005F0EFF8CDE91401219805F0EAF8CDE97E
:1005900012011C9805F0E5F8CDE910011D9805F051
:1005A000E0F8CDE90E011E9805F0DBF8CDE90C016D
:1005B0001F9805F0D6F8CDE90A01DDE91401CDE96F
:1005C0000801DDE91201CDE90601DDE91001CDE9FF
:1005D0000401DDE90E01CDE90201DDE90C01CDE9FF
:1005E00000012748DDE90A2305F046FB00202E9094
:1005F00091E100F0C1F913904FF0FF3012906FF0CD
:100600008D0011906FF02900109010211D4802F00C
:1006100096FD0E23169A37E018ED00E000E400E0A6
:100620004E52465F436865636B2829203D20256450
:10063000000000007374617274204D5055363035DF
:10064000300D0A004D50553630353020696E6974D2
:1006500069616C697A65642C2057484F5F414D5F32
:10066000493D25780D0A000000007A44008066406C
:10067000F1D4C853FB21094000B88846000010415E
:10068000C068000800080140921D3B21D02000F006
:1006900074FA062303213C20169A00F06EFA022118
:1006A0001698FFF76AFD02211698001DFFF765FDF9
:1006B00002211698801CFFF760FD022116980E306B
:1006C000FFF75BFD022116981030FFF756FD02215F
:1006D00016981230FFF751FD02211698801DFFF782
:1006E0004CFD022116980830FFF747FD02211698AD
:1006F0000A30FFF742FD1698B0F910000D9005F092
:1007000016F80E901E9904F0B5FE0F90239904F090
:100710005FFE23901698B0F910000D9005F007F8D1
:100720000E901E9904F0A6FE0F90229904F050FE40
:1007300022901698B0F90E000D9004F0F8FF0E907C
:100740001F9904F097FE0F90219904F041FE21902B
:100750001698B0F90E000D9004F0E9FF0E901F9965
:1007600004F088FE0F90209904F032FE2090169835
:10077000B0F90A0040431699B1F9082002FB0200C3
:10078000019004F0DDFFCDE9020106F071F8CDE93A
:1007900006011698B0F90600029004F0C8FF80F038
:1007A0000040039004F0DDFFCDE90401DDE90623FC
:1007B00004F04EFFCDE9080105F048FF81F000414B
:1007C0000022554BCDE90A0104F0D0FE534A544BA8
:1007D000CDE90C0104F03CFFCDE90E0104F0D4FF9B
:1007E00014901698B0F90A00049004F0A0FF069047
:1007F0001698B0F90800049004F099FF80F00040CA
:100800000590069904F072FE079004F0AAFFCDE966
:10081000080105F01BFF81F0004100223E4BCDE9AD
:100820000A0104F0A3FE3D4A3D4BCDE90C0104F062
:100830000FFFCDE90E0104F0A7FF15903948149978
:1008400004F01EFE38490C9004F01AFE37490D9052
:1008500004F04CFE0F903648239904F011FE0E90E0
:100860000F9904F0B5FD23902E48159904F008FE69
:100870002D490C9004F004FE2C490D9004F036FE36
:100880000F902B48219904F0FBFD0E900F9904F076
:100890009FFD21901021274802F04FFC2E99481C03
:1008A0002E900A2091FBF0F200FB121050BB17991A
:1008B000239804F0DFFD1D49099004F0E1FD1A4979
:1008C0000A9004F013FE0B9004F04BFFCDE90E01EB
:1008D0001899219804F0CEFD1449099004F0D0FD38
:1008E00011490A9004F002FE0B9004F03AFFCDE9A2
:1008F0000C01DDE90E01CDE900010FA0DDE90C23BB
:1009000005F0BAF900BF00F037F81399401AB0F5B6
:10091000487FF8D300BF6CE600806640F1D4C8532E
:10092000FB21094000D7A33B00B8884600001041D6
:1009300052B87E3F000801400D64656C74612072FE
:100940006F6C6C2C70697463683D25662C2025667D
:1009500000000000704700BFFEE700BFFEE700BFD9
:10096000FEE700BFFEE77047704770472B480068FE
:10097000401C2A4908607047284800687047704743
:1009800070B5002540F22551254802F021FE0128CE
:100990000BD1234802F0B2FD0446012500BF4021DF
:1009A0001F4802F015FE0028F9D040F225511C48DE
:1009B00002F024FE20B140F22551194802F048FE11
:1009C0001DB1A1B2164802F095FD70BD00B50246FA
:1009D0000B46D1188A4205D800BFFFF7CDFF8842E9
:1009E000FBD308E000BFFFF7C7FF9042FBD8FFF73B
:1009F000C3FF8842F7D300BD30B50446FFF7BCFF04
:100A000005462146FFF7E2FF30BD0246914201D97B
:100A1000881A7047C2F1FF300844FAE7000000204E
:100A20000038014000B587B0012144F2040002F013
:100A300011FA4FF40070ADF8180018208DF81B0063
:100A400003208DF81A0006A9254802F0CBFA4FF4CE
:100A50008060ADF8180004208DF81B0006A920481E
:100A600002F0C0FA4FF4E06003F0BCFA25208DF8E4
:100A7000040000208DF8060001208DF8070001A871
:100A800003F0B5FA4FF4E13002900020ADF80C000D
:100A9000ADF80E00ADF81000ADF814000C20ADF864
:100AA000120002A90F4802F02CFC01210D4802F0AF
:100AB000B4FC012240F225510A4802F0BAFC07B00A
:100AC00000BD094A126812F0807F08D000BF4FF0C5
:100AD00060421268002AFAD04FF0604318707047E5
:100AE0000008014000380140FCED00E010B586B080
:100AF00004460121880502F0BAF90121082002F01C
:100B0000A9F94FF44060ADF8040003208DF8060009
:100B10001C208DF8070001A98D4802F063FA8D486A
:100B200002F0D8FE0020ADF80C004BF6FF70ADF8D7
:100B30000E00ADF810404FF48060ADF812000001D7
:100B4000ADF81400844802900121824802F059FF58
:100B500002A9804802F0D7FE01217E4802F08DFFF5
:100B60004FF480617A4802F0EAFA4FF40061784865
:100B700002F0E5FA002006B010BD2DE9F04106466E
:100B8000884617461D4600BF4FF40031714803F0F8
:100B90005FF80028F8D101216E4802F06EFF0121B4
:100BA0006C4802F052FF00BF6C496A4803F02EF80F
:100BB0000028F9D000223146664802F09CFF00BFB1
:100BC0006749644803F022F80028F9D0414661489B
:100BD00002F08BFF00BF6249891C5E4803F016F8E3
:100BE0000028F8D001215B4802F02FFF00BF5B49CD
:100BF000584803F00BF80028F9D001223146554837
:100C000002F079FF00BF5549491C524802F0FEFF2F
:100C10000028F8D0002417E0681EA04207D1002168
:100C20004C4802F02AFF01214A4802F01AFF00BF97
:100C30004A493F31474802F0E9FF0028F8D04548CB
:100C400002F055FF3855641CAC42E5DB01214148F8
:100C500002F013FF0020BDE8F08170B504460E4697
:100C6000154600BF4FF400313A4802F0F1FF00286A
:100C7000F8D10121374802F0E8FE00BF3749354876
:100C800002F0C4FF0028F9D000222146314802F0CA
:100C900032FF00BF32492F4802F0B8FF0028F9D0D8
:100CA00031462C4802F021FF00BF2D49891C2948FC
:100CB00002F0ACFF0028F8D02946264802F015FFC4
:100CC00000BF2749891C234802F0A0FF0028F8D064
:100CD0000121204802F0C5FE002070BD2DE9F04141
:100CE00005460F46164641F2883400E0641E4FF474
:100CF0000031184802F0ACFF08B1002CF6DC002CE3
:100D000003DC4FF0FF30BDE8F0810121114802F013
:100D10009CFE6420FFF770FE002229460D4802F079
:100D2000EAFE6420FFF768FE39460A4802F0DDFE5D
:100D30006420FFF761FE3146064802F0D6FE6420CB
:100D4000FFF75AFE0121034802F08BFE0020DAE78C
:100D5000000C014000580040A08601000100030083
:100D60008200070000B587B00121452002F072F82B
:100D70000121080302F06EF8E020ADF80400012024
:100D80008DF8060018208DF8070001A9E34802F04D
:100D900029F90620ADF8040001208DF80600102086
:100DA0008DF8070001A9DD4802F01CF90820ADF814
:100DB000040001208DF8060048208DF8070001A9E5
:100DC000D64802F00FF90221D44802F0B6F900200B
:100DD000ADF808004FF48270ADF80A000020ADF8BD
:100DE0000C00ADF80E00ADF810004FF40070ADF837
:100DF00012001020ADF814000020ADF816000720F6
:100E0000ADF8180002A9C64802F08CFF0121C448C1
:100E100003F02DF807B000BD10B5044600BF022155
:100E2000BF4803F0A8F80028F9D02146BC4803F0D9
:100E30004FF800BF0121BA4803F09DF80028F9D00F
:100E4000B74803F047F8C0B210BD2DE9F04107469E
:100E50000C4615460421B14802F071F90221AF4851
:100E600002F06DF93846FFF7D7FF8046002605E00F
:100E700014F8010BFFF7D0FF701CC6B2AE42F7DBCF
:100E80000221A64802F059F94046BDE8F0812DE95B
:100E9000F04107460D4616460421A04802F04FF9DE
:100EA00002219E4802F04BF93846FFF7B5FF804615
:100EB000002405E0FF20FFF7AFFF2855601CC4B2F7
:100EC000B442F7DB0221954802F037F94046BDE80D
:100ED000F08170B505460C460421904802F02FF9C8
:100EE00002218E4802F02BF92846FFF795FF0646AF
:100EF0002046FFF791FF0221884802F01EF9304694
:100F000070BD70B504460421844802F018F902212E
:100F1000824802F014F92046FFF77EFFFF20FFF71A
:100F20007BFF054602217D4802F007F9284670BD87
:100F30001FB57CA103C9CDE90201002000900190FA
:100F4000052202A93020FFF780FF05226946102004
:100F5000FFF79DFF002406E01DF80400C22800D022
:100F600003E0601CC4B2052CF6DB00BF052C02D1E7
:100F7000002004B010BD0120FBE710B50421674834
:100F800002F0DDF80D212020FFF7A3FF04216348C4
:100F900002F0D3F80120FFF72FFD10BD10B5FFF7C9
:100FA000ECFF04215D4802F0CAF805225F492A20BF
:100FB000FFF74BFF01212120FFF78BFF01212220AA
:100FC000FFF787FF28212520FFF783FF202131200D
:100FD000FFF77FFF27212620FFF77BFF0F2120202F
:100FE000FFF777FF04214D4802F0A7F80120FFF733
:100FF00003FD10BD10B5FFF7C0FF0421474802F004
:101000009EF805224A493020FFF71FFF0522474975
:101010002A20FFF71AFF01212120FFF75AFF0121A3
:101020002220FFF756FF1A212420FFF752FF282124
:101030002520FFF74EFF27212620FFF74AFF0E212C
:101040002020FFF746FF0421344802F076F8012003
:10105000FFF7D2FC10BD70B5054604212F4802F001
:101060006EF820222946A020FFF7EFFE04212B482E
:1010700002F063F800BF0821284802F044F8002875
:10108000F9D10720FFF73DFF044621462720FFF74F
:1010900020FFFF21E120FFF71CFF14F0100F01D00B
:1010A000102070BD14F0200F01D02020F9E700209F
:1010B000F7E770B5054600260421184802F03DF810
:1010C00000BF0821154802F01EF828B13046761CF2
:1010D00041F288318842F4DBA6F59850883800D177
:1010E00070BD04210D4802F02AF80720FFF709FF20
:1010F000044621462720FFF7ECFE14F0400F0AD0EB
:10110000202229466120FFF7C2FEFF21E220FFF7DF
:10111000E0FE4020E4E70020E2E700000008014094
:1011200000300140C2C2C2C2C20000001100002053
:101130000C00002070B54FF0FF3449E04FF0FF3451
:10114000402003F03FFF00B10024802003F03AFF6D
:1011500000B101244FF4807003F034FF00B1022489
:101160004FF4007003F02EFF00B10324601C00D187
:101170002FE0D2480068D24951F82410084206D026
:10118000D04803F084FED04941F824001BE0CD484C
:1011900003F07DFE0546CC4850F82400A84207D253
:1011A000C94830F82400281AC84921F8140009E079
:1011B000C54830F8240042F210712944081AC34986
:1011C00021F8140000BFC24951F8240003F00BFFBE
:1011D000B4E700BF70BD38B504460121062001F018
:1011E00046FE01210D2001F035FE3320ADF8000050
:1011F00018208DF8030003208DF802006946AF48DF
:10120000083801F0EFFE4FF47070ADF800000CB13B
:10121000042000E018208DF803006946A74808382C
:1012200001F0E0FE0121AB4801F0ABFF0121AA482B
:1012300001F0A7FF38BD10B58AB0044642F20F7026
:10124000ADF820004720ADF81C000020ADF82200CA
:10125000ADF81E0007A9A14803F006F807A99948B0
:1012600003F002F801219D4803F05AFB0121954843
:1012700003F056FB0121994803F052FC01219148EB
:1012800003F04EFC0821954803F07AFC08219348AE
:1012900003F07FFC0821914803F088FC08218F4867
:1012A00003F08DFC0821874803F06AFC082185487B
:1012B00003F06FFC0821834803F078FC0821814883
:1012C00003F07DFC6020ADF800000120ADF80200C5
:1012D0000020ADF8080082480088ADF80600694695
:1012E0007E4802F0FEFF7E484088ADF80600694661
:1012F0007A4803F038F87A488088ADF806006946E5
:10130000764803F07DF87648C088ADF80600694657
:10131000724803F0C0F872480089ADF806006946CB
:10132000684802F0DEFF6E484089ADF80600694665
:10133000644803F018F86A488089ADF806006946E9
:10134000604803F05DF86648C089ADF8060069465C
:101350005C4803F0A0F8002C4BD0402003F043FE83
:10136000802003F040FE4FF4807003F03CFE4FF409
:10137000007003F038FE0621012001F047FF07212D
:10138000012001F043FF0821012001F03FFF092166
:10139000012001F03BFF00208DF8180010208DF88F
:1013A000190001208DF81A004020059005A803F0CF
:1013B000A3FD8020059005A803F09EFD4FF48070EA
:1013C000059005A803F098FD4FF40070059005A85E
:1013D00003F092FD17208DF8100002208DF8110007
:1013E0008DF8120001208DF8130004A802F0FFFD13
:1013F0000DE017208DF8100002208DF811008DF8F7
:10140000120000208DF8130004A802F0F0FD0AB0CD
:1014100010BD10B5044614F0010F04D03048018807
:101420002E4803F015FD14F0020F04D02C4841881B
:101430002A4803F00FFD14F0040F04D028488188D7
:10144000264803F009FD14F0080F04D02448C18891
:10145000224803F003FD23480068F8B914F0100F88
:1014600004D01F480189174803F0F2FC14F0200F44
:1014700004D01B484189134803F0EAFC14F0400FE4
:1014800004D0174881890F4803F0E2FC14F0800F64
:1014900004D01348C1890B4803F0DAFC10BD10B525
:1014A0000446104804602046FFF795FE2046FFF7EB
:1014B000C2FEFF20FFF7ADFF10BD0000080C014089
:1014C0002800002000080040940000204800002070
:1014D0003800002000081A0000023000000400401C
:1014E000180000205000002008B5002003F0AFFDD8
:1014F000002003F0AFFD03F07FFD00214FF480607A
:1015000001F09BFC4FF4F850ADF8000004208DF87A
:1015100003006946FB4801F065FD0420ADF80000BA
:101520006946F94801F05EFD08BD08B54FF4C0609A
:1015300002F058FD31208DF8000000208DF80100E8
:101540008DF8020001208DF80300684602F04FFD7F
:1015500008BD10B5ED4802F07DF910BD30B58BB077
:1015600005460C46EA4802F088F90021E94802F0F5
:1015700056F9E9480090019500200290A0080390D8
:101580000020049080200590800006908000079045
:10159000002008904FF40050099000200A906946FE
:1015A000DC4802F011F90121DA4802F038F90BB0F9
:1015B00030BD30B58BB005460C46D54802F05DF91C
:1015C0000021D44802F02BF9D34800900195102057
:1015D0000290A008039000200490802005908000D5
:1015E000069080000790002008904FF4005009906A
:1015F00000200A906946C74802F0E6F80121C54874
:1016000002F00DF90BB030BD08B50121302001F01A
:1016100021FC4FF4F850ADF8000003208DF80200D3
:1016200018208DF803006946B64801F0DBFC042061
:10163000ADF800006946B44801F0D4FC01218802ED
:1016400001F0FBFB0121022001F0F7FB08BD014680
:1016500000BFB1488038406B10F0450FF9D040F220
:10166000FF50AD4A803A906310464069082210400E
:10167000C0B270472DE9FC4107460D460026002404
:101680000020009001900820A449086010204860C4
:10169000402088600020C8604FF4806008610846E0
:1016A00003F0F8FC1020FFF7D2FF044614B12046E7
:1016B000BDE8FC819A4800880004984908603720FA
:1016C0004860402088600020C8604FF48060086156
:1016D000084603F0DFFC3720FFF7B9FF04460CB1E2
:1016E0002046E5E74FF0FF308E490860082048604B
:1016F000302088600220C860002008610120486115
:10170000084603F0F0FC002084490860332048605C
:10171000402088600020C8604FF48060086108465F
:1017200003F0B8FC3320FFF792FF04460CB12046CB
:10173000BEE70CE04FF4001003F01EFD38B103F0DB
:10174000F4FC4DF82600761C012E00D906E0724804
:101750008038406B40F22A610842EBD000BF08207D
:1017600003F00AFD28B1082003F010FD04242046F0
:101770009EE7022003F000FD28B1022003F006FDE1
:101780000224204694E7202003F0F6FC28B1202014
:1017900003F0FCFC062420468AE74FF4007003F0B7
:1017A000EBFC30B14FF4007003F0F0FC072420464E
:1017B0007EE740F2FF5003F0E9FC00980006009934
:1017C00001F47F4140EA0120009901F47F0140EAE1
:1017D0001120009940EA11606860019800060199A3
:1017E00001F47F4140EA0120019901F47F0140EAC0
:1017F0001120019940EA11602860204658E77CB525
:101800000546002400200090019003F061FC10F0D8
:10181000007F02D00E2420467CBD4149098888B251
:101820006946FFF727FF04460CB12046F4E7012D77
:1018300035D1019810F4802F2ED03948008800044B
:101840003649086037204860402088600020C86022
:10185000A8020861084603F01DFC3720FFF7F7FED9
:1018600004460CB12046D7E702202C490860062028
:101870004860402088600020C8604FF480600861A4
:10188000084603F007FC0620FFF7E1FE04460CB112
:101890002046C1E72046BFE725242046BCE7019843
:1018A00010F4803F42D01E48008800041B490860A5
:1018B00037204860402088600020C8604FF4806076
:1018C0000861084603F0E6FB3720FFF7C0FE044638
:1018D0000CB12046A0E700201049086006204860AF
:1018E000402088600020C8604FF48060086108468E
:1018F00003F0D0FB0620FFF7AAFE0446A4B1204661
:101900008AE7000000100140001401400020001090
:1019100000F0001044040240808001403C0100209F
:101920005800002050010020204675E7252420465D
:1019300072E770B504460025F7480068032802D115
:101940002725284670BDF448006838B1F248006881
:10195000012803D0F048006802282ED1B4F5805F3A
:1019600002D127252846EDE7B4F5006F14D10120F8
:10197000FFF745FF054605BB0120E8490875002033
:101980000860486088604FF40060C860002008610B
:10199000084603F03FFB10E00020FFF730FF05464C
:1019A0005DB90120DD490875002008604860886045
:1019B000C8600861084603F02DFB2846C2E770B5F1
:1019C00004460025D64804600720D54948604020D9
:1019D00088600020C8604FF480600861084603F00A
:1019E00059FB0720FFF733FE0546284670BD30B58A
:1019F000014600200022C84B1B7881F84E30C94BAD
:101A00001B88A1F84C30C84B1B681A0E93090B7049
:101A1000C2F383034B7002F003038B70C24B1B684D
:101A2000C3F30742CA70C04B1B88C3F307220A7175
:101A3000BD4B1A784A715B681A0E1301CB80BA4B02
:101A40005B68C3F30742CB8843EA1213CB8002F0F2
:101A50000F030B72B44B9B88C3F30722D3094B725D
:101A6000C2F380138B72C2F34013CB72C2F3001324
:101A70000B7300234B73A84B1B681BB1A64B1B6851
:101A8000012B3CD193071B0D0B61A74B1A790B69F6
:101A900043EA82030B61A44B9B681A0E0B6943EA6D
:101AA00092130B61C2F3C2030B7502F007034B756F
:101AB0009D4B9B68C3F3074253098B75C2F38203A6
:101AC000CB7593075B0F0B76974B1B89C3F30722EC
:101AD0000B7E43EAD2130B760B695B1C4B640C7EC6
:101AE0004B6CA41C0125A5406B434B640C7A01236D
:101AF000A3408B64D1E9113463434B6421E0864BEE
:101B00001B68022B1DD1884B1A7993069B0A0B6127
:101B1000854B9B681A0E0B6943EA02230B61824BCB
:101B20009B68C3F307420B6913430B617E4B1B8910
:101B3000C3F307220B695B1CDB044B644FF4007397
:101B40008B64C2F3801301F8193F93065B0E4B7050
:101B5000754B1A7A4B7843EAD2134B7002F07F032D
:101B60008B70714BDB681A0ED309CB70C2F3411333
:101B70000B71C2F382034B7193071B0F8B716A4B7E
:101B8000DB68C3F307428B7943EA92138B71C2F38C
:101B90004013CB7100230B7202F001034B72624BB6
:101BA0009B89C3F30722D3098B72C2F38013CB72D4
:101BB000C2F340130B73C2F300134B73C2F38103E0
:101BC0008B7302F00303CB73574B1A7B53080B74D0
:101BD00001234B74554B1B681A0ECA74A1F11901ED
:101BE000524B1B68C3F307424FEA0224CC854F4B8C
:101BF0001B88C3F30722CB8D43EA0203CB854B4BF3
:101C00001A784FEA02640C635B684FEA13620B6B4D
:101C100043EA02440C63454B5B68C3F307420B6B1A
:101C200043EA02240C63414B9B88C3F307220B6BEE
:101C300043EA02030B633D4B1A794FF034035A54C5
:101C40003A4B9B684FEA13624FF035035A54374BB7
:101C50009B68C3F307424FEA02648C63334B1B89D2
:101C6000C3F307228B6B43EA02448C632F4B1A7A2F
:101C70008B6B43EA02248C632C4BDB684FEA1362C4
:101C80008B6B43EA02038B63284BDB68C3F3074289
:101C90004FF03C035B5C43EA12144FF03C035C548E
:101CA0004FEA02734FEA1354CC87204B9B89C3F34E
:101CB0000722CB8F43EA0203CB871C4B1A7B4FEAE8
:101CC00052044FF040035C544FF001044FF04103C5
:101CD0005C5430BD70B500251548446B01E01448D4
:101CE000446B14F0450FFAD014F0040F05D003250F
:101CF000042003F04BFA284670BD14F0010F05D004
:101D00000125012003F042FA2846F5E740F2FF5092
:101D100003F03CFA2846EFE754000020240100209D
:101D20003C01002058000020A4000020B400002046
:101D3000008001402DE9F04106460F464FF00008B3
:101D4000F848456B01E0F748456B15F0450FFAD0B0
:101D500015F0040F07D04FF00308042003F016FA23
:101D60004046BDE8F08115F0010F06D04FF00108A4
:101D7000012003F00BFA4046F3E703F0A5F9B04267
:101D800003D04FF010084046EBE740F2FF5003F05D
:101D9000FDF9002003F09CF9044614F4604F03D1D0
:101DA000200C38804046DCE714F4005F01D013209B
:101DB000D7E714F4804F01D01020D2E714F4004F7D
:101DC00001D00F20CDE74046CBE738B500240120F5
:101DD000009003F04AF910B92524204638BDD248B6
:101DE0000068042828D00020D049086002204860FC
:101DF000C02088600020C8604FF4806008610846F9
:101E000003F048F9FFF766FF04460CB12046E5E70A
:101E1000002003F05DF9C6490860042003F058F97A
:101E2000C3494860082003F053F9C14988600C2079
:101E300003F04EF9BE49C860BB48006858B1BA48C3
:101E40000068012807D0B8480068062803D0B648C3
:101E50000068022816D10020B449086003204860B9
:101E6000402088600020C8604FF480600861084608
:101E700003F010F969460320FFF75CFF04460CB13C
:101E80002046ABE7A848006804282ED0BDF8000023
:101E9000A8490860BDF800000004A44908600920B2
:101EA0004860C02088600020C8604FF480600861EE
:101EB000084603F0EFF8FFF70DFF04460CB120468B
:101EC0008CE7002003F004F99B490860042003F02C
:101ED000FFF899494860082003F0FAF896498860AD
:101EE0000C2003F0F5F89449C8600024204675E7FB
:101EF00070B500258B48446B01E08A48446B14F0B0
:101F0000450FFAD014F0040F05D00325042003F088
:101F10003DF9284670BD40F2FF5003F037F92846DE
:101F2000F8E770B500264FF480357E48446B02E038
:101F30006D1E7C48446B14F0450F01D1002DF7D184
:101F400015B114F0040F05D00326042003F01EF988
:101F5000304670BD14F0400F05D00026402003F03D
:101F600015F93046F5E73046F3E770B500254FF434
:101F7000803400E0641E24B1802003F0FDF80028C6
:101F8000F8D014B90325284670BD40F2FF5003F085
:101F9000FDF82846F8E72DE9F04100240026002549
:101FA0000027A046B22065490875002008604860F7
:101FB0008860C8600861084603F02CF8032003F02D
:101FC00049F8012003F043F80020584908604860B0
:101FD0008860C8604FF480600861084603F05AF8D2
:101FE000FFF7C3FF044614B12046BDE8F0814FF46B
:101FF000D5704E4908600820486040208860002065
:10200000C8604FF480600861084603F043F8FFF7AA
:1020100088FF04462CB90120434908604FF08048EE
:1020200012E0002041490860372048604020886065
:102030000020C8604FF480600861084603F02AF869
:102040003720FFF704FB044600203849086037209A
:102050004860402088600020C8604FF480600861BC
:10206000084603F017F83720FFF7F1FA0446002C72
:102070004AD136E000202D490860372048604020D2
:1020800088600020C8604FF480600861084603F053
:1020900001F83720FFF7DBFA04460CB12046A4E72D
:1020A000274848EA0000214908602920486040206C
:1020B00088600020C8604FF480600861084602F024
:1020C000E9FFFFF715FF04460CB120468DE700201D
:1020D00002F0FEFF0646012080EAD67080F001077C
:1020E0006D1C1FB94FF6FF708542C3D34FF6FF70CA
:1020F000854202D31B24204677E706F08040060085
:1021000002D002200849086020466EE710B500247E
:10211000FFF77AFA02F070FFFFF73DFF04468CB13B
:10212000204610BD00800140540000203C010020EA
:10213000B400002058000020A4000020240100204A
:1021400000001080FFF741FE04460CB12046E8E78E
:102150000120FE4908750020086048608860C8605A
:102160000861084602F056FF1CB9F948FFF73FFC2A
:10217000044634B9F649B1F84C100804FFF71FFCC7
:10218000044624B94FF40060FFF7D3FB0446204611
:10219000C7E770B504460025EE4800880004EE4904
:1021A000886040F24D40C8600D20FFF750FA0546A8
:1021B0000DB1284670BDE848406920602846F9E71F
:1021C00008B5002000906846FFF7E3FF08B1FF2044
:1021D00008BD0098C0F34320FAE710B50424FFF7C8
:1021E000EFFF0446042C01D1002010BDFF2C01D1CB
:1021F0000220FAE70120F8E710B50024002002F0E1
:1022000029FF204610BD70B5044600250026002099
:1022100002F05EFF10F0007F02D00E25284670BD50
:102220004020CE490860102048604020886000208F
:10223000C8604FF480600861084602F02BFF102050
:10224000FFF705FA05460DB12846E8E7C1480088C2
:102250000004C249086037204860402088600020A0
:10226000C8604FF480600861084602F013FF372011
:10227000FFF7EDF905460DB12846D0E74FF0FF30E6
:10228000B749086040204860602088600220C8602C
:102290000020086101204861084602F024FF002068
:1022A000AE4908600D204860402088600020C8606A
:1022B0004FF480600861084602F0ECFE0D20FFF745
:1022C000C6F905460DB12846A9E70EE04FF40040D7
:1022D00002F052FF48B1002604E002F026FF44F865
:1022E0002600761C082EF8D320349B48406B40F221
:1022F0002A610842EAD0082002F03EFF28B10820F7
:1023000002F044FF0425284689E7022002F034FF4A
:1023100028B1022002F03AFF022528467FE720205C
:1023200002F02AFF28B1202002F030FF06252846BF
:1023300075E74FF4007002F01FFF30B14FF40070EA
:1023400002F024FF0725284669E703E002F0EDFECE
:102350002060241D4FF4001002F00EFF0028F5D17C
:1023600040F2FF5002F012FF284658E770B50446CD
:10237000002600257B48FFF746FF06460EB1304693
:1023800070BD784800788509257076480078C0F3DC
:102390004015657073488578280260807148C5785B
:1023A0006088284360806F480579280660606D4822
:1023B0004579606840EA054060606A4885796068F0
:1023C00040EA052060606748C5796068284360601E
:1023D0006448057A2572457A6572807A0509A57286
:1023E0006048C57A2802A0815E48057BA089284301
:1023F000A0815C48407B8508A5735A48407B00F06B
:102400000305E5733046BBE72DE9F04107460D466D
:102410001446002600205449087054490860544965
:1024200008604D49C86253480068022801D104027F
:102430006D0A4A480460102048494860402088607E
:102440000020C8604FF480600861084602F022FE58
:102450001020FFF7FCF8064616B13046BDE8F081C3
:102460004FF0FF303E490860084644609020886085
:102470000220C8600020086101204861084602F07F
:1024800032FE36480560112034494860402088609B
:102490000020C8604FF480600861084602F0FAFD31
:1024A0001120FFF7D4F806460EB13046D6E70121D9
:1024B000080202F0DFFD012002F0E9FD2146384666
:1024C000FFF74CF83046C9E72DE9F04180460D464C
:1024D00014461E460027002023490870234908603F
:1024E00001202349086000201B49C8622148006878
:1024F000022801D104026D0A18480460102017490F
:102500004860402088600020C8604FF48060086107
:10251000084602F0BFFD1020FFF799F8074617B1F3
:102520003846BDE8F0814FF0FF300D49086006FBEA
:1025300004F04860902088600220C8600020086194
:1025400001204861084602F0CEFD15E0240100207C
:10255000D400002058000020008001403C010020F1
:1025600050010020C4000020600000206400002012
:102570005C00002054000020F94805601220F84952
:102580004860402088600020C8604FF48060086187
:10259000084602F07FFD1220FFF759F807460FB1F9
:1025A0003846BEE70121080202F064FD012002F076
:1025B0006EFD06FB04F14046FEF7D0FF3846B0E75B
:1025C00010B5002400BFFEF7C4FF30B9E54800682D
:1025D00018B9E54800780028F5D0E348007810B134
:1025E000E148007810BD2046FCE72DE9F0410746A0
:1025F0000D46144600260020DB490870D9490860C2
:10260000DA490860DA49C862DA480068022801D16C
:1026100004026D0AD24804601020D149486040206D
:1026200088600020C8604FF480600861084602F0AE
:1026300031FD1020FFF70BF8064616B13046BDE815
:10264000F081C74805601820C5494860402088606F
:102650000020C8604FF480600861084602F01AFD4F
:102660001820FEF7F4FF06460EB13046E7E74FF0BC
:10267000FF30C1490860084644609020886000200F
:10268000C860086101204861084602F02CFD012164
:10269000080202F0EFFC21463846FEF78AFF0120CF
:1026A00002F0F5FC3046CAE72DE9F84380460F46B4
:1026B00015461E46002400200090AB490870A94929
:1026C00008600120A94908600020A949C862A948FA
:1026D0000068022801D105027F0AA1480560102088
:1026E0009F494860402088600020C8604FF48060A7
:1026F0000861084602F0CEFC1020FEF7A8FF044651
:1027000014B12046BDE8F8839C4800880004944931
:10271000086037204860402088600020C8604FF47F
:1027200080600861084602F0B5FC3720FEF78FFF95
:1027300004460CB12046E5E7894806601720884921
:102740004860402088600020C8604FF480600861C5
:10275000084602F09FFC1720FEF779FF04460CB1F3
:102760002046CFE77E48076019207D494860402019
:1027700088600020C8604FF480600861084602F05D
:1027800089FC1920FEF763FF04460CB12046B9E727
:102790004FF0FF307849086006FB05F04860902054
:1027A00088600020C860086101204861084602F086
:1027B0009AFC0121080202F05DFC012002F067FC96
:1027C00006FB05F14046FEF7F4FE20469AE710B5F9
:1027D000002400BFFEF7BDFE30B96248006818B99A
:1027E000614800780028F5D05F48007810B15E4855
:1027F000007810BD40F2FF5002F0C8FC2046F8E718
:102800005B48406B10F4405F01D00120704700200E
:10281000FCE710B5002400205549886040F24C4088
:10282000C8600C20FEF713FF0446204610BD7CB59F
:1028300004460025002001900090504800880004C4
:10284000474908600D204860402088600020C8602B
:102850004FF480600861084602F01CFC4448406B5D
:10286000009002E04248406B0090009810F0450F45
:10287000F8D0009810F0040F05D00325042002F0D2
:1028800085FC28467CBD009810F0010F05D001257D
:10289000012002F07BFC2846F4E702F015FC0090D2
:1028A00000980D2802D010252846EBE740F2FF5093
:1028B00002F06CFC002002F00BFC01900198C0F3C8
:1028C000432020702E490198084201D12846D9E7BB
:1028D000019810F0004F01D01C20D3E7019810F0B0
:1028E000804F01D00920CDE7019810F0005F01D0A2
:1028F0000A20C7E7019810F0805F01D00B20C1E7E4
:10290000019810F0006F01D00C20BBE7019810F087
:10291000806F01D00D20B5E7019810F0807F01D0C5
:102920000E20AFE7019810F4000F01D00F20A9E7A7
:10293000019810F4800F01D01020A3E7019810F443
:10294000001F01D011209DE7019810F4801F01D0D5
:10295000122097E7019810F4002F13D0132091E76D
:102960003C01002064000020600000205C0000208A
:102970000080014054000020500100205800002039
:1029800008E0FFFD019810F4802F01D0142079E7B2
:10299000019810F4003F01D0152073E7019810F45E
:1029A000803F01D016206DE7019810F4004F01D050
:1029B000172067E7019810F4804F01D0182061E7D5
:1029C000019810F4005F01D019205BE7019810F026
:1029D000080F01D01A2055E7284653E72DE9FC419E
:1029E00005460E46002400270020019000905C4818
:1029F0004068202111EA105F03D125242046BDE85C
:102A0000FC8158484068C0B2801C5749B1FBF0F0C7
:102A10000190002002F05CFB10F0007F02D00E2439
:102A20002046ECE751480068022801D16D0A760A79
:102A30004E48006838B14D480068012803D04B4823
:102A4000006802282BD14A48056020204849486088
:102A5000402088600020C8604FF48060086108460C
:102A600002F018FB2020FEF7F2FD04460CB12046D0
:102A7000C5E73F48066021203D4948604020886006
:102A80000020C8604FF480600861084602F002FB35
:102A90002120FEF7DCFD04460CB12046AFE7002004
:102AA0003349086026204860402088600020C860C4
:102AB0004FF480600861084602F0ECFA2620FEF729
:102AC000C6FD04460CB1204699E7002700E07F1CB4
:102AD00001988742FBD36846FFF7A9FE044603E04E
:102AE0006846FFF7A4FE04463CB99DF8000007289D
:102AF000F6D09DF800000628F2D020467FE710B5FA
:102B00001C48006801280BD100201649886040F25B
:102B10004C40C8600C20FEF79AFD1749087002E08F
:102B20000020154908704FF4807002F03CFB002132
:102B30004FF4807002F09EFA0120104908600E48A0
:102B4000007810BD0146002002E04910421CD0B2BE
:102B50000129FAD1704710B5FFF7D1FF10BD000071
:102B6000A400002000800140C0D4010054000020D7
:102B70003C0100205C000020600000206400002078
:102B8000DD48006840F00100DB4908600846406805
:102B9000DA490840D849486008460068D8490840E2
:102BA000D54908600846006820F48020086008467F
:102BB000406820F4FE0048604FF41F0088607047B2
:102BC000CD49096821F48031CB4A1160114609686A
:102BD00021F480211160B0F5803F03D0B0F5802F43
:102BE0000ED106E0C449096841F48031C24A11603F
:102BF00007E0C149096841F4A021BF4A116000E023
:102C000000BF00BF704710B501460022002300201E
:102C10004A11012A02D1B84C236806E0022A02D1E7
:102C2000B54C236A01E0B44C636A01F01F02012431
:102C300094401C4201D0012000E0002010BD38B5B6
:102C4000002000900024002500BF3120FFF7DBFFAB
:102C500005460098401C00900098B0F5A06F01D088
:102C6000002DF2D03120FFF7CEFF08B1012400E0A3
:102C70000024204638BD014600209F4A106820F0FD
:102C8000F80040EAC100106070479E490860704734
:102C900002460020984B586820F47C1042EA010359
:102CA0001843954B5860704796490866704701462F
:102CB0000020914A506820F003000843506070479C
:102CC0008D48406800F00C007047014600208A4A99
:102CD000506820F0F0000843506070470146002023
:102CE000854A506820F4E060084350607047014610
:102CF0000020814A506820F4605040EAC1005060D2
:102D0000704729B17C4A527A02437B4B5A7204E0E5
:102D1000794A527A8243784B5A7270477A490860EE
:102D2000704701460020744A506820F44040084330
:102D3000506070470021754A11706F4A82F8201068
:102D4000012802D0042808D103E001216F4A117044
:102D500004E005216D4A117000E000BF00BF70471C
:102D60006B49086070476449096A0143624A11620D
:102D70007047674944390860704730B50021002228
:102D8000002400235C4D6D6805F00C0121B104297D
:102D900005D0082923D105E05E4D056022E05D4D98
:102DA00005601FE0544D6D6805F47012524D6D685A
:102DB00005F48034022505EB92421CB9564D55436B
:102DC00005600BE04C4D6D6815F4003F03D0524D8B
:102DD0005543056002E04F4D5543056002E04D4DFF
:102DE000056000BF00BF444D6D6805F0F0010909A2
:102DF0004A4D6B5C0568DD4045603F4D6D6805F4EC
:102E0000E061090A454D6B5C4568DD4085603A4DDF
:102E10006D6805F46051C90A404D6B5C4568DD4042
:102E2000C560354D6D6805F44041890B3C4D6B5CC8
:102E3000C568B5FBF3F5056130BD29B12E4A52696D
:102E400002432D4B5A6104E02B4A526982432A4BBC
:102E50005A61704729B1284A92690243264B9A6108
:102E600004E0254A92698243234B9A61704729B155
:102E7000214AD2690243204BDA6104E01E4AD2693A
:102E800082431D4BDA61704729B11B4AD268024365
:102E9000194BDA6004E0184AD2688243164BDA60B4
:102EA000704729B1144A12690243134B1A6104E0B6
:102EB000114A12698243104B1A6170471449403914
:102EC000086070470F49C86470470B49C871704764
:102ED0000948406A40F080700749486270470146DF
:102EE0000020054A92680A4201D0012000E000203B
:102EF0007047014988727047001002400000FFF8D7
:102F0000FFFFF6FE00004242D8004242201002407D
:102F10008004424200127A0000093D00680000204F
:102F20007800002010B50446CA48844208D1012127
:102F30000420FFF7A9FF00210420FFF7A5FF46E0CA
:102F4000C548844208D101210820FFF79DFF0021D8
:102F50000820FFF799FF3AE0C048844208D10121D8
:102F60001020FFF791FF00211020FFF78DFF2EE0CA
:102F7000BB48844208D101212020FFF785FF0021B2
:102F80002020FFF781FF22E0B648844208D10121CA
:102F90004020FFF779FF00214020FFF775FF16E082
:102FA000B148844208D101218020FFF76DFF002144
:102FB0008020FFF769FF0AE0AC48844207D1012175
:102FC0008015FFF761FF0021A015FFF75DFF10BD21
:102FD00010B501210846FFF757FF00210120FFF738
:102FE00053FF10BD2DE9F0410246002500260020C8
:102FF00000230024002791F803C00CF00F0591F87E
:1030000003C01CF0100F03D091F802C04CEA050574
:1030100091F800C0BCF1000F31D0146800202BE003
:103020004FF0010C0CFA00F3B1F800C00CEA0306F3
:103030009E4220D183004FF00F0C0CFA03F7BC43E3
:1030400005FA03FC4CEA040491F803C0BCF1280F14
:1030500006D14FF0010C0CFA00FCC2F814C00AE0D3
:1030600091F803C0BCF1480F05D14FF0010C0CFAE8
:1030700000FCC2F810C0401C0828D1D31460B1F87D
:1030800000C0BCF1FF0F34DD546800202EE000F1D9
:10309000080C4FF0010808FA0CF3B1F800C00CEA74
:1030A00003069E4221D183004FF00F0C0CFA03F768
:1030B000BC4305FA03FC4CEA040491F803C0BCF1DC
:1030C000280F05D100F1080C08FA0CF8C2F814809A
:1030D00091F803C0BCF1480F07D100F1080C4FF084
:1030E000010808FA0CF8C2F81080401C0828CED35A
:1030F0005460BDE8F0814FF6FF71018002218170BC
:103100000421C17070470246002093680B4201D031
:10311000012000E0002070470146886880B27047B7
:1031200002460020D3680B4201D0012000E00020BD
:1031300070470146C86880B27047016170474161BD
:1031400070470AB1016100E041617047C16070479A
:103150004FF480320A4382618161826182698269AF
:10316000704702460020424B18684FF680731840A3
:1031700040EA021008433E4B186070473D49C86161
:103180007047F0B50A46002300240021002500F016
:103190000046B6F1004F02D1354EF16901E0344EE0
:1031A0007168C0F3034583B200F44016B6F5401FC2
:1031B00008D121F070612E4E766826F070662C4F93
:1031C0007E6012E000F48016B6F5801F06D103265B
:1031D00006FA05F4A14341F0706106E0460D3601A0
:1031E00003FA06F6B14341F0706122B1460D360193
:1031F00003FA06F6314300F00046B6F1004F02D163
:103200001B4EF16101E01A4E7160F0BD30B5002235
:103210008B071C0F0F2303FA04F2154B08338C1095
:1032200053F824309343124C08348D1044F8253061
:1032300023468C1053F824308C07240F00FA04F432
:1032400023430B4C08348D1044F8253030BD0A4917
:103250000860704700080140000C01400010014068
:103260000014014000180140001C014000200140F2
:103270000000014000002042DC00204210B504465E
:10328000FB48844209D101218803FFF7FDFD00219D
:103290004FF48040FFF7F8FD32E0F648844209D150
:1032A00001214804FFF7FDFD00214FF40030FFF736
:1032B000F8FD25E0F048844209D101218804FFF798
:1032C000F0FD00214FF48020FFF7EBFD18E0EB4804
:1032D000844209D10121C804FFF7E3FD00214FF426
:1032E0000020FFF7DEFD0BE0E548844208D1012114
:1032F0000805FFF7D6FD00214FF48010FFF7D1FD40
:1033000010BD2DE9F04786B005460E460024A246C2
:1033100000BFA1460027B08900B100BF2F462C8A0C
:103320004CF6FF700440F08804432C82AC894EF6C2
:10333000F3100440B088318908437189084304437D
:10334000AC81AC8A4FF6FF400440B0890443AC82A4
:1033500001A8FFF712FDC648874202D1DDF810A090
:1033600001E0DDF80CA0A88910F4004F08D00AEBAA
:10337000CA0000EB0A1031684900B0FBF1F807E021
:103380000AEBCA0000EB0A1031688900B0FBF1F8C3
:103390006420B8FBF0F004012009642101FB1089CE
:1033A000A88910F4004F08D0322000EBC900B0FB10
:1033B000F1F000F00700044308E0322000EB0910B0
:1033C0006421B0FBF1F000F00F0004432C8106B043
:1033D000BDE8F0874FF41651016000218180C18063
:1033E00001810C21418100218181704710B5024685
:1033F0000020108A4FF2FF0318400B884C882343AB
:103400008C882343CC8823431843108210BD0021AD
:10341000018041808180C180704721B1828942F45E
:103420000052828104E082894DF6FF731A40828146
:103430007047F0B503460024002600250020A1F5C2
:1034400010676A3F00D100BF1846C1F3421401F073
:103450001F06012707FA06F5012C01D10C3004E004
:10346000022C01D1103000E014301AB107682F434C
:10347000076002E00768AF430760F0BD1AB1838AB6
:103480000B43838202E0838A8B4383827047028AE4
:103490004FF6F0731A400282028A0A430282704792
:1034A00082894FF2FF731A40828182890A438281A6
:1034B000704721B1828942F00202828104E0828950
:1034C0004FF6FD731A4082817047028A4FF6DF7310
:1034D0001A400282028A0A430282704721B1028A9C
:1034E00042F48042028204E0028A4BF6FF731A40E3
:1034F00002827047C1F308028280704701468888C3
:10350000C0F308007047818941F001018181704753
:10351000028BD2B20283028B42EA012202837047FD
:10352000028B02F47F420283028B0A4302837047BC
:1035300021B1828A42F02002828204E0828A4FF620
:10354000DF731A408282704721B1828A42F01002F2
:10355000828204E0828A4FF6EF731A4082827047BB
:1035600021B1828A42F00802828204E0828A4FF608
:10357000F7731A408282704721B1828942F4004277
:10358000828103E08289C2F30E028281704721B1F9
:10359000828A42F40062828204E0828A4FF2FF73E0
:1035A0001A4082827047828A4FF6FB731A408282E9
:1035B000828A0A438282704721B1828A42F00202E3
:1035C000828204E0828A4FF6FD731A40828270473D
:1035D00002460020B1F5007F00D100BF13880B42E6
:1035E00001D0012000E00020704701F40072B2F524
:1035F000007F00D100BFCA430280704770B5024609
:103600000024002300250020A1F510666A3E00D1A9
:1036100000BFC1F3421501F01F03012606FA03F3B0
:10362000012D02D19689334006E0022D02D1168A7F
:10363000334001E0968A33400C12012606FA04F466
:103640001688344013B10CB1012000E0002070BD99
:1036500010B500220023A1F510646A3C00D100BF20
:103660000A1201249440A3B2DC43048010BD000080
:10367000003801400044004000480040004C004039
:103680000050004001684FF6FE72114001600021B9
:10369000016041608160C1608C49884208D18B49DA
:1036A0000839496841F00F01884A083A51608AE0B8
:1036B00086491431884208D184490839496841F063
:1036C000F001824A083A51607DE080492831884201
:1036D00008D17E490839496841F470617B4A083A4B
:1036E000516070E079493C31884208D17749083906
:1036F000496841F47041754A083A516063E0734982
:103700005031884208D171490839496841F4702123
:103710006E4A083A516056E06C496431884208D1DB
:103720006A490839496841F47001684A083A5160A9
:1037300049E066497831884208D1644908394968C6
:1037400041F07061614A083A51603CE0604988424A
:1037500006D1011F096841F00F01021F116032E01C
:103760005B491431884208D15949091F096841F061
:10377000F001574A121F116025E05549283188424F
:1037800008D15349091F096841F47061504A121F5A
:10379000116018E04E493C31884208D14C49091F5C
:1037A000096841F470414A4A121F11600BE0484910
:1037B0005031884207D14649091F096841F47021F8
:1037C000434A121F1160704710B50022026847F685
:1037D000F0739A430C6A8B6823430C6923434C694A
:1037E00023438C692343CC6923434C6A23438C6A6B
:1037F00023431A430260CB6843600B6883604B68C5
:10380000C36010BD0021016041608160C160016141
:1038100041618161C161016241628162704721B190
:10382000026842F00102026004E002684FF6FE7393
:103830001A40026070471AB103680B43036002E04C
:1038400003688B43036070474160704701464868D6
:1038500080B2704701460020002211F0805F03D043
:103860001B4B083B1A6802E0184B083B1A680A42D7
:1038700001D0012000E00020704710F0805F03D0ED
:103880001349091F086002E0104908394860704771
:1038900001460020002211F0805F03D00C4B083B52
:1038A0001A6802E0094B083B1A680A4201D001205D
:1038B00000E00020704710F0805F03D00449091F2A
:1038C000086002E00149083948607047080002407A
:1038D0000804024010B50446F748844209D101218A
:1038E0004805FFF7DEFA00214FF40010FFF7D9FA80
:1038F00008E001218805FFF7D4FA00214FF4800089
:10390000FFF7CFFA10BD2DE9F04385B004460D4610
:103910000026B1460427DFF8A483A6884FF6C070BE
:1039200006406846FFF729FADDF80880E448B8FB4E
:10393000F0F01FFA80F946EA0906A68020884FF6C3
:10394000FE71084020800026DE49286888420CD895
:1039500028684000B8FBF0F087B2042F00DA042793
:103960003E4309F10100208427E0E888A0F53F41AB
:10397000FF3906D1286800EB4000B8FBF0F087B2B1
:1039800009E0286800EBC00101EB0010B8FBF0F083
:1039900087B247F480473805000D01D147F0010791
:1039A00047F4004006434FF4967009FB00F04FF4D3
:1039B0007A7190FBF1F0401C2084A683208840F0AF
:1039C0000100208026884FF6F5300640A8886989D6
:1039D000084306432680A88929890843208105B029
:1039E000BDE8F08341F288310160002181804BF60F
:1039F000FF71C1800021018141814FF480418181AB
:103A0000704721B1028842F00102028004E002887E
:103A10004FF6FE731A400280704721B1828842F44B
:103A20000062828004E082884FF2FF731A40828035
:103A3000704721B1828842F48052828004E08288FB
:103A40004EF6FF731A408280704721B1028842F41B
:103A50008072028004E002884FF6FF631A40028001
:103A6000704721B1028842F40072028004E00288AB
:103A70004FF6FF531A400280704721B1028842F48A
:103A80008062028004E002884FF6FF331A40028011
:103A900070470A46002181894FF60173194002F0F0
:103AA000FE0319438181704721B1828942F00102EE
:103AB000828104E082894FF6FE731A40828170474A
:103AC00021B1028842F04002028004E002884FF6F1
:103AD000BF731A40028070471AB183880B438380FA
:103AE00002E083888B4383807047018270470146E0
:103AF000088AC0B2704712B141F0010102E04FF6EE
:103B0000FE7319400182704708B5024600200090FC
:103B100000920098084400900098008808BD21B1E8
:103B2000028842F40042028003E00288C2F30E02DF
:103B300002807047B1F5006F04D1028842F4006240
:103B4000028004E002884FF2FF731A40028070473F
:103B5000B1F5005F04D1028842F40052028004E013
:103B600002884DF6FF731A400280704721B1028827
:103B700042F48052028004E002884EF6FF731A403D
:103B800002807047B1F5006F04D1028842F40062F0
:103B9000028004E002884FF2FF731A4002807047EF
:103BA00021B1028842F02002028004E002884FF630
:103BB000DF731A40028070470146088B001270477D
:103BC00021B1028842F01002028004E002884FF620
:103BD000EF731A400280704721B9028842F08002D8
:103BE000028004E002884FF67F731A40028070471B
:103BF000B1F5804F05D0828B4BF6FF731A4082835C
:103C000003E0828B42F480428283704770B50246A3
:103C10000024002500230020958A138B1B0445EA0D
:103C2000030626F07F4404EA01068E4201D10120FA
:103C300000E0002070BD10B50146002000230022E6
:103C40008B8A0A8B120443EA020424F07F4010BDE1
:103C50000CB50246002000230193009300920B0F45
:103C6000019321F07F41019B1BB1009B1433009312
:103C700003E0090C009B18330093009B1B680B4268
:103C800001D0012000E000200CBD002221F07F4285
:103C9000D3438382704730B50246002000239488C6
:103CA00001F0E06504EA154321F07F41948A0C425B
:103CB0000AD04BB1012008E00054004000127A0005
:103CC00040420F00A0860100002030BD002221F0FC
:103CD0007F42D3438382704710B50446BE48844276
:103CE00008D101218014FFF7CFF80021A014FFF7BD
:103CF000CBF816E0B948844208D101210014FFF73F
:103D0000D0F800212014FFF7CCF80AE0B448844230
:103D100007D10121C013FFF7C4F80021E013FFF71A
:103D2000C0F810BD10B50022028802F441520B8881
:103D30004C8823438C882343CC8823430C8923431A
:103D40004C8923438C892343CC8923431A43028023
:103D5000838B4FF2FF74234083830B8A038210BD51
:103D60002DE9F04F85B005460C464FF000090227BB
:103D70004FF000084FF0010B0026B246A88B4FF21F
:103D800040010840A88302202884B5F81C90A06850
:103D9000022801D100BF38E0A08810B94FF0010B14
:103DA00001E04FF0020B8D48854200D100E000BFDA
:103DB0006846FEF7E2FFDDF800A0E088B0F5007F7E
:103DC0000AD14FEA1A2000EB80004000A168B0FB46
:103DD000F1F0401D86B20BE04FEA4B10BAFBF0F059
:103DE00000EB80004000A168B0FBF1F0401D86B2FE
:103DF0000A20B6FBF0F606F00108A6EB0800C0F3B7
:103E00004F074FF6FF7000EA0828022F01DBFF2F53
:103E100002DD02274FF00008E08840EA080038433E
:103E20002884A088A1890843618808432188084321
:103E300040F4006040EA0909A5F81C9005B0BDE80F
:103E4000F08F0021018041808180C180018141810A
:103E50008181C18107210182704700210180418059
:103E60008180C1800221816000218181704721B160
:103E7000028842F04002028004E002884FF6BF73DD
:103E80001A400280704721B1828B42F480628283A3
:103E900004E0828B4FF6FF331A408283704730B5BF
:103EA000002400230C110125A540ABB21AB185886E
:103EB0001D43858002E085889D43858030BD1AB111
:103EC00083880B43838002E083888B438380704721
:103ED00081817047014688897047A1F57E42FF3A8B
:103EE00004D0028842F48072028004E002884FF617
:103EF000FF631A400280704721B1828842F00402B9
:103F0000828004E082884FF6FB731A4082807047FB
:103F100002884FF2FF731A40028002880A4302802F
:103F20007047018841F480510180704721B10288B7
:103F300042F40052028004E002884DF6FF731A40FA
:103F40000280704702460020012901D0108B00E05A
:103F5000908A70470146088A7047B1F5804F04D1B6
:103F6000028842F48042028004E002884BF6FF732C
:103F70001A40028070470246002013890B4201D08C
:103F8000012000E000207047CA4302817047F0B56D
:103F90000246002000240023002501F00F0701261F
:103FA000BE40B4B20B1101269E40B3B2968806EA19
:103FB00003051689264202D00DB1012000E0002041
:103FC000F0BD10B5002201F00F040123A3409AB206
:103FD000D343038110BD0000003001400038004091
:103FE000003C004031490143314A1160704770B5CF
:103FF000002100230F22C4780CB32D4C246804F454
:10400000E064C4F5E064210AC1F10403CA404478C5
:1040100004FA03F18478144021430901254C067801
:10402000A155047804F01F050124AC4005786D11FA
:104030004FF0E02606EB8505C5F8004109E004785D
:1040400004F01F050124AC401B4D0678761145F89D
:10405000264070BD194A0A400243154B1B1F1A60C7
:10406000704739B1124A121D12680243104B1B1DD2
:104070001A6006E00E4A121D126882430C4B1B1D8B
:104080001A607047042808D14FF0E021096941F017
:1040900004014FF0E022116107E04FF0E0210969CF
:1040A00021F004014FF0E022116170470000FA0591
:1040B0000CED00E000E400E080E100E080FFFF1F85
:1040C00010B50446FE48844208D10121C014FEF711
:1040D000DBFE0021E014FEF7D7FEC4E0B4F1804F10
:1040E00008D101210846FEF7DCFE00210120FEF781
:1040F000D8FEB8E0F348844208D101210220FEF73F
:10410000D0FE00210220FEF7CCFEACE0EE48844257
:1041100008D101210420FEF7C4FE00210420FEF78F
:10412000C0FEA0E0E948844208D101210820FEF742
:10413000B8FE00210820FEF7B4FE94E0E448844273
:1041400008D101211020FEF7ACFE00211020FEF75F
:10415000A8FE88E0DF48844208D101212020FEF734
:10416000A0FE00212020FEF79CFE7CE0DA4884427D
:1041700008D101214014FEF787FE00216014FEF7EC
:1041800083FE70E0D548844209D10121C804FEF7BE
:104190007BFE00214FF40020FEF776FE63E0D0485E
:1041A000844209D101210805FEF76EFE00214FF47B
:1041B0008010FEF769FE56E0CA48844209D1012109
:1041C0004805FEF761FE00214FF40010FEF75CFE8B
:1041D00049E0C548844208D101214020FEF761FE34
:1041E00000214020FEF75DFE3DE0C048844208D13A
:1041F00001218020FEF755FE00218020FEF751FEB0
:1042000031E0BB48844208D101218015FEF749FE08
:104210000021A015FEF745FE25E0B648844209D1ED
:1042200001210804FEF730FE00214FF48030FEF734
:104230002BFE18E0B048844209D101214804FEF762
:1042400023FE00214FF40030FEF71EFE0BE0AB48CA
:10425000844208D101218804FEF716FE00214FF4A4
:104260008020FEF711FE10BD00220288944B984278
:104270000ED0994B98420BD0B0F1804F08D0914BA3
:10428000984205D0904B984202D0904B984204D16E
:104290004FF68F731A404B881A438D4B984207D0C4
:1042A0008C4B984204D04FF6FF431A40CB881A43F8
:1042B00002808B8883850B880385814B98420BD0C5
:1042C000854B984208D08B4B984205D08A4B984238
:1042D00002D08A4B984201D10B7A03860123838254
:1042E000704770B5002400220023058C4FF6FE763F
:1042F00035400584028C8388048B4FF68F752C40E3
:10430000B51E2C400D882C43751E2A400D892A436A
:104310004D882A436A4DA8420BD06F4DA84208D061
:10432000744DA84205D0744DA84202D0734DA842E6
:1043300013D14FF6F7752A404D892A434FF6FB7586
:104340002A408D882A434FF6FF652B404FF6FF55D4
:104350002B408D892B43CD892B4383800483CD88CB
:104360008586028470BD70B5002400220023058C70
:104370004FF6EF7635400584028C8388048B48F62F
:10438000FF752C404FF6FF452C400D884FF6FF7609
:1043900006EA05252C434FF6DF752A400D8906EA0B
:1043A00005152A434D8806EA05152A43444DA842BF
:1043B00002D0494DA8421DD14FF67F752A404D8944
:1043C0004FF6FF7606EA05152A434FF6BF752A40D9
:1043D0008D8806EA05152A434FF6FF352B404FF22C
:1043E000FF752B408D8906EA85052B43CD8906EAAA
:1043F00085052B4383800483CD880587028470BDA7
:1044000070B5002400220023058C4FF6FF6635406E
:104410000584028C8388848B4FF68F752C404FF671
:10442000FC752C400D882C434FF6FF552A400D8912
:104430004FF6FF7606EA05252A434D8806EA05254C
:104440002A431F4DA84202D0234DA8421DD14FF24E
:10445000FF752A404D894FF6FF7606EA05252A4367
:104460004FF6FF352A408D8806EA05252A434EF689
:10447000FF752B404DF6FF752B408D8906EA05151B
:104480002B43CD8906EA05152B4383808483CD8891
:104490008587028470BD70B5002200230024058C3E
:1044A0004EF6FF7635400584038C8488828B48F66F
:1044B000FF752A404FF6FF452A400D8820E0000096
:1044C000002C01400004004000080040000C0040A7
:1044D000001000400014004000340140004C014036
:1044E000005001400054014000180040001C0040F2
:1044F00000200040004001400044014000480140CD
:104500004FF6FF7606EA05252A434DF6FF752B4048
:104510000D8906EA05352B434D8806EA05352B4300
:10452000FA4DA84202D0FA4DA84208D14BF6FF75C9
:104530002C408D894FF6FF7606EA85152C43848042
:104540008283CD88A0F84050038470BD828B4FF2E7
:10455000FF331A408283828B4FF6FF7303EA0123F5
:104560001A4382837047F0B50C461546002200219D
:104570000026078C4EF6FF7C07EA0C070784828B27
:10458000018C4FF6FF7707EA043640F6FF473A40C2
:104590004FF6FF7707EA05273A434FF6FF7707EA1A
:1045A00003373A43D94FB8420ED0D94FB8420BD057
:1045B000B0F1804F08D0D74FB84205D0D64FB8429F
:1045C00002D0D64FB84206D14DF6FF77394046F4B7
:1045D0008057394305E047F6FF57394044F4805788
:1045E000394382830184F0BD828B4FF6F3731A4006
:1045F0008283828B0A4382837047F0B50C4615464E
:10460000002200210026078C4FF6FF6C07EA0C07FA
:104610000784828B018C4FF6FF7707EA04264FF65A
:104620000C773A404FF6FF7707EA03172F433A43D8
:10463000B64FB8420ED0B64FB8420BD0B0F1804F53
:1046400008D0B44FB84205D0B34FB84202D0B34FF0
:10465000B84206D14FF6FF57394046F480773943C8
:1046600005E04FF2FF57394044F4807739438283A5
:104670000184F0BD028B4FF2FF331A400283028B9C
:104680004FF6FF7303EA01231A4302837047F0B524
:104690000C461546002200210026078C4FF6EF7CC1
:1046A00007EA0C070784028B018C4FF6FF7707EAB5
:1046B000041640F6FF473A404FF6FF7707EA033704
:1046C0003A434FF6FF7707EA05273A438F4FB84240
:1046D0000ED08F4FB8420BD0B0F1804F08D08D4F25
:1046E000B84205D08C4FB84202D08C4FB84206D1A8
:1046F0004FF6DF77394046F01007394305E04FF6B3
:104700005F77394044F01007394302830184F0BDDC
:10471000028B4FF6F3731A400283028B0A43028323
:104720007047F0B50C46154600220021068C4FF666
:10473000FE773E400684028B018C4FF60C763240A9
:104740007E1C06EA03162E433243704EB0420ED052
:104750006F4EB0420BD0B0F1804F08D06D4EB042DA
:1047600005D06D4EB04202D06C4EB04206D14FF62D
:10477000FD76314044F00106314305E04FF6F57611
:10478000314044F00106314302830184F0BD70B52D
:1047900005460C465D4885420ED05D4885420BD0EB
:1047A000B5F1804F08D05B48854205D05A48854214
:1047B00002D05A48854200D100E000BF208850B99D
:1047C0002389A28861882846FFF7ABFFE188284645
:1047D000FFF79EFF25E0208804280AD12389A288BC
:1047E00061882846FFF753FFE1882846FFF742FF1C
:1047F00017E0208808280AD12389A28861882846E2
:10480000FFF7FBFEE1882846FFF7EEFE09E023896B
:10481000A28861882846FFF7A6FEE1882846FFF7B0
:1048200095FE70BD2DE9F04105460C460026012796
:10483000608808B9022600E00026A088012801D17E
:10484000022700E001272088A0B92389A288618877
:104850002846FFF766FFE1882846FFF759FF2389BE
:104860003A4631462846FFF712FFE1882846FFF70F
:1048700001FF13E02389A28861882846FFF707FF1C
:10488000E1882846FFF7F6FE23893A463146284656
:10489000FFF747FFE1882846FFF73AFFBDE8F081C0
:1048A0000A884B881A438B881A43CB881A430B8992
:1048B0001A434B891A438B891A43A0F84420704746
:1048C0004FF6FF71818000210180C180418001721B
:1048D00070470021018041808180C1800181418138
:1048E0008181C18170470021018041800121818047
:1048F0000021C180018170470021018041808180B9
:10490000C18001814181818170470000002C0140FC
:10491000003401400004004000080040000C00404A
:1049200021B1028842F00102028004E002884FF6C1
:10493000FE731A400280704731B1B0F8442042F44F
:104940000042A0F8442005E0B0F84420C2F30E0273
:10495000A0F8442070471AB183890B43838102E099
:1049600083898B43838170478182704741EA0203C8
:10497000A0F8483070471AB183890B43838102E065
:1049800083898B438381704701894FF6F872114008
:10499000018170470A46002101894FF68F73194043
:1049A00011430181704730B504460D462946204623
:1049B000FFF7F0FF208940F00700208130BD2DE98E
:1049C000F04104460D4616461F46602D06D13B4673
:1049D000012231462046FFF75AFE05E03B46012200
:1049E00031462046FFF79DFE29462046FFF7D2FFBD
:1049F000208940F007002081BDE8F08130B50C46E9
:104A000000210189C9B24FF6FF7505EA0325154358
:104A100025432943018130BD2DE9F04105460E466D
:104A200017469846002443463A4631462846FFF743
:104A3000E5FF2C894FF6F870044044F007044FF668
:104A40008F70044044F070042C81BDE8F081F0B513
:104A500004460D4616461F463B463246294620462A
:104A6000FFF7CCFF208940F480402081F0BD018514
:104A7000828270470A46002101884FF68F731940E1
:104A8000114301807047F0B50C4615461E460021C3
:104A9000002200230189028B038C4FF6F8773940FE
:104AA00021434FF6FC473A4040F201173A434FF694
:104AB000DD773B404FF6FF7707EA06172F433B436E
:104AC000018102830384F0BD0A460021018B4FF669
:104AD0008F7319401143018370470A460021018BEF
:104AE00048F6FF7319404FF6FF7303EA0223194398
:104AF000018370470A460021818B4FF68F7319405E
:104B00001143818370470A460021818B48F6FF7369
:104B100019404FF6FF7303EA02231943818370475C
:104B200021B1028842F08002028004E002884FF640
:104B30007F731A400280704721B1828842F00402DC
:104B4000828004E082884FF6FB731A4082807047AF
:104B500021B1828842F00802828004E082884FF608
:104B6000F7731A408280704721B1828842F00102B7
:104B7000828004E082884FF6FE731A40828070477C
:104B80000A460021018B4FF6F77319401143018348
:104B900070470A460021018B4FF2FF7319404FF610
:104BA000FF7303EA02231943018370470A46002179
:104BB000818B4FF6F77319401143818370470A4682
:104BC0000021818B4FF2FF7319404FF6FF7303EA08
:104BD00002231943818370470A460021018B4FF657
:104BE000FB7319401143018370470A460021018B72
:104BF0004FF6FF3319404FF6FF7303EA02231943C0
:104C0000018370470A460021818B4FF6FB731940E0
:104C10001143818370470A460021818B4FF6FF3391
:104C200019404FF6FF7303EA02231943818370474B
:104C30000A460021018B4FF67F731940114301830F
:104C400070470A460021018BC1F30E014FF6FF7336
:104C500003EA02231943018370470A460021818B2E
:104C60004FF67F7319401143818370470A46002134
:104C7000818BC1F30E014FF6FF7303EA0223194340
:104C8000818370470A460021018C4FF6FD7319405D
:104C90001143018470470A460021018C4FF6F773D7
:104CA00019401143018470470A460021018C4FF6D8
:104CB000DF7319404FF6FF7303EA021319430184AF
:104CC00070470A460021018C4FF67F7319404FF65A
:104CD000FF7303EA02131943018470470A46002157
:104CE000018C4FF6FF5319404FF6FF7303EA02237E
:104CF0001943018470470A460021018C4FF2FF736B
:104D000019404FF6FF7303EA0223194301847047E9
:104D10000A460021018C4DF6FF7319404FF6FF73D0
:104D200003EA023319430184704730B5002301249C
:104D30008C40A3B2048C9C430484048C02FA01F5D9
:104D4000ADB22C43048430BD30B5002304248C4024
:104D5000A3B2048C9C430484048C02FA01F5ADB226
:104D60002C43048430BD70B503460020002418464F
:104D7000183001258D40ACB21D8CA5431D8409B1AE
:104D8000082909D100EB6100056825F07005056070
:104D90000568154305600EE00D1FC5F34E05284458
:104DA000056825F4E045056005684FF6FF7606EADC
:104DB00002263543056070BD21B1028842F002022F
:104DC000028004E002884FF6FD731A4002807047AB
:104DD00021B1028842F00402028004E002884FF60A
:104DE000FB731A400280704721B1828842F0800232
:104DF000828004E082884FF67F731A408280704779
:104E000002884FF6F7731A40028002880A43028034
:104E1000704782884FF68F731A40828082880A43D7
:104E20008280704702894FF6F8731A400281028926
:104E30000A430281704702894FF67F731A4002814C
:104E400002890A43028170478184704781857047D7
:104E5000818670470187704781877047A0F84010AE
:104E6000704702884FF6FF431A40028002880A43C7
:104E7000028070470146888E70470146088F704750
:104E80000146888F70470146B1F8400070470146DF
:104E9000888C70470146088D704702460020138AAF
:104EA0000B4201D0012000E000207047CA4302827B
:104EB000704730B50246002000230024158A05EA19
:104EC0000103958905EA010413B10CB1012000E04A
:104ED000002030BDCA4302827047000000204449D0
:104EE0000860091D0860091D0860091D0860414827
:104EF0003F4914310860704700213D498279002AFA
:104F00003AD00A46126803689A430B461A600A1D93
:104F1000126803689A430B1D1A60027911440A68EB
:104F200003681A430A60324A0832126803689A43D7
:104F30002F4B08331A601A1D126803689A432C4BD2
:104F40000C331A604279102A0ED11A1F12680368B6
:104F50001A43274B08331A601A1D126803681A4354
:104F6000234B0C331A600DE02149427911440A6841
:104F700003681A430A6005E0027911440A6803686D
:104F80009A430A6070470021016001710C21417150
:104F90000021817170471649103109680143144A94
:104FA00010321160704701460020114A1432126815
:104FB0000A4201D0012000E0002070470C49143162
:104FC00008607047014600200022094B1B6803EA75
:104FD0000102074B14331B680B4202D00AB10120B7
:104FE00000E000207047024914310860704700005B
:104FF00000040140FFFF0F0000206C49086048607A
:105000008860C86048628862C86269488863002016
:10501000C86370470021654A516847F6FF629143B3
:10502000027D83681A4343681A43C3681A430368BE
:105030001A4303691A4311435C4A516070470021C7
:105040000175016041608160C1600161704759492B
:10505000086070475549096821F00301534A1160FF
:10506000114609680143116070475048006800F01C
:105070000300704729B14D4AD26B02434B4BDA63B0
:1050800004E04A4AD26B8243484BDA6370474A498C
:10509000086070470021454B02689A601A46D16843
:1050A0006FF30A01D0E901231A43C3681A43036965
:1050B0001A4311433D4AD1607047002101604160AD
:1050C0008160C1600161704738480069C0B27047B3
:1050D00008B5014600200090344814300844009080
:1050E0000098006808BD0021304B02685A6242688F
:1050F0009A621A46D16A21F0F701D0E902231A43D5
:1051000003691A4343691A431143284AD16270471D
:105110004FF0FF310160002141608160C160016199
:10512000416170472148006B704724480068704710
:105130002249086070471D48806C70471E49143131
:10514000086070471C491831086070471A491C31C3
:105150000860704718492031086070471849086096
:10516000704718490860704701218143164A116051
:105170007047164908607047014600200B4A526B81
:105180000A4201D0012000E00020704707498863EF
:10519000704701460020054A526B0A4201D00120A7
:1051A00000E000207047014988637047008001409B
:1051B000FF07C000A00030428C05304280800140D3
:1051C000AC013042B0013042B4013042B80130424B
:1051D0000CB50020019000906B48006840F48030CE
:1051E0006949086000BF6848006800F4003000901A
:1051F0000198401C0190009818B90198B0F5A06F73
:10520000F1D16148006810F4003F02D00120009005
:1052100001E0002000900098012842D15B4800681E
:1052200040F01000594908600846006820F003006B
:1052300008600846006840F0020008605248406874
:10524000514948600846406848600846406840F454
:10525000806048600846406820F47C10486008463A
:10526000406840F4E81048600846006840F08070EC
:10527000086000BF4448006810F0007FFAD0424840
:10528000406820F00300404948600846406840F00C
:105290000200486000BF3C48406800F00C0008284D
:1052A000F9D10CBD10B5FFF793FF10BD10B536480E
:1052B000006840F0010034490860084640683449FD
:1052C00008403149486008460068324908402E4984
:1052D00008600846006820F480200860084640689E
:1052E00020F4FE0048604FF41F008860FFF7DAFFEB
:1052F0004FF000602849086010BD10B50021002063
:105300000022214B5B6803F00C0121B1042906D077
:10531000082928D107E0214B214C236027E01F4BAF
:105320001F4C236023E0184B5B6803F47010164B8E
:105330005B6803F48032022303EB904022B9194BDF
:105340004343174C23600DE00F4B5B6813F4003FA1
:1053500004D0144B4343124C236003E00F4B4343F0
:105360000F4C236003E00D4B0D4C236000BF00BFCA
:10537000054B5B68C3F303130B4CE15C084B1B68E4
:10538000CB40074C236010BD0010024000200240BB
:105390000000FFF8FFFFF6FE08ED00E000127A00C3
:1053A0007C00002000093D0080000020D2B201E016
:1053B00000F8012B491EFBD270470022F6E710B51A
:1053C00013460A4604461946FFF7F0FF204610BD73
:1053D000F0B480EA0102D40F4200B2EB410F02D2D6
:1053E0000246084611464A0042D0C30DDDB2C1F361
:1053F000C752AD1A202D35DAC1F3160141F400026F
:1054000004B15242C5F1200602FA06F12A411044C5
:10541000B3EBD05F23D0C4B1012DA0EBC35009DCA6
:10542000F0BC4FF0004202EAC35200F50000DBB2CC
:1054300000F016BA400000F1807000EBC350A0F1FC
:10544000807040EAD170490009E0490841EAC07122
:10545000A0EBC35000F50000400800EBC350F0BCC7
:1054600000F0F5B96142012202EB4101001BF6E7B1
:10547000F0BC704781F00041AAE780F00040A7E748
:1054800080EA010210B502F00043400026D04A0035
:1054900023D04FEA106101EB1261C0F35600C2F352
:1054A000560240F4000042F40002A0FB0220A1F1E9
:1054B0007F014FEA0040140401D000F1010050EADE
:1054C000124001D44000491EC2B20C0604EBD010B9
:1054D000401C4008802A02D003E0002010BD20F0CC
:1054E0000100002900DA0020184310BD30B480EA22
:1054F000010202F0004530F0004221F0004015D0DA
:10550000A0B1C0F3C753C2F3C754C2F31601C0F32E
:105510001600E41A41F4000140F400027D34914287
:1055200001D3641C00E04900002C02DA30BC0020EA
:1055300070474FF400000023914201D3891A0343BE
:1055400040084FEA4101F7D151B1914202D14FF0E9
:10555000004105E002D24FF0010101E06FF00101CE
:1055600003EBC450284430BC00F071B92DE9FE4F64
:1055700081EA030404F0004421F0004100944FF05C
:10558000000B23F0004350EA010402D052EA030466
:1055900004D10020014603B0BDE8F08FC3F30A54E4
:1055A000C1F30A552C44A4F2F3340194A0FB025435
:1055B000C1F3130141F48011C3F3130343F48013C7
:1055C00001FB024400FB034E840A970A44EA81541B
:1055D00047EA8357A4FB076802958D0A05FB0785F8
:1055E0004FEA932C04FB0C542705029D4FEA065802
:1055F00047EA1637B5EB08056EEB070C870E920EDF
:1056000047EA811742EA8312A7FB0201B6EB0B01BE
:1056100064EB00042B0D43EA0C335E1844EB1C5082
:10562000DA465146E7FB0201C5F313044FEA0B3398
:1056300043EA14534FEA0432019C43EA0603A4F1FF
:105640000C040294009CCDE900B400F043F9A2E7F9
:105650002DE9F04D81EA030404F0004B21F00045F0
:1056600014464FF0000A23F0004150EA050220D012
:1056700054EA01021DD0C5F30A570246C5F31303CD
:10568000C1F31300C1F30A5640F4801543F48013AC
:10569000A7EB0608101BD64608F2FD3873EB050091
:1056A00002D308F1010801E092185B41B8F1000F44
:1056B00003DA00200146BDE8F08D00204FF4801190
:1056C000064684460EE0171B73EB050705D3121B35
:1056D00063EB050306434CEA010C49084FEA30002E
:1056E00092185B4150EA0107EDD152EA030012D053
:1056F00082EA040083EA0501084303D100224FF047
:10570000004308E0101BAB4102D20122002302E05B
:105710006FF0010253101AEB06004CEB085110EB2E
:105720000A0041EB0B01BDE8F04D00F0C6B8C10F17
:1057300080EAE0700844CA079623002100F090B880
:105740000EB5C10F80EAE0700844CA07002140F29C
:1057500033438DE80E000A460B4600F0BBF803B059
:1057600000BD00F0004230F000400AD0C10D01F54C
:105770006071C0F3160042EA0151C20840071143AC
:10578000704700200146704701F0004330B421F01B
:10579000004150EA010206D00A0DA2F56072C1F381
:1057A0001301002A02DC30BC00207047440F44EA99
:1057B000C104C100E01830BC00EBC25000F047B893
:1057C00030B50B46014600202022012409E021FAD1
:1057D00002F59D4205D303FA02F5491B04FA02F5CE
:1057E0002844151EA2F10102F1DC30BD2DE9F05F65
:1057F0000546002092469B46884606468146402440
:105800001BE0284641464746224600F012FA53461E
:105810005A46C01A914110D311461846224600F04C
:10582000F9F92D1A67EB01084F46224601200021A5
:1058300000F0F0F917EB00094E41201EA4F101041D
:10584000DFDC484631462A464346BDE8F09F002942
:10585000A8BF7047401C490008BF20F001007047F6
:1058600010B4B0FA80FC00FA0CF050EA010404BF56
:1058700010BC704749B1CCF1200421FA04F411FAAC
:105880000CF118BF012121430843A3EB0C01CB1DF0
:105890000106000A002BBEBF002010BC704700EBC1
:1058A000C35010440029A4BF10BC7047401C4900DD
:1058B00008BF20F0010010BC704710B5002B08DABB
:1058C000401C41F1000192185B411A4301D120F0C4
:1058D000010010BD2DE9F04D92469B4611B1B1FA81
:1058E00081F202E0B0FA80F22032904600F092F9A4
:1058F00004460F4640EA0A0041EA0B0153465A4665
:10590000084303D120463946BDE8F08D114653EADD
:10591000010015D0C8F14002504600F08AF9054652
:105920000E4650465946424600F074F9084301D0ED
:10593000012000E00020054346EAE0762C4337438F
:105940000A984FEA4453A0EB08004FEAD4240A30E7
:105950004FF0000244EA47544FEAD72502D5002011
:105960000146D1E7010510196941DDE90845001933
:105970006941BDE8F04DA0E72DE9FE4F804681EA80
:105980000300C00F0C46009021F0004123F00045B9
:10599000B8EB0200A94105D24046214690461C467C
:1059A0000B46024623F00040104304D140462146F6
:1059B00003B0BDE8F08F270DC7F30A00C3F30A5107
:1059C0000290401A0190402866DAC3F3130040F4B5
:1059D000801B0098924620B10023D2EB030A63EBB0
:1059E0000B0B01985946C0F14002504600F012F9E5
:1059F00006460D4650465946019A00F02AF910EB2A
:105A000008006141002487EA115284EAE7731A43CF
:105A10003BD0009A3AB3019A012A4FEA075210DCB0
:105A2000001B61EB02014FF0004202EA0752CDE990
:105A30000042001C41F5801132462B46FFF74AFF19
:105A4000B6E7001B61EB0201001C41F58013001852
:105A50005B412018A2F5001747EB030140EAD5701F
:105A6000B6196D4111E06D084FEA360645EAC0757A
:105A70004FEA0752001B61EB0201001C41F5801147
:105A800049084FEA30000019514132462B4603B015
:105A9000BDE8F04FFFF711BF00980122400000233E
:105AA000D0EB020263EBE073009821464FEAE0740A
:105AB000B8EB000061EB0401E9E783F000435BE72A
:105AC00081F0004158E770B521F0004303430CD04A
:105AD000C1F30A550024D5EB040564EB0403D61783
